{
	"contract/SafeServiceEscrow.sol": {
		"SafeServiceEscrow": {
			"abi": [
				{
					"inputs": [
						{
							"internalType": "address payable",
							"name": "_client",
							"type": "address"
						},
						{
							"internalType": "address payable",
							"name": "_agent",
							"type": "address"
						},
						{
							"internalType": "uint256",
							"name": "_duration",
							"type": "uint256"
						}
					],
					"stateMutability": "payable",
					"type": "constructor"
				},
				{
					"inputs": [],
					"name": "AccessControlBadConfirmation",
					"type": "error"
				},
				{
					"inputs": [
						{
							"internalType": "address",
							"name": "account",
							"type": "address"
						},
						{
							"internalType": "bytes32",
							"name": "neededRole",
							"type": "bytes32"
						}
					],
					"name": "AccessControlUnauthorizedAccount",
					"type": "error"
				},
				{
					"anonymous": false,
					"inputs": [
						{
							"indexed": true,
							"internalType": "address",
							"name": "by",
							"type": "address"
						}
					],
					"name": "DisputeRaised",
					"type": "event"
				},
				{
					"anonymous": false,
					"inputs": [
						{
							"indexed": true,
							"internalType": "address",
							"name": "to",
							"type": "address"
						},
						{
							"indexed": false,
							"internalType": "uint256",
							"name": "amount",
							"type": "uint256"
						}
					],
					"name": "Refunded",
					"type": "event"
				},
				{
					"anonymous": false,
					"inputs": [
						{
							"indexed": true,
							"internalType": "bytes32",
							"name": "role",
							"type": "bytes32"
						},
						{
							"indexed": true,
							"internalType": "bytes32",
							"name": "previousAdminRole",
							"type": "bytes32"
						},
						{
							"indexed": true,
							"internalType": "bytes32",
							"name": "newAdminRole",
							"type": "bytes32"
						}
					],
					"name": "RoleAdminChanged",
					"type": "event"
				},
				{
					"anonymous": false,
					"inputs": [
						{
							"indexed": true,
							"internalType": "bytes32",
							"name": "role",
							"type": "bytes32"
						},
						{
							"indexed": true,
							"internalType": "address",
							"name": "account",
							"type": "address"
						},
						{
							"indexed": true,
							"internalType": "address",
							"name": "sender",
							"type": "address"
						}
					],
					"name": "RoleGranted",
					"type": "event"
				},
				{
					"anonymous": false,
					"inputs": [
						{
							"indexed": true,
							"internalType": "bytes32",
							"name": "role",
							"type": "bytes32"
						},
						{
							"indexed": true,
							"internalType": "address",
							"name": "account",
							"type": "address"
						},
						{
							"indexed": true,
							"internalType": "address",
							"name": "sender",
							"type": "address"
						}
					],
					"name": "RoleRevoked",
					"type": "event"
				},
				{
					"anonymous": false,
					"inputs": [
						{
							"indexed": true,
							"internalType": "address",
							"name": "by",
							"type": "address"
						},
						{
							"indexed": false,
							"internalType": "uint256",
							"name": "amount",
							"type": "uint256"
						}
					],
					"name": "ServiceConfirmed",
					"type": "event"
				},
				{
					"inputs": [],
					"name": "AGENT_ROLE",
					"outputs": [
						{
							"internalType": "bytes32",
							"name": "",
							"type": "bytes32"
						}
					],
					"stateMutability": "view",
					"type": "function"
				},
				{
					"inputs": [],
					"name": "CLIENT_ROLE",
					"outputs": [
						{
							"internalType": "bytes32",
							"name": "",
							"type": "bytes32"
						}
					],
					"stateMutability": "view",
					"type": "function"
				},
				{
					"inputs": [],
					"name": "DEFAULT_ADMIN_ROLE",
					"outputs": [
						{
							"internalType": "bytes32",
							"name": "",
							"type": "bytes32"
						}
					],
					"stateMutability": "view",
					"type": "function"
				},
				{
					"inputs": [],
					"name": "agent",
					"outputs": [
						{
							"internalType": "address payable",
							"name": "",
							"type": "address"
						}
					],
					"stateMutability": "view",
					"type": "function"
				},
				{
					"inputs": [],
					"name": "amount",
					"outputs": [
						{
							"internalType": "uint256",
							"name": "",
							"type": "uint256"
						}
					],
					"stateMutability": "view",
					"type": "function"
				},
				{
					"inputs": [],
					"name": "cancelAndRefund",
					"outputs": [],
					"stateMutability": "nonpayable",
					"type": "function"
				},
				{
					"inputs": [],
					"name": "client",
					"outputs": [
						{
							"internalType": "address payable",
							"name": "",
							"type": "address"
						}
					],
					"stateMutability": "view",
					"type": "function"
				},
				{
					"inputs": [],
					"name": "confirmCompletion",
					"outputs": [],
					"stateMutability": "nonpayable",
					"type": "function"
				},
				{
					"inputs": [],
					"name": "deadline",
					"outputs": [
						{
							"internalType": "uint256",
							"name": "",
							"type": "uint256"
						}
					],
					"stateMutability": "view",
					"type": "function"
				},
				{
					"inputs": [
						{
							"internalType": "bytes32",
							"name": "role",
							"type": "bytes32"
						}
					],
					"name": "getRoleAdmin",
					"outputs": [
						{
							"internalType": "bytes32",
							"name": "",
							"type": "bytes32"
						}
					],
					"stateMutability": "view",
					"type": "function"
				},
				{
					"inputs": [],
					"name": "getStatus",
					"outputs": [
						{
							"internalType": "string",
							"name": "",
							"type": "string"
						}
					],
					"stateMutability": "view",
					"type": "function"
				},
				{
					"inputs": [
						{
							"internalType": "bytes32",
							"name": "role",
							"type": "bytes32"
						},
						{
							"internalType": "address",
							"name": "account",
							"type": "address"
						}
					],
					"name": "grantRole",
					"outputs": [],
					"stateMutability": "nonpayable",
					"type": "function"
				},
				{
					"inputs": [
						{
							"internalType": "bytes32",
							"name": "role",
							"type": "bytes32"
						},
						{
							"internalType": "address",
							"name": "account",
							"type": "address"
						}
					],
					"name": "hasRole",
					"outputs": [
						{
							"internalType": "bool",
							"name": "",
							"type": "bool"
						}
					],
					"stateMutability": "view",
					"type": "function"
				},
				{
					"inputs": [],
					"name": "raiseDispute",
					"outputs": [],
					"stateMutability": "nonpayable",
					"type": "function"
				},
				{
					"inputs": [
						{
							"internalType": "bytes32",
							"name": "role",
							"type": "bytes32"
						},
						{
							"internalType": "address",
							"name": "callerConfirmation",
							"type": "address"
						}
					],
					"name": "renounceRole",
					"outputs": [],
					"stateMutability": "nonpayable",
					"type": "function"
				},
				{
					"inputs": [
						{
							"internalType": "bytes32",
							"name": "role",
							"type": "bytes32"
						},
						{
							"internalType": "address",
							"name": "account",
							"type": "address"
						}
					],
					"name": "revokeRole",
					"outputs": [],
					"stateMutability": "nonpayable",
					"type": "function"
				},
				{
					"inputs": [],
					"name": "status",
					"outputs": [
						{
							"internalType": "enum SafeServiceEscrow.Status",
							"name": "",
							"type": "uint8"
						}
					],
					"stateMutability": "view",
					"type": "function"
				},
				{
					"inputs": [
						{
							"internalType": "bytes4",
							"name": "interfaceId",
							"type": "bytes4"
						}
					],
					"name": "supportsInterface",
					"outputs": [
						{
							"internalType": "bool",
							"name": "",
							"type": "bool"
						}
					],
					"stateMutability": "view",
					"type": "function"
				}
			],
			"devdoc": {
				"errors": {
					"AccessControlBadConfirmation()": [
						{
							"details": "The caller of a function is not the expected one. NOTE: Don't confuse with {AccessControlUnauthorizedAccount}."
						}
					],
					"AccessControlUnauthorizedAccount(address,bytes32)": [
						{
							"details": "The `account` is missing a role."
						}
					]
				},
				"events": {
					"RoleAdminChanged(bytes32,bytes32,bytes32)": {
						"details": "Emitted when `newAdminRole` is set as ``role``'s admin role, replacing `previousAdminRole` `DEFAULT_ADMIN_ROLE` is the starting admin for all roles, despite {RoleAdminChanged} not being emitted to signal this."
					},
					"RoleGranted(bytes32,address,address)": {
						"details": "Emitted when `account` is granted `role`. `sender` is the account that originated the contract call. This account bears the admin role (for the granted role). Expected in cases where the role was granted using the internal {AccessControl-_grantRole}."
					},
					"RoleRevoked(bytes32,address,address)": {
						"details": "Emitted when `account` is revoked `role`. `sender` is the account that originated the contract call:   - if using `revokeRole`, it is the admin role bearer   - if using `renounceRole`, it is the role bearer (i.e. `account`)"
					}
				},
				"kind": "dev",
				"methods": {
					"getRoleAdmin(bytes32)": {
						"details": "Returns the admin role that controls `role`. See {grantRole} and {revokeRole}. To change a role's admin, use {_setRoleAdmin}."
					},
					"grantRole(bytes32,address)": {
						"details": "Grants `role` to `account`. If `account` had not been already granted `role`, emits a {RoleGranted} event. Requirements: - the caller must have ``role``'s admin role. May emit a {RoleGranted} event."
					},
					"hasRole(bytes32,address)": {
						"details": "Returns `true` if `account` has been granted `role`."
					},
					"renounceRole(bytes32,address)": {
						"details": "Revokes `role` from the calling account. Roles are often managed via {grantRole} and {revokeRole}: this function's purpose is to provide a mechanism for accounts to lose their privileges if they are compromised (such as when a trusted device is misplaced). If the calling account had been revoked `role`, emits a {RoleRevoked} event. Requirements: - the caller must be `callerConfirmation`. May emit a {RoleRevoked} event."
					},
					"revokeRole(bytes32,address)": {
						"details": "Revokes `role` from `account`. If `account` had been granted `role`, emits a {RoleRevoked} event. Requirements: - the caller must have ``role``'s admin role. May emit a {RoleRevoked} event."
					},
					"supportsInterface(bytes4)": {
						"details": "See {IERC165-supportsInterface}."
					}
				},
				"version": 1
			},
			"evm": {
				"assembly": "    /* \"contract/SafeServiceEscrow.sol\":187:2797  contract SafeServiceEscrow is AccessControl, ReentrancyGuard {... */\n  mstore(0x40, 0x80)\n    /* \"contract/SafeServiceEscrow.sol\":1011:1469  constructor(address payable _client, address payable _agent, uint256 _duration) payable {... */\n  mload(0x40)\n  sub(codesize, bytecodeSize)\n  dup1\n  bytecodeSize\n  dup4\n  codecopy\n  dup2\n  dup2\n  add\n  0x40\n  mstore\n  dup2\n  add\n  swap1\n  tag_1\n  swap2\n  swap1\n  tag_2\n  jump\t// in\ntag_1:\n    /* \"@openzeppelin/contracts/security/ReentrancyGuard.sol\":1716:1717  1 */\n  0x01\n    /* \"@openzeppelin/contracts/security/ReentrancyGuard.sol\":1821:1828  _status */\n  dup1\n    /* \"@openzeppelin/contracts/security/ReentrancyGuard.sol\":1821:1843  _status = _NOT_ENTERED */\n  dup2\n  swap1\n  sstore\n  pop\n    /* \"contract/SafeServiceEscrow.sol\":1130:1131  0 */\n  0x00\n    /* \"contract/SafeServiceEscrow.sol\":1118:1127  msg.value */\n  callvalue\n    /* \"contract/SafeServiceEscrow.sol\":1118:1131  msg.value > 0 */\n  gt\n    /* \"contract/SafeServiceEscrow.sol\":1110:1157  require(msg.value > 0, \"Escrow must be funded\") */\n  tag_7\n  jumpi\n  mload(0x40)\n  0x08c379a000000000000000000000000000000000000000000000000000000000\n  dup2\n  mstore\n  0x04\n  add\n  tag_8\n  swap1\n  tag_9\n  jump\t// in\ntag_8:\n  mload(0x40)\n  dup1\n  swap2\n  sub\n  swap1\n  revert\ntag_7:\n    /* \"contract/SafeServiceEscrow.sol\":1170:1212  _grantRole(DEFAULT_ADMIN_ROLE, msg.sender) */\n  tag_10\n    /* \"@openzeppelin/contracts/access/AccessControl.sol\":2232:2236  0x00 */\n  0x00\n    /* \"contract/SafeServiceEscrow.sol\":1181:1199  DEFAULT_ADMIN_ROLE */\n  dup1\n  shl\n    /* \"contract/SafeServiceEscrow.sol\":1201:1211  msg.sender */\n  caller\n    /* \"contract/SafeServiceEscrow.sol\":1170:1180  _grantRole */\n  shl(0x20, tag_11)\n    /* \"contract/SafeServiceEscrow.sol\":1170:1212  _grantRole(DEFAULT_ADMIN_ROLE, msg.sender) */\n  0x20\n  shr\n  jump\t// in\ntag_10:\n  pop\n    /* \"contract/SafeServiceEscrow.sol\":1223:1255  _grantRole(CLIENT_ROLE, _client) */\n  tag_12\n    /* \"contract/SafeServiceEscrow.sol\":293:317  keccak256(\"CLIENT_ROLE\") */\n  0xa5ff3ec7a96cdbba4d2d5172d66bbc73c6db3885f29b21be5da9fa7a7c025232\n    /* \"contract/SafeServiceEscrow.sol\":1247:1254  _client */\n  dup5\n    /* \"contract/SafeServiceEscrow.sol\":1223:1233  _grantRole */\n  shl(0x20, tag_11)\n    /* \"contract/SafeServiceEscrow.sol\":1223:1255  _grantRole(CLIENT_ROLE, _client) */\n  0x20\n  shr\n  jump\t// in\ntag_12:\n  pop\n    /* \"contract/SafeServiceEscrow.sol\":1266:1296  _grantRole(AGENT_ROLE, _agent) */\n  tag_13\n    /* \"contract/SafeServiceEscrow.sol\":361:384  keccak256(\"AGENT_ROLE\") */\n  0xcab5a0bfe0b79d2c4b1c2e02599fa044d115b7511f9659307cb4276950967709\n    /* \"contract/SafeServiceEscrow.sol\":1289:1295  _agent */\n  dup4\n    /* \"contract/SafeServiceEscrow.sol\":1266:1276  _grantRole */\n  shl(0x20, tag_11)\n    /* \"contract/SafeServiceEscrow.sol\":1266:1296  _grantRole(AGENT_ROLE, _agent) */\n  0x20\n  shr\n  jump\t// in\ntag_13:\n  pop\n    /* \"contract/SafeServiceEscrow.sol\":1318:1325  _client */\n  dup3\n    /* \"contract/SafeServiceEscrow.sol\":1309:1315  client */\n  0x03\n  0x00\n    /* \"contract/SafeServiceEscrow.sol\":1309:1325  client = _client */\n  0x0100\n  exp\n  dup2\n  sload\n  dup2\n  0xffffffffffffffffffffffffffffffffffffffff\n  mul\n  not\n  and\n  swap1\n  dup4\n  0xffffffffffffffffffffffffffffffffffffffff\n  and\n  mul\n  or\n  swap1\n  sstore\n  pop\n    /* \"contract/SafeServiceEscrow.sol\":1344:1350  _agent */\n  dup2\n    /* \"contract/SafeServiceEscrow.sol\":1336:1341  agent */\n  0x02\n  0x00\n    /* \"contract/SafeServiceEscrow.sol\":1336:1350  agent = _agent */\n  0x0100\n  exp\n  dup2\n  sload\n  dup2\n  0xffffffffffffffffffffffffffffffffffffffff\n  mul\n  not\n  and\n  swap1\n  dup4\n  0xffffffffffffffffffffffffffffffffffffffff\n  and\n  mul\n  or\n  swap1\n  sstore\n  pop\n    /* \"contract/SafeServiceEscrow.sol\":1390:1399  _duration */\n  dup1\n    /* \"contract/SafeServiceEscrow.sol\":1372:1387  block.timestamp */\n  timestamp\n    /* \"contract/SafeServiceEscrow.sol\":1372:1399  block.timestamp + _duration */\n  tag_14\n  swap2\n  swap1\n  tag_15\n  jump\t// in\ntag_14:\n    /* \"contract/SafeServiceEscrow.sol\":1361:1369  deadline */\n  0x04\n    /* \"contract/SafeServiceEscrow.sol\":1361:1399  deadline = block.timestamp + _duration */\n  dup2\n  swap1\n  sstore\n  pop\n    /* \"contract/SafeServiceEscrow.sol\":1419:1428  msg.value */\n  callvalue\n    /* \"contract/SafeServiceEscrow.sol\":1410:1416  amount */\n  0x05\n    /* \"contract/SafeServiceEscrow.sol\":1410:1428  amount = msg.value */\n  dup2\n  swap1\n  sstore\n  pop\n    /* \"contract/SafeServiceEscrow.sol\":1448:1461  Status.Active */\n  0x00\n    /* \"contract/SafeServiceEscrow.sol\":1439:1445  status */\n  0x06\n  0x00\n    /* \"contract/SafeServiceEscrow.sol\":1439:1461  status = Status.Active */\n  0x0100\n  exp\n  dup2\n  sload\n  dup2\n  0xff\n  mul\n  not\n  and\n  swap1\n  dup4\n  0x03\n  dup2\n  gt\n  iszero\n  tag_16\n  jumpi\n  tag_17\n  tag_18\n  jump\t// in\ntag_17:\ntag_16:\n  mul\n  or\n  swap1\n  sstore\n  pop\n    /* \"contract/SafeServiceEscrow.sol\":1011:1469  constructor(address payable _client, address payable _agent, uint256 _duration) payable {... */\n  pop\n  pop\n  pop\n    /* \"contract/SafeServiceEscrow.sol\":187:2797  contract SafeServiceEscrow is AccessControl, ReentrancyGuard {... */\n  jump(tag_19)\n    /* \"@openzeppelin/contracts/access/AccessControl.sol\":6179:6495  function _grantRole(bytes32 role, address account) internal virtual returns (bool) {... */\ntag_11:\n    /* \"@openzeppelin/contracts/access/AccessControl.sol\":6256:6260  bool */\n  0x00\n    /* \"@openzeppelin/contracts/access/AccessControl.sol\":6277:6299  hasRole(role, account) */\n  tag_21\n    /* \"@openzeppelin/contracts/access/AccessControl.sol\":6285:6289  role */\n  dup4\n    /* \"@openzeppelin/contracts/access/AccessControl.sol\":6291:6298  account */\n  dup4\n    /* \"@openzeppelin/contracts/access/AccessControl.sol\":6277:6284  hasRole */\n  shl(0x20, tag_22)\n    /* \"@openzeppelin/contracts/access/AccessControl.sol\":6277:6299  hasRole(role, account) */\n  0x20\n  shr\n  jump\t// in\ntag_21:\n    /* \"@openzeppelin/contracts/access/AccessControl.sol\":6272:6489  if (!hasRole(role, account)) {... */\n  tag_23\n  jumpi\n    /* \"@openzeppelin/contracts/access/AccessControl.sol\":6347:6351  true */\n  0x01\n    /* \"@openzeppelin/contracts/access/AccessControl.sol\":6315:6321  _roles */\n  0x00\n    /* \"@openzeppelin/contracts/access/AccessControl.sol\":6315:6327  _roles[role] */\n  dup1\n    /* \"@openzeppelin/contracts/access/AccessControl.sol\":6322:6326  role */\n  dup6\n    /* \"@openzeppelin/contracts/access/AccessControl.sol\":6315:6327  _roles[role] */\n  dup2\n  mstore\n  0x20\n  add\n  swap1\n  dup2\n  mstore\n  0x20\n  add\n  0x00\n  keccak256\n    /* \"@openzeppelin/contracts/access/AccessControl.sol\":6315:6335  _roles[role].hasRole */\n  0x00\n  add\n    /* \"@openzeppelin/contracts/access/AccessControl.sol\":6315:6344  _roles[role].hasRole[account] */\n  0x00\n    /* \"@openzeppelin/contracts/access/AccessControl.sol\":6336:6343  account */\n  dup5\n    /* \"@openzeppelin/contracts/access/AccessControl.sol\":6315:6344  _roles[role].hasRole[account] */\n  0xffffffffffffffffffffffffffffffffffffffff\n  and\n  0xffffffffffffffffffffffffffffffffffffffff\n  and\n  dup2\n  mstore\n  0x20\n  add\n  swap1\n  dup2\n  mstore\n  0x20\n  add\n  0x00\n  keccak256\n  0x00\n    /* \"@openzeppelin/contracts/access/AccessControl.sol\":6315:6351  _roles[role].hasRole[account] = true */\n  0x0100\n  exp\n  dup2\n  sload\n  dup2\n  0xff\n  mul\n  not\n  and\n  swap1\n  dup4\n  iszero\n  iszero\n  mul\n  or\n  swap1\n  sstore\n  pop\n    /* \"@openzeppelin/contracts/access/AccessControl.sol\":6397:6409  _msgSender() */\n  tag_24\n    /* \"@openzeppelin/contracts/access/AccessControl.sol\":6397:6407  _msgSender */\n  shl(0x20, tag_25)\n    /* \"@openzeppelin/contracts/access/AccessControl.sol\":6397:6409  _msgSender() */\n  0x20\n  shr\n  jump\t// in\ntag_24:\n    /* \"@openzeppelin/contracts/access/AccessControl.sol\":6370:6410  RoleGranted(role, account, _msgSender()) */\n  0xffffffffffffffffffffffffffffffffffffffff\n  and\n    /* \"@openzeppelin/contracts/access/AccessControl.sol\":6388:6395  account */\n  dup3\n    /* \"@openzeppelin/contracts/access/AccessControl.sol\":6370:6410  RoleGranted(role, account, _msgSender()) */\n  0xffffffffffffffffffffffffffffffffffffffff\n  and\n    /* \"@openzeppelin/contracts/access/AccessControl.sol\":6382:6386  role */\n  dup5\n    /* \"@openzeppelin/contracts/access/AccessControl.sol\":6370:6410  RoleGranted(role, account, _msgSender()) */\n  0x2f8788117e7eff1d82e926ec794901d17c78024a50270940304540a733656f0d\n  mload(0x40)\n  mload(0x40)\n  dup1\n  swap2\n  sub\n  swap1\n  log4\n    /* \"@openzeppelin/contracts/access/AccessControl.sol\":6431:6435  true */\n  0x01\n    /* \"@openzeppelin/contracts/access/AccessControl.sol\":6424:6435  return true */\n  swap1\n  pop\n  jump(tag_20)\n    /* \"@openzeppelin/contracts/access/AccessControl.sol\":6272:6489  if (!hasRole(role, account)) {... */\ntag_23:\n    /* \"@openzeppelin/contracts/access/AccessControl.sol\":6473:6478  false */\n  0x00\n    /* \"@openzeppelin/contracts/access/AccessControl.sol\":6466:6478  return false */\n  swap1\n  pop\n    /* \"@openzeppelin/contracts/access/AccessControl.sol\":6179:6495  function _grantRole(bytes32 role, address account) internal virtual returns (bool) {... */\ntag_20:\n  swap3\n  swap2\n  pop\n  pop\n  jump\t// out\n    /* \"@openzeppelin/contracts/access/AccessControl.sol\":2854:2990  function hasRole(bytes32 role, address account) public view virtual returns (bool) {... */\ntag_22:\n    /* \"@openzeppelin/contracts/access/AccessControl.sol\":2931:2935  bool */\n  0x00\n    /* \"@openzeppelin/contracts/access/AccessControl.sol\":2954:2960  _roles */\n  dup1\n    /* \"@openzeppelin/contracts/access/AccessControl.sol\":2954:2966  _roles[role] */\n  0x00\n    /* \"@openzeppelin/contracts/access/AccessControl.sol\":2961:2965  role */\n  dup5\n    /* \"@openzeppelin/contracts/access/AccessControl.sol\":2954:2966  _roles[role] */\n  dup2\n  mstore\n  0x20\n  add\n  swap1\n  dup2\n  mstore\n  0x20\n  add\n  0x00\n  keccak256\n    /* \"@openzeppelin/contracts/access/AccessControl.sol\":2954:2974  _roles[role].hasRole */\n  0x00\n  add\n    /* \"@openzeppelin/contracts/access/AccessControl.sol\":2954:2983  _roles[role].hasRole[account] */\n  0x00\n    /* \"@openzeppelin/contracts/access/AccessControl.sol\":2975:2982  account */\n  dup4\n    /* \"@openzeppelin/contracts/access/AccessControl.sol\":2954:2983  _roles[role].hasRole[account] */\n  0xffffffffffffffffffffffffffffffffffffffff\n  and\n  0xffffffffffffffffffffffffffffffffffffffff\n  and\n  dup2\n  mstore\n  0x20\n  add\n  swap1\n  dup2\n  mstore\n  0x20\n  add\n  0x00\n  keccak256\n  0x00\n  swap1\n  sload\n  swap1\n  0x0100\n  exp\n  swap1\n  div\n  0xff\n  and\n    /* \"@openzeppelin/contracts/access/AccessControl.sol\":2947:2983  return _roles[role].hasRole[account] */\n  swap1\n  pop\n    /* \"@openzeppelin/contracts/access/AccessControl.sol\":2854:2990  function hasRole(bytes32 role, address account) public view virtual returns (bool) {... */\n  swap3\n  swap2\n  pop\n  pop\n  jump\t// out\n    /* \"@openzeppelin/contracts/utils/Context.sol\":656:752  function _msgSender() internal view virtual returns (address) {... */\ntag_25:\n    /* \"@openzeppelin/contracts/utils/Context.sol\":709:716  address */\n  0x00\n    /* \"@openzeppelin/contracts/utils/Context.sol\":735:745  msg.sender */\n  caller\n    /* \"@openzeppelin/contracts/utils/Context.sol\":728:745  return msg.sender */\n  swap1\n  pop\n    /* \"@openzeppelin/contracts/utils/Context.sol\":656:752  function _msgSender() internal view virtual returns (address) {... */\n  swap1\n  jump\t// out\n    /* \"#utility.yul\":88:205   */\ntag_30:\n    /* \"#utility.yul\":197:198   */\n  0x00\n    /* \"#utility.yul\":194:195   */\n  dup1\n    /* \"#utility.yul\":187:199   */\n  revert\n    /* \"#utility.yul\":334:460   */\ntag_32:\n    /* \"#utility.yul\":371:378   */\n  0x00\n    /* \"#utility.yul\":411:453   */\n  0xffffffffffffffffffffffffffffffffffffffff\n    /* \"#utility.yul\":404:409   */\n  dup3\n    /* \"#utility.yul\":400:454   */\n  and\n    /* \"#utility.yul\":389:454   */\n  swap1\n  pop\n    /* \"#utility.yul\":334:460   */\n  swap2\n  swap1\n  pop\n  jump\t// out\n    /* \"#utility.yul\":466:570   */\ntag_33:\n    /* \"#utility.yul\":511:518   */\n  0x00\n    /* \"#utility.yul\":540:564   */\n  tag_49\n    /* \"#utility.yul\":558:563   */\n  dup3\n    /* \"#utility.yul\":540:564   */\n  tag_32\n  jump\t// in\ntag_49:\n    /* \"#utility.yul\":529:564   */\n  swap1\n  pop\n    /* \"#utility.yul\":466:570   */\n  swap2\n  swap1\n  pop\n  jump\t// out\n    /* \"#utility.yul\":576:714   */\ntag_34:\n    /* \"#utility.yul\":657:689   */\n  tag_51\n    /* \"#utility.yul\":683:688   */\n  dup2\n    /* \"#utility.yul\":657:689   */\n  tag_33\n  jump\t// in\ntag_51:\n    /* \"#utility.yul\":650:655   */\n  dup2\n    /* \"#utility.yul\":647:690   */\n  eq\n    /* \"#utility.yul\":637:708   */\n  tag_52\n  jumpi\n    /* \"#utility.yul\":704:705   */\n  0x00\n    /* \"#utility.yul\":701:702   */\n  dup1\n    /* \"#utility.yul\":694:706   */\n  revert\n    /* \"#utility.yul\":637:708   */\ntag_52:\n    /* \"#utility.yul\":576:714   */\n  pop\n  jump\t// out\n    /* \"#utility.yul\":720:879   */\ntag_35:\n    /* \"#utility.yul\":785:790   */\n  0x00\n    /* \"#utility.yul\":816:822   */\n  dup2\n    /* \"#utility.yul\":810:823   */\n  mload\n    /* \"#utility.yul\":801:823   */\n  swap1\n  pop\n    /* \"#utility.yul\":832:873   */\n  tag_54\n    /* \"#utility.yul\":867:872   */\n  dup2\n    /* \"#utility.yul\":832:873   */\n  tag_34\n  jump\t// in\ntag_54:\n    /* \"#utility.yul\":720:879   */\n  swap3\n  swap2\n  pop\n  pop\n  jump\t// out\n    /* \"#utility.yul\":885:962   */\ntag_36:\n    /* \"#utility.yul\":922:929   */\n  0x00\n    /* \"#utility.yul\":951:956   */\n  dup2\n    /* \"#utility.yul\":940:956   */\n  swap1\n  pop\n    /* \"#utility.yul\":885:962   */\n  swap2\n  swap1\n  pop\n  jump\t// out\n    /* \"#utility.yul\":968:1090   */\ntag_37:\n    /* \"#utility.yul\":1041:1065   */\n  tag_57\n    /* \"#utility.yul\":1059:1064   */\n  dup2\n    /* \"#utility.yul\":1041:1065   */\n  tag_36\n  jump\t// in\ntag_57:\n    /* \"#utility.yul\":1034:1039   */\n  dup2\n    /* \"#utility.yul\":1031:1066   */\n  eq\n    /* \"#utility.yul\":1021:1084   */\n  tag_58\n  jumpi\n    /* \"#utility.yul\":1080:1081   */\n  0x00\n    /* \"#utility.yul\":1077:1078   */\n  dup1\n    /* \"#utility.yul\":1070:1082   */\n  revert\n    /* \"#utility.yul\":1021:1084   */\ntag_58:\n    /* \"#utility.yul\":968:1090   */\n  pop\n  jump\t// out\n    /* \"#utility.yul\":1096:1239   */\ntag_38:\n    /* \"#utility.yul\":1153:1158   */\n  0x00\n    /* \"#utility.yul\":1184:1190   */\n  dup2\n    /* \"#utility.yul\":1178:1191   */\n  mload\n    /* \"#utility.yul\":1169:1191   */\n  swap1\n  pop\n    /* \"#utility.yul\":1200:1233   */\n  tag_60\n    /* \"#utility.yul\":1227:1232   */\n  dup2\n    /* \"#utility.yul\":1200:1233   */\n  tag_37\n  jump\t// in\ntag_60:\n    /* \"#utility.yul\":1096:1239   */\n  swap3\n  swap2\n  pop\n  pop\n  jump\t// out\n    /* \"#utility.yul\":1245:1940   */\ntag_2:\n    /* \"#utility.yul\":1349:1355   */\n  0x00\n    /* \"#utility.yul\":1357:1363   */\n  dup1\n    /* \"#utility.yul\":1365:1371   */\n  0x00\n    /* \"#utility.yul\":1414:1416   */\n  0x60\n    /* \"#utility.yul\":1402:1411   */\n  dup5\n    /* \"#utility.yul\":1393:1400   */\n  dup7\n    /* \"#utility.yul\":1389:1412   */\n  sub\n    /* \"#utility.yul\":1385:1417   */\n  slt\n    /* \"#utility.yul\":1382:1501   */\n  iszero\n  tag_62\n  jumpi\n    /* \"#utility.yul\":1420:1499   */\n  tag_63\n  tag_30\n  jump\t// in\ntag_63:\n    /* \"#utility.yul\":1382:1501   */\ntag_62:\n    /* \"#utility.yul\":1540:1541   */\n  0x00\n    /* \"#utility.yul\":1565:1637   */\n  tag_64\n    /* \"#utility.yul\":1629:1636   */\n  dup7\n    /* \"#utility.yul\":1620:1626   */\n  dup3\n    /* \"#utility.yul\":1609:1618   */\n  dup8\n    /* \"#utility.yul\":1605:1627   */\n  add\n    /* \"#utility.yul\":1565:1637   */\n  tag_35\n  jump\t// in\ntag_64:\n    /* \"#utility.yul\":1555:1637   */\n  swap4\n  pop\n    /* \"#utility.yul\":1511:1647   */\n  pop\n    /* \"#utility.yul\":1686:1688   */\n  0x20\n    /* \"#utility.yul\":1712:1784   */\n  tag_65\n    /* \"#utility.yul\":1776:1783   */\n  dup7\n    /* \"#utility.yul\":1767:1773   */\n  dup3\n    /* \"#utility.yul\":1756:1765   */\n  dup8\n    /* \"#utility.yul\":1752:1774   */\n  add\n    /* \"#utility.yul\":1712:1784   */\n  tag_35\n  jump\t// in\ntag_65:\n    /* \"#utility.yul\":1702:1784   */\n  swap3\n  pop\n    /* \"#utility.yul\":1657:1794   */\n  pop\n    /* \"#utility.yul\":1833:1835   */\n  0x40\n    /* \"#utility.yul\":1859:1923   */\n  tag_66\n    /* \"#utility.yul\":1915:1922   */\n  dup7\n    /* \"#utility.yul\":1906:1912   */\n  dup3\n    /* \"#utility.yul\":1895:1904   */\n  dup8\n    /* \"#utility.yul\":1891:1913   */\n  add\n    /* \"#utility.yul\":1859:1923   */\n  tag_38\n  jump\t// in\ntag_66:\n    /* \"#utility.yul\":1849:1923   */\n  swap2\n  pop\n    /* \"#utility.yul\":1804:1933   */\n  pop\n    /* \"#utility.yul\":1245:1940   */\n  swap3\n  pop\n  swap3\n  pop\n  swap3\n  jump\t// out\n    /* \"#utility.yul\":1946:2115   */\ntag_39:\n    /* \"#utility.yul\":2030:2041   */\n  0x00\n    /* \"#utility.yul\":2064:2070   */\n  dup3\n    /* \"#utility.yul\":2059:2062   */\n  dup3\n    /* \"#utility.yul\":2052:2071   */\n  mstore\n    /* \"#utility.yul\":2104:2108   */\n  0x20\n    /* \"#utility.yul\":2099:2102   */\n  dup3\n    /* \"#utility.yul\":2095:2109   */\n  add\n    /* \"#utility.yul\":2080:2109   */\n  swap1\n  pop\n    /* \"#utility.yul\":1946:2115   */\n  swap3\n  swap2\n  pop\n  pop\n  jump\t// out\n    /* \"#utility.yul\":2121:2292   */\ntag_40:\n    /* \"#utility.yul\":2261:2284   */\n  0x457363726f77206d7573742062652066756e6465640000000000000000000000\n    /* \"#utility.yul\":2257:2258   */\n  0x00\n    /* \"#utility.yul\":2249:2255   */\n  dup3\n    /* \"#utility.yul\":2245:2259   */\n  add\n    /* \"#utility.yul\":2238:2285   */\n  mstore\n    /* \"#utility.yul\":2121:2292   */\n  pop\n  jump\t// out\n    /* \"#utility.yul\":2298:2664   */\ntag_41:\n    /* \"#utility.yul\":2440:2443   */\n  0x00\n    /* \"#utility.yul\":2461:2528   */\n  tag_70\n    /* \"#utility.yul\":2525:2527   */\n  0x15\n    /* \"#utility.yul\":2520:2523   */\n  dup4\n    /* \"#utility.yul\":2461:2528   */\n  tag_39\n  jump\t// in\ntag_70:\n    /* \"#utility.yul\":2454:2528   */\n  swap2\n  pop\n    /* \"#utility.yul\":2537:2630   */\n  tag_71\n    /* \"#utility.yul\":2626:2629   */\n  dup3\n    /* \"#utility.yul\":2537:2630   */\n  tag_40\n  jump\t// in\ntag_71:\n    /* \"#utility.yul\":2655:2657   */\n  0x20\n    /* \"#utility.yul\":2650:2653   */\n  dup3\n    /* \"#utility.yul\":2646:2658   */\n  add\n    /* \"#utility.yul\":2639:2658   */\n  swap1\n  pop\n    /* \"#utility.yul\":2298:2664   */\n  swap2\n  swap1\n  pop\n  jump\t// out\n    /* \"#utility.yul\":2670:3089   */\ntag_9:\n    /* \"#utility.yul\":2836:2840   */\n  0x00\n    /* \"#utility.yul\":2874:2876   */\n  0x20\n    /* \"#utility.yul\":2863:2872   */\n  dup3\n    /* \"#utility.yul\":2859:2877   */\n  add\n    /* \"#utility.yul\":2851:2877   */\n  swap1\n  pop\n    /* \"#utility.yul\":2923:2932   */\n  dup2\n    /* \"#utility.yul\":2917:2921   */\n  dup2\n    /* \"#utility.yul\":2913:2933   */\n  sub\n    /* \"#utility.yul\":2909:2910   */\n  0x00\n    /* \"#utility.yul\":2898:2907   */\n  dup4\n    /* \"#utility.yul\":2894:2911   */\n  add\n    /* \"#utility.yul\":2887:2934   */\n  mstore\n    /* \"#utility.yul\":2951:3082   */\n  tag_73\n    /* \"#utility.yul\":3077:3081   */\n  dup2\n    /* \"#utility.yul\":2951:3082   */\n  tag_41\n  jump\t// in\ntag_73:\n    /* \"#utility.yul\":2943:3082   */\n  swap1\n  pop\n    /* \"#utility.yul\":2670:3089   */\n  swap2\n  swap1\n  pop\n  jump\t// out\n    /* \"#utility.yul\":3095:3275   */\ntag_42:\n    /* \"#utility.yul\":3143:3220   */\n  0x4e487b7100000000000000000000000000000000000000000000000000000000\n    /* \"#utility.yul\":3140:3141   */\n  0x00\n    /* \"#utility.yul\":3133:3221   */\n  mstore\n    /* \"#utility.yul\":3240:3244   */\n  0x11\n    /* \"#utility.yul\":3237:3238   */\n  0x04\n    /* \"#utility.yul\":3230:3245   */\n  mstore\n    /* \"#utility.yul\":3264:3268   */\n  0x24\n    /* \"#utility.yul\":3261:3262   */\n  0x00\n    /* \"#utility.yul\":3254:3269   */\n  revert\n    /* \"#utility.yul\":3281:3472   */\ntag_15:\n    /* \"#utility.yul\":3321:3324   */\n  0x00\n    /* \"#utility.yul\":3340:3360   */\n  tag_76\n    /* \"#utility.yul\":3358:3359   */\n  dup3\n    /* \"#utility.yul\":3340:3360   */\n  tag_36\n  jump\t// in\ntag_76:\n    /* \"#utility.yul\":3335:3360   */\n  swap2\n  pop\n    /* \"#utility.yul\":3374:3394   */\n  tag_77\n    /* \"#utility.yul\":3392:3393   */\n  dup4\n    /* \"#utility.yul\":3374:3394   */\n  tag_36\n  jump\t// in\ntag_77:\n    /* \"#utility.yul\":3369:3394   */\n  swap3\n  pop\n    /* \"#utility.yul\":3417:3418   */\n  dup3\n    /* \"#utility.yul\":3414:3415   */\n  dup3\n    /* \"#utility.yul\":3410:3419   */\n  add\n    /* \"#utility.yul\":3403:3419   */\n  swap1\n  pop\n    /* \"#utility.yul\":3438:3441   */\n  dup1\n    /* \"#utility.yul\":3435:3436   */\n  dup3\n    /* \"#utility.yul\":3432:3442   */\n  gt\n    /* \"#utility.yul\":3429:3465   */\n  iszero\n  tag_78\n  jumpi\n    /* \"#utility.yul\":3445:3463   */\n  tag_79\n  tag_42\n  jump\t// in\ntag_79:\n    /* \"#utility.yul\":3429:3465   */\ntag_78:\n    /* \"#utility.yul\":3281:3472   */\n  swap3\n  swap2\n  pop\n  pop\n  jump\t// out\n    /* \"#utility.yul\":3478:3658   */\ntag_18:\n    /* \"#utility.yul\":3526:3603   */\n  0x4e487b7100000000000000000000000000000000000000000000000000000000\n    /* \"#utility.yul\":3523:3524   */\n  0x00\n    /* \"#utility.yul\":3516:3604   */\n  mstore\n    /* \"#utility.yul\":3623:3627   */\n  0x21\n    /* \"#utility.yul\":3620:3621   */\n  0x04\n    /* \"#utility.yul\":3613:3628   */\n  mstore\n    /* \"#utility.yul\":3647:3651   */\n  0x24\n    /* \"#utility.yul\":3644:3645   */\n  0x00\n    /* \"#utility.yul\":3637:3652   */\n  revert\n    /* \"contract/SafeServiceEscrow.sol\":187:2797  contract SafeServiceEscrow is AccessControl, ReentrancyGuard {... */\ntag_19:\n  dataSize(sub_0)\n  dup1\n  dataOffset(sub_0)\n  0x00\n  codecopy\n  0x00\n  return\nstop\n\nsub_0: assembly {\n        /* \"contract/SafeServiceEscrow.sol\":187:2797  contract SafeServiceEscrow is AccessControl, ReentrancyGuard {... */\n      mstore(0x40, 0x80)\n      callvalue\n      dup1\n      iszero\n      tag_1\n      jumpi\n      0x00\n      dup1\n      revert\n    tag_1:\n      pop\n      jumpi(tag_2, lt(calldatasize, 0x04))\n      shr(0xe0, calldataload(0x00))\n      dup1\n      0x4e69d560\n      gt\n      tag_21\n      jumpi\n      dup1\n      0xa217fddf\n      gt\n      tag_22\n      jumpi\n      dup1\n      0xa217fddf\n      eq\n      tag_16\n      jumpi\n      dup1\n      0xaa8c217c\n      eq\n      tag_17\n      jumpi\n      dup1\n      0xd547741f\n      eq\n      tag_18\n      jumpi\n      dup1\n      0xeae6f652\n      eq\n      tag_19\n      jumpi\n      dup1\n      0xf5ff5c76\n      eq\n      tag_20\n      jumpi\n      jump(tag_2)\n    tag_22:\n      dup1\n      0x4e69d560\n      eq\n      tag_12\n      jumpi\n      dup1\n      0x6daa2d44\n      eq\n      tag_13\n      jumpi\n      dup1\n      0x91d14854\n      eq\n      tag_14\n      jumpi\n      dup1\n      0xa06aa1ab\n      eq\n      tag_15\n      jumpi\n      jump(tag_2)\n    tag_21:\n      dup1\n      0x22459e18\n      gt\n      tag_23\n      jumpi\n      dup1\n      0x22459e18\n      eq\n      tag_7\n      jumpi\n      dup1\n      0x248a9ca3\n      eq\n      tag_8\n      jumpi\n      dup1\n      0x29dcb0cf\n      eq\n      tag_9\n      jumpi\n      dup1\n      0x2f2ff15d\n      eq\n      tag_10\n      jumpi\n      dup1\n      0x36568abe\n      eq\n      tag_11\n      jumpi\n      jump(tag_2)\n    tag_23:\n      dup1\n      0x01ffc9a7\n      eq\n      tag_3\n      jumpi\n      dup1\n      0x109e94cf\n      eq\n      tag_4\n      jumpi\n      dup1\n      0x2009dc65\n      eq\n      tag_5\n      jumpi\n      dup1\n      0x200d2ed2\n      eq\n      tag_6\n      jumpi\n    tag_2:\n      0x00\n      dup1\n      revert\n        /* \"@openzeppelin/contracts/access/AccessControl.sol\":2565:2767  function supportsInterface(bytes4 interfaceId) public view virtual override returns (bool) {... */\n    tag_3:\n      tag_24\n      0x04\n      dup1\n      calldatasize\n      sub\n      dup2\n      add\n      swap1\n      tag_25\n      swap2\n      swap1\n      tag_26\n      jump\t// in\n    tag_25:\n      tag_27\n      jump\t// in\n    tag_24:\n      mload(0x40)\n      tag_28\n      swap2\n      swap1\n      tag_29\n      jump\t// in\n    tag_28:\n      mload(0x40)\n      dup1\n      swap2\n      sub\n      swap1\n      return\n        /* \"contract/SafeServiceEscrow.sol\":489:518  address payable public client */\n    tag_4:\n      tag_30\n      tag_31\n      jump\t// in\n    tag_30:\n      mload(0x40)\n      tag_32\n      swap2\n      swap1\n      tag_33\n      jump\t// in\n    tag_32:\n      mload(0x40)\n      dup1\n      swap2\n      sub\n      swap1\n      return\n        /* \"contract/SafeServiceEscrow.sol\":1876:2257  function cancelAndRefund() external onlyClient nonReentrant {... */\n    tag_5:\n      tag_34\n      tag_35\n      jump\t// in\n    tag_34:\n      stop\n        /* \"contract/SafeServiceEscrow.sol\":583:603  Status public status */\n    tag_6:\n      tag_36\n      tag_37\n      jump\t// in\n    tag_36:\n      mload(0x40)\n      tag_38\n      swap2\n      swap1\n      tag_39\n      jump\t// in\n    tag_38:\n      mload(0x40)\n      dup1\n      swap2\n      sub\n      swap1\n      return\n        /* \"contract/SafeServiceEscrow.sol\":324:384  bytes32 public constant AGENT_ROLE = keccak256(\"AGENT_ROLE\") */\n    tag_7:\n      tag_40\n      tag_41\n      jump\t// in\n    tag_40:\n      mload(0x40)\n      tag_42\n      swap2\n      swap1\n      tag_43\n      jump\t// in\n    tag_42:\n      mload(0x40)\n      dup1\n      swap2\n      sub\n      swap1\n      return\n        /* \"@openzeppelin/contracts/access/AccessControl.sol\":3810:3930  function getRoleAdmin(bytes32 role) public view virtual returns (bytes32) {... */\n    tag_8:\n      tag_44\n      0x04\n      dup1\n      calldatasize\n      sub\n      dup2\n      add\n      swap1\n      tag_45\n      swap2\n      swap1\n      tag_46\n      jump\t// in\n    tag_45:\n      tag_47\n      jump\t// in\n    tag_44:\n      mload(0x40)\n      tag_48\n      swap2\n      swap1\n      tag_43\n      jump\t// in\n    tag_48:\n      mload(0x40)\n      dup1\n      swap2\n      sub\n      swap1\n      return\n        /* \"contract/SafeServiceEscrow.sol\":525:548  uint256 public deadline */\n    tag_9:\n      tag_49\n      tag_50\n      jump\t// in\n    tag_49:\n      mload(0x40)\n      tag_51\n      swap2\n      swap1\n      tag_52\n      jump\t// in\n    tag_51:\n      mload(0x40)\n      dup1\n      swap2\n      sub\n      swap1\n      return\n        /* \"@openzeppelin/contracts/access/AccessControl.sol\":4226:4362  function grantRole(bytes32 role, address account) public virtual onlyRole(getRoleAdmin(role)) {... */\n    tag_10:\n      tag_53\n      0x04\n      dup1\n      calldatasize\n      sub\n      dup2\n      add\n      swap1\n      tag_54\n      swap2\n      swap1\n      tag_55\n      jump\t// in\n    tag_54:\n      tag_56\n      jump\t// in\n    tag_53:\n      stop\n        /* \"@openzeppelin/contracts/access/AccessControl.sol\":5328:5573  function renounceRole(bytes32 role, address callerConfirmation) public virtual {... */\n    tag_11:\n      tag_57\n      0x04\n      dup1\n      calldatasize\n      sub\n      dup2\n      add\n      swap1\n      tag_58\n      swap2\n      swap1\n      tag_55\n      jump\t// in\n    tag_58:\n      tag_59\n      jump\t// in\n    tag_57:\n      stop\n        /* \"contract/SafeServiceEscrow.sol\":2466:2794  function getStatus() external view returns (string memory) {... */\n    tag_12:\n      tag_60\n      tag_61\n      jump\t// in\n    tag_60:\n      mload(0x40)\n      tag_62\n      swap2\n      swap1\n      tag_63\n      jump\t// in\n    tag_62:\n      mload(0x40)\n      dup1\n      swap2\n      sub\n      swap1\n      return\n        /* \"contract/SafeServiceEscrow.sol\":2265:2458  function raiseDispute() external onlyClient {... */\n    tag_13:\n      tag_64\n      tag_65\n      jump\t// in\n    tag_64:\n      stop\n        /* \"@openzeppelin/contracts/access/AccessControl.sol\":2854:2990  function hasRole(bytes32 role, address account) public view virtual returns (bool) {... */\n    tag_14:\n      tag_66\n      0x04\n      dup1\n      calldatasize\n      sub\n      dup2\n      add\n      swap1\n      tag_67\n      swap2\n      swap1\n      tag_55\n      jump\t// in\n    tag_67:\n      tag_68\n      jump\t// in\n    tag_66:\n      mload(0x40)\n      tag_69\n      swap2\n      swap1\n      tag_29\n      jump\t// in\n    tag_69:\n      mload(0x40)\n      dup1\n      swap2\n      sub\n      swap1\n      return\n        /* \"contract/SafeServiceEscrow.sol\":1477:1868  function confirmCompletion() external onlyClient nonReentrant {... */\n    tag_15:\n      tag_70\n      tag_71\n      jump\t// in\n    tag_70:\n      stop\n        /* \"@openzeppelin/contracts/access/AccessControl.sol\":2187:2236  bytes32 public constant DEFAULT_ADMIN_ROLE = 0x00 */\n    tag_16:\n      tag_72\n      tag_73\n      jump\t// in\n    tag_72:\n      mload(0x40)\n      tag_74\n      swap2\n      swap1\n      tag_43\n      jump\t// in\n    tag_74:\n      mload(0x40)\n      dup1\n      swap2\n      sub\n      swap1\n      return\n        /* \"contract/SafeServiceEscrow.sol\":555:576  uint256 public amount */\n    tag_17:\n      tag_75\n      tag_76\n      jump\t// in\n    tag_75:\n      mload(0x40)\n      tag_77\n      swap2\n      swap1\n      tag_52\n      jump\t// in\n    tag_77:\n      mload(0x40)\n      dup1\n      swap2\n      sub\n      swap1\n      return\n        /* \"@openzeppelin/contracts/access/AccessControl.sol\":4642:4780  function revokeRole(bytes32 role, address account) public virtual onlyRole(getRoleAdmin(role)) {... */\n    tag_18:\n      tag_78\n      0x04\n      dup1\n      calldatasize\n      sub\n      dup2\n      add\n      swap1\n      tag_79\n      swap2\n      swap1\n      tag_55\n      jump\t// in\n    tag_79:\n      tag_80\n      jump\t// in\n    tag_78:\n      stop\n        /* \"contract/SafeServiceEscrow.sol\":255:317  bytes32 public constant CLIENT_ROLE = keccak256(\"CLIENT_ROLE\") */\n    tag_19:\n      tag_81\n      tag_82\n      jump\t// in\n    tag_81:\n      mload(0x40)\n      tag_83\n      swap2\n      swap1\n      tag_43\n      jump\t// in\n    tag_83:\n      mload(0x40)\n      dup1\n      swap2\n      sub\n      swap1\n      return\n        /* \"contract/SafeServiceEscrow.sol\":454:482  address payable public agent */\n    tag_20:\n      tag_84\n      tag_85\n      jump\t// in\n    tag_84:\n      mload(0x40)\n      tag_86\n      swap2\n      swap1\n      tag_33\n      jump\t// in\n    tag_86:\n      mload(0x40)\n      dup1\n      swap2\n      sub\n      swap1\n      return\n        /* \"@openzeppelin/contracts/access/AccessControl.sol\":2565:2767  function supportsInterface(bytes4 interfaceId) public view virtual override returns (bool) {... */\n    tag_27:\n        /* \"@openzeppelin/contracts/access/AccessControl.sol\":2650:2654  bool */\n      0x00\n        /* \"@openzeppelin/contracts/access/AccessControl.sol\":2688:2720  type(IAccessControl).interfaceId */\n      0x7965db0b00000000000000000000000000000000000000000000000000000000\n        /* \"@openzeppelin/contracts/access/AccessControl.sol\":2673:2720  interfaceId == type(IAccessControl).interfaceId */\n      not(0xffffffffffffffffffffffffffffffffffffffffffffffffffffffff)\n      and\n        /* \"@openzeppelin/contracts/access/AccessControl.sol\":2673:2684  interfaceId */\n      dup3\n        /* \"@openzeppelin/contracts/access/AccessControl.sol\":2673:2720  interfaceId == type(IAccessControl).interfaceId */\n      not(0xffffffffffffffffffffffffffffffffffffffffffffffffffffffff)\n      and\n      eq\n        /* \"@openzeppelin/contracts/access/AccessControl.sol\":2673:2760  interfaceId == type(IAccessControl).interfaceId || super.supportsInterface(interfaceId) */\n      dup1\n      tag_88\n      jumpi\n      pop\n        /* \"@openzeppelin/contracts/access/AccessControl.sol\":2724:2760  super.supportsInterface(interfaceId) */\n      tag_89\n        /* \"@openzeppelin/contracts/access/AccessControl.sol\":2748:2759  interfaceId */\n      dup3\n        /* \"@openzeppelin/contracts/access/AccessControl.sol\":2724:2747  super.supportsInterface */\n      tag_90\n        /* \"@openzeppelin/contracts/access/AccessControl.sol\":2724:2760  super.supportsInterface(interfaceId) */\n      jump\t// in\n    tag_89:\n        /* \"@openzeppelin/contracts/access/AccessControl.sol\":2673:2760  interfaceId == type(IAccessControl).interfaceId || super.supportsInterface(interfaceId) */\n    tag_88:\n        /* \"@openzeppelin/contracts/access/AccessControl.sol\":2666:2760  return interfaceId == type(IAccessControl).interfaceId || super.supportsInterface(interfaceId) */\n      swap1\n      pop\n        /* \"@openzeppelin/contracts/access/AccessControl.sol\":2565:2767  function supportsInterface(bytes4 interfaceId) public view virtual override returns (bool) {... */\n      swap2\n      swap1\n      pop\n      jump\t// out\n        /* \"contract/SafeServiceEscrow.sol\":489:518  address payable public client */\n    tag_31:\n      0x03\n      0x00\n      swap1\n      sload\n      swap1\n      0x0100\n      exp\n      swap1\n      div\n      0xffffffffffffffffffffffffffffffffffffffff\n      and\n      dup2\n      jump\t// out\n        /* \"contract/SafeServiceEscrow.sol\":1876:2257  function cancelAndRefund() external onlyClient nonReentrant {... */\n    tag_35:\n        /* \"contract/SafeServiceEscrow.sol\":823:855  hasRole(CLIENT_ROLE, msg.sender) */\n      tag_92\n        /* \"contract/SafeServiceEscrow.sol\":293:317  keccak256(\"CLIENT_ROLE\") */\n      0xa5ff3ec7a96cdbba4d2d5172d66bbc73c6db3885f29b21be5da9fa7a7c025232\n        /* \"contract/SafeServiceEscrow.sol\":844:854  msg.sender */\n      caller\n        /* \"contract/SafeServiceEscrow.sol\":823:830  hasRole */\n      tag_68\n        /* \"contract/SafeServiceEscrow.sol\":823:855  hasRole(CLIENT_ROLE, msg.sender) */\n      jump\t// in\n    tag_92:\n        /* \"contract/SafeServiceEscrow.sol\":815:870  require(hasRole(CLIENT_ROLE, msg.sender), \"Not client\") */\n      tag_93\n      jumpi\n      mload(0x40)\n      0x08c379a000000000000000000000000000000000000000000000000000000000\n      dup2\n      mstore\n      0x04\n      add\n      tag_94\n      swap1\n      tag_95\n      jump\t// in\n    tag_94:\n      mload(0x40)\n      dup1\n      swap2\n      sub\n      swap1\n      revert\n    tag_93:\n        /* \"@openzeppelin/contracts/security/ReentrancyGuard.sol\":2261:2282  _nonReentrantBefore() */\n      tag_97\n        /* \"@openzeppelin/contracts/security/ReentrancyGuard.sol\":2261:2280  _nonReentrantBefore */\n      tag_98\n        /* \"@openzeppelin/contracts/security/ReentrancyGuard.sol\":2261:2282  _nonReentrantBefore() */\n      jump\t// in\n    tag_97:\n        /* \"contract/SafeServiceEscrow.sol\":1965:1978  Status.Active */\n      0x00\n        /* \"contract/SafeServiceEscrow.sol\":1955:1978  status == Status.Active */\n      0x03\n      dup2\n      gt\n      iszero\n      tag_100\n      jumpi\n      tag_101\n      tag_102\n      jump\t// in\n    tag_101:\n    tag_100:\n        /* \"contract/SafeServiceEscrow.sol\":1955:1961  status */\n      0x06\n      0x00\n      swap1\n      sload\n      swap1\n      0x0100\n      exp\n      swap1\n      div\n      0xff\n      and\n        /* \"contract/SafeServiceEscrow.sol\":1955:1978  status == Status.Active */\n      0x03\n      dup2\n      gt\n      iszero\n      tag_103\n      jumpi\n      tag_104\n      tag_102\n      jump\t// in\n    tag_104:\n    tag_103:\n      eq\n        /* \"contract/SafeServiceEscrow.sol\":1947:1997  require(status == Status.Active, \"Invalid status\") */\n      tag_105\n      jumpi\n      mload(0x40)\n      0x08c379a000000000000000000000000000000000000000000000000000000000\n      dup2\n      mstore\n      0x04\n      add\n      tag_106\n      swap1\n      tag_107\n      jump\t// in\n    tag_106:\n      mload(0x40)\n      dup1\n      swap2\n      sub\n      swap1\n      revert\n    tag_105:\n        /* \"contract/SafeServiceEscrow.sol\":2034:2042  deadline */\n      sload(0x04)\n        /* \"contract/SafeServiceEscrow.sol\":2016:2031  block.timestamp */\n      timestamp\n        /* \"contract/SafeServiceEscrow.sol\":2016:2042  block.timestamp > deadline */\n      gt\n        /* \"contract/SafeServiceEscrow.sol\":2008:2066  require(block.timestamp > deadline, \"Deadline not passed\") */\n      tag_108\n      jumpi\n      mload(0x40)\n      0x08c379a000000000000000000000000000000000000000000000000000000000\n      dup2\n      mstore\n      0x04\n      add\n      tag_109\n      swap1\n      tag_110\n      jump\t// in\n    tag_109:\n      mload(0x40)\n      dup1\n      swap2\n      sub\n      swap1\n      revert\n    tag_108:\n        /* \"contract/SafeServiceEscrow.sol\":2088:2103  Status.Refunded */\n      0x02\n        /* \"contract/SafeServiceEscrow.sol\":2079:2085  status */\n      0x06\n      0x00\n        /* \"contract/SafeServiceEscrow.sol\":2079:2103  status = Status.Refunded */\n      0x0100\n      exp\n      dup2\n      sload\n      dup2\n      0xff\n      mul\n      not\n      and\n      swap1\n      dup4\n      0x03\n      dup2\n      gt\n      iszero\n      tag_111\n      jumpi\n      tag_112\n      tag_102\n      jump\t// in\n    tag_112:\n    tag_111:\n      mul\n      or\n      swap1\n      sstore\n      pop\n        /* \"contract/SafeServiceEscrow.sol\":2115:2127  bool success */\n      0x00\n        /* \"contract/SafeServiceEscrow.sol\":2133:2139  client */\n      0x03\n      0x00\n      swap1\n      sload\n      swap1\n      0x0100\n      exp\n      swap1\n      div\n      0xffffffffffffffffffffffffffffffffffffffff\n      and\n        /* \"contract/SafeServiceEscrow.sol\":2133:2144  client.call */\n      0xffffffffffffffffffffffffffffffffffffffff\n      and\n        /* \"contract/SafeServiceEscrow.sol\":2152:2158  amount */\n      sload(0x05)\n        /* \"contract/SafeServiceEscrow.sol\":2133:2163  client.call{value: amount}(\"\") */\n      mload(0x40)\n      tag_113\n      swap1\n      tag_114\n      jump\t// in\n    tag_113:\n      0x00\n      mload(0x40)\n      dup1\n      dup4\n      sub\n      dup2\n      dup6\n      dup8\n      gas\n      call\n      swap3\n      pop\n      pop\n      pop\n      returndatasize\n      dup1\n      0x00\n      dup2\n      eq\n      tag_117\n      jumpi\n      mload(0x40)\n      swap2\n      pop\n      and(add(returndatasize, 0x3f), not(0x1f))\n      dup3\n      add\n      0x40\n      mstore\n      returndatasize\n      dup3\n      mstore\n      returndatasize\n      0x00\n      0x20\n      dup5\n      add\n      returndatacopy\n      jump(tag_116)\n    tag_117:\n      0x60\n      swap2\n      pop\n    tag_116:\n      pop\n        /* \"contract/SafeServiceEscrow.sol\":2114:2163  (bool success, ) = client.call{value: amount}(\"\") */\n      pop\n      swap1\n      pop\n        /* \"contract/SafeServiceEscrow.sol\":2182:2189  success */\n      dup1\n        /* \"contract/SafeServiceEscrow.sol\":2174:2207  require(success, \"Refund failed\") */\n      tag_118\n      jumpi\n      mload(0x40)\n      0x08c379a000000000000000000000000000000000000000000000000000000000\n      dup2\n      mstore\n      0x04\n      add\n      tag_119\n      swap1\n      tag_120\n      jump\t// in\n    tag_119:\n      mload(0x40)\n      dup1\n      swap2\n      sub\n      swap1\n      revert\n    tag_118:\n        /* \"contract/SafeServiceEscrow.sol\":2234:2240  client */\n      0x03\n      0x00\n      swap1\n      sload\n      swap1\n      0x0100\n      exp\n      swap1\n      div\n      0xffffffffffffffffffffffffffffffffffffffff\n      and\n        /* \"contract/SafeServiceEscrow.sol\":2225:2249  Refunded(client, amount) */\n      0xffffffffffffffffffffffffffffffffffffffff\n      and\n      0xd7dee2702d63ad89917b6a4da9981c90c4d24f8c2bdfd64c604ecae57d8d0651\n        /* \"contract/SafeServiceEscrow.sol\":2242:2248  amount */\n      sload(0x05)\n        /* \"contract/SafeServiceEscrow.sol\":2225:2249  Refunded(client, amount) */\n      mload(0x40)\n      tag_121\n      swap2\n      swap1\n      tag_52\n      jump\t// in\n    tag_121:\n      mload(0x40)\n      dup1\n      swap2\n      sub\n      swap1\n      log2\n        /* \"contract/SafeServiceEscrow.sol\":1936:2257  {... */\n      pop\n        /* \"@openzeppelin/contracts/security/ReentrancyGuard.sol\":2303:2323  _nonReentrantAfter() */\n      tag_122\n        /* \"@openzeppelin/contracts/security/ReentrancyGuard.sol\":2303:2321  _nonReentrantAfter */\n      tag_123\n        /* \"@openzeppelin/contracts/security/ReentrancyGuard.sol\":2303:2323  _nonReentrantAfter() */\n      jump\t// in\n    tag_122:\n        /* \"contract/SafeServiceEscrow.sol\":1876:2257  function cancelAndRefund() external onlyClient nonReentrant {... */\n      jump\t// out\n        /* \"contract/SafeServiceEscrow.sol\":583:603  Status public status */\n    tag_37:\n      0x06\n      0x00\n      swap1\n      sload\n      swap1\n      0x0100\n      exp\n      swap1\n      div\n      0xff\n      and\n      dup2\n      jump\t// out\n        /* \"contract/SafeServiceEscrow.sol\":324:384  bytes32 public constant AGENT_ROLE = keccak256(\"AGENT_ROLE\") */\n    tag_41:\n        /* \"contract/SafeServiceEscrow.sol\":361:384  keccak256(\"AGENT_ROLE\") */\n      0xcab5a0bfe0b79d2c4b1c2e02599fa044d115b7511f9659307cb4276950967709\n        /* \"contract/SafeServiceEscrow.sol\":324:384  bytes32 public constant AGENT_ROLE = keccak256(\"AGENT_ROLE\") */\n      dup2\n      jump\t// out\n        /* \"@openzeppelin/contracts/access/AccessControl.sol\":3810:3930  function getRoleAdmin(bytes32 role) public view virtual returns (bytes32) {... */\n    tag_47:\n        /* \"@openzeppelin/contracts/access/AccessControl.sol\":3875:3882  bytes32 */\n      0x00\n        /* \"@openzeppelin/contracts/access/AccessControl.sol\":3901:3907  _roles */\n      dup1\n        /* \"@openzeppelin/contracts/access/AccessControl.sol\":3901:3913  _roles[role] */\n      0x00\n        /* \"@openzeppelin/contracts/access/AccessControl.sol\":3908:3912  role */\n      dup4\n        /* \"@openzeppelin/contracts/access/AccessControl.sol\":3901:3913  _roles[role] */\n      dup2\n      mstore\n      0x20\n      add\n      swap1\n      dup2\n      mstore\n      0x20\n      add\n      0x00\n      keccak256\n        /* \"@openzeppelin/contracts/access/AccessControl.sol\":3901:3923  _roles[role].adminRole */\n      0x01\n      add\n      sload\n        /* \"@openzeppelin/contracts/access/AccessControl.sol\":3894:3923  return _roles[role].adminRole */\n      swap1\n      pop\n        /* \"@openzeppelin/contracts/access/AccessControl.sol\":3810:3930  function getRoleAdmin(bytes32 role) public view virtual returns (bytes32) {... */\n      swap2\n      swap1\n      pop\n      jump\t// out\n        /* \"contract/SafeServiceEscrow.sol\":525:548  uint256 public deadline */\n    tag_50:\n      sload(0x04)\n      dup2\n      jump\t// out\n        /* \"@openzeppelin/contracts/access/AccessControl.sol\":4226:4362  function grantRole(bytes32 role, address account) public virtual onlyRole(getRoleAdmin(role)) {... */\n    tag_56:\n        /* \"@openzeppelin/contracts/access/AccessControl.sol\":4300:4318  getRoleAdmin(role) */\n      tag_125\n        /* \"@openzeppelin/contracts/access/AccessControl.sol\":4313:4317  role */\n      dup3\n        /* \"@openzeppelin/contracts/access/AccessControl.sol\":4300:4312  getRoleAdmin */\n      tag_47\n        /* \"@openzeppelin/contracts/access/AccessControl.sol\":4300:4318  getRoleAdmin(role) */\n      jump\t// in\n    tag_125:\n        /* \"@openzeppelin/contracts/access/AccessControl.sol\":2464:2480  _checkRole(role) */\n      tag_127\n        /* \"@openzeppelin/contracts/access/AccessControl.sol\":2475:2479  role */\n      dup2\n        /* \"@openzeppelin/contracts/access/AccessControl.sol\":2464:2474  _checkRole */\n      tag_128\n        /* \"@openzeppelin/contracts/access/AccessControl.sol\":2464:2480  _checkRole(role) */\n      jump\t// in\n    tag_127:\n        /* \"@openzeppelin/contracts/access/AccessControl.sol\":4330:4355  _grantRole(role, account) */\n      tag_130\n        /* \"@openzeppelin/contracts/access/AccessControl.sol\":4341:4345  role */\n      dup4\n        /* \"@openzeppelin/contracts/access/AccessControl.sol\":4347:4354  account */\n      dup4\n        /* \"@openzeppelin/contracts/access/AccessControl.sol\":4330:4340  _grantRole */\n      tag_131\n        /* \"@openzeppelin/contracts/access/AccessControl.sol\":4330:4355  _grantRole(role, account) */\n      jump\t// in\n    tag_130:\n      pop\n        /* \"@openzeppelin/contracts/access/AccessControl.sol\":4226:4362  function grantRole(bytes32 role, address account) public virtual onlyRole(getRoleAdmin(role)) {... */\n      pop\n      pop\n      pop\n      jump\t// out\n        /* \"@openzeppelin/contracts/access/AccessControl.sol\":5328:5573  function renounceRole(bytes32 role, address callerConfirmation) public virtual {... */\n    tag_59:\n        /* \"@openzeppelin/contracts/access/AccessControl.sol\":5443:5455  _msgSender() */\n      tag_133\n        /* \"@openzeppelin/contracts/access/AccessControl.sol\":5443:5453  _msgSender */\n      tag_134\n        /* \"@openzeppelin/contracts/access/AccessControl.sol\":5443:5455  _msgSender() */\n      jump\t// in\n    tag_133:\n        /* \"@openzeppelin/contracts/access/AccessControl.sol\":5421:5455  callerConfirmation != _msgSender() */\n      0xffffffffffffffffffffffffffffffffffffffff\n      and\n        /* \"@openzeppelin/contracts/access/AccessControl.sol\":5421:5439  callerConfirmation */\n      dup2\n        /* \"@openzeppelin/contracts/access/AccessControl.sol\":5421:5455  callerConfirmation != _msgSender() */\n      0xffffffffffffffffffffffffffffffffffffffff\n      and\n      eq\n        /* \"@openzeppelin/contracts/access/AccessControl.sol\":5417:5519  if (callerConfirmation != _msgSender()) {... */\n      tag_135\n      jumpi\n        /* \"@openzeppelin/contracts/access/AccessControl.sol\":5478:5508  AccessControlBadConfirmation() */\n      mload(0x40)\n      0x6697b23200000000000000000000000000000000000000000000000000000000\n      dup2\n      mstore\n      0x04\n      add\n      mload(0x40)\n      dup1\n      swap2\n      sub\n      swap1\n      revert\n        /* \"@openzeppelin/contracts/access/AccessControl.sol\":5417:5519  if (callerConfirmation != _msgSender()) {... */\n    tag_135:\n        /* \"@openzeppelin/contracts/access/AccessControl.sol\":5529:5566  _revokeRole(role, callerConfirmation) */\n      tag_136\n        /* \"@openzeppelin/contracts/access/AccessControl.sol\":5541:5545  role */\n      dup3\n        /* \"@openzeppelin/contracts/access/AccessControl.sol\":5547:5565  callerConfirmation */\n      dup3\n        /* \"@openzeppelin/contracts/access/AccessControl.sol\":5529:5540  _revokeRole */\n      tag_137\n        /* \"@openzeppelin/contracts/access/AccessControl.sol\":5529:5566  _revokeRole(role, callerConfirmation) */\n      jump\t// in\n    tag_136:\n      pop\n        /* \"@openzeppelin/contracts/access/AccessControl.sol\":5328:5573  function renounceRole(bytes32 role, address callerConfirmation) public virtual {... */\n      pop\n      pop\n      jump\t// out\n        /* \"contract/SafeServiceEscrow.sol\":2466:2794  function getStatus() external view returns (string memory) {... */\n    tag_61:\n        /* \"contract/SafeServiceEscrow.sol\":2510:2523  string memory */\n      0x60\n        /* \"contract/SafeServiceEscrow.sol\":2550:2563  Status.Active */\n      0x00\n        /* \"contract/SafeServiceEscrow.sol\":2540:2563  status == Status.Active */\n      0x03\n      dup2\n      gt\n      iszero\n      tag_139\n      jumpi\n      tag_140\n      tag_102\n      jump\t// in\n    tag_140:\n    tag_139:\n        /* \"contract/SafeServiceEscrow.sol\":2540:2546  status */\n      0x06\n      0x00\n      swap1\n      sload\n      swap1\n      0x0100\n      exp\n      swap1\n      div\n      0xff\n      and\n        /* \"contract/SafeServiceEscrow.sol\":2540:2563  status == Status.Active */\n      0x03\n      dup2\n      gt\n      iszero\n      tag_141\n      jumpi\n      tag_142\n      tag_102\n      jump\t// in\n    tag_142:\n    tag_141:\n      sub\n        /* \"contract/SafeServiceEscrow.sol\":2536:2580  if (status == Status.Active) return \"Active\" */\n      tag_143\n      jumpi\n        /* \"contract/SafeServiceEscrow.sol\":2565:2580  return \"Active\" */\n      mload(0x40)\n      dup1\n      0x40\n      add\n      0x40\n      mstore\n      dup1\n      0x06\n      dup2\n      mstore\n      0x20\n      add\n      0x4163746976650000000000000000000000000000000000000000000000000000\n      dup2\n      mstore\n      pop\n      swap1\n      pop\n      jump(tag_138)\n        /* \"contract/SafeServiceEscrow.sol\":2536:2580  if (status == Status.Active) return \"Active\" */\n    tag_143:\n        /* \"contract/SafeServiceEscrow.sol\":2605:2621  Status.Completed */\n      0x01\n        /* \"contract/SafeServiceEscrow.sol\":2595:2621  status == Status.Completed */\n      0x03\n      dup2\n      gt\n      iszero\n      tag_144\n      jumpi\n      tag_145\n      tag_102\n      jump\t// in\n    tag_145:\n    tag_144:\n        /* \"contract/SafeServiceEscrow.sol\":2595:2601  status */\n      0x06\n      0x00\n      swap1\n      sload\n      swap1\n      0x0100\n      exp\n      swap1\n      div\n      0xff\n      and\n        /* \"contract/SafeServiceEscrow.sol\":2595:2621  status == Status.Completed */\n      0x03\n      dup2\n      gt\n      iszero\n      tag_146\n      jumpi\n      tag_147\n      tag_102\n      jump\t// in\n    tag_147:\n    tag_146:\n      sub\n        /* \"contract/SafeServiceEscrow.sol\":2591:2641  if (status == Status.Completed) return \"Completed\" */\n      tag_148\n      jumpi\n        /* \"contract/SafeServiceEscrow.sol\":2623:2641  return \"Completed\" */\n      mload(0x40)\n      dup1\n      0x40\n      add\n      0x40\n      mstore\n      dup1\n      0x09\n      dup2\n      mstore\n      0x20\n      add\n      0x436f6d706c657465640000000000000000000000000000000000000000000000\n      dup2\n      mstore\n      pop\n      swap1\n      pop\n      jump(tag_138)\n        /* \"contract/SafeServiceEscrow.sol\":2591:2641  if (status == Status.Completed) return \"Completed\" */\n    tag_148:\n        /* \"contract/SafeServiceEscrow.sol\":2666:2681  Status.Refunded */\n      0x02\n        /* \"contract/SafeServiceEscrow.sol\":2656:2681  status == Status.Refunded */\n      0x03\n      dup2\n      gt\n      iszero\n      tag_149\n      jumpi\n      tag_150\n      tag_102\n      jump\t// in\n    tag_150:\n    tag_149:\n        /* \"contract/SafeServiceEscrow.sol\":2656:2662  status */\n      0x06\n      0x00\n      swap1\n      sload\n      swap1\n      0x0100\n      exp\n      swap1\n      div\n      0xff\n      and\n        /* \"contract/SafeServiceEscrow.sol\":2656:2681  status == Status.Refunded */\n      0x03\n      dup2\n      gt\n      iszero\n      tag_151\n      jumpi\n      tag_152\n      tag_102\n      jump\t// in\n    tag_152:\n    tag_151:\n      sub\n        /* \"contract/SafeServiceEscrow.sol\":2652:2700  if (status == Status.Refunded) return \"Refunded\" */\n      tag_153\n      jumpi\n        /* \"contract/SafeServiceEscrow.sol\":2683:2700  return \"Refunded\" */\n      mload(0x40)\n      dup1\n      0x40\n      add\n      0x40\n      mstore\n      dup1\n      0x08\n      dup2\n      mstore\n      0x20\n      add\n      0x526566756e646564000000000000000000000000000000000000000000000000\n      dup2\n      mstore\n      pop\n      swap1\n      pop\n      jump(tag_138)\n        /* \"contract/SafeServiceEscrow.sol\":2652:2700  if (status == Status.Refunded) return \"Refunded\" */\n    tag_153:\n        /* \"contract/SafeServiceEscrow.sol\":2725:2740  Status.Disputed */\n      0x03\n        /* \"contract/SafeServiceEscrow.sol\":2715:2740  status == Status.Disputed */\n      dup1\n      dup2\n      gt\n      iszero\n      tag_154\n      jumpi\n      tag_155\n      tag_102\n      jump\t// in\n    tag_155:\n    tag_154:\n        /* \"contract/SafeServiceEscrow.sol\":2715:2721  status */\n      0x06\n      0x00\n      swap1\n      sload\n      swap1\n      0x0100\n      exp\n      swap1\n      div\n      0xff\n      and\n        /* \"contract/SafeServiceEscrow.sol\":2715:2740  status == Status.Disputed */\n      0x03\n      dup2\n      gt\n      iszero\n      tag_156\n      jumpi\n      tag_157\n      tag_102\n      jump\t// in\n    tag_157:\n    tag_156:\n      sub\n        /* \"contract/SafeServiceEscrow.sol\":2711:2759  if (status == Status.Disputed) return \"Disputed\" */\n      tag_158\n      jumpi\n        /* \"contract/SafeServiceEscrow.sol\":2742:2759  return \"Disputed\" */\n      mload(0x40)\n      dup1\n      0x40\n      add\n      0x40\n      mstore\n      dup1\n      0x08\n      dup2\n      mstore\n      0x20\n      add\n      0x4469737075746564000000000000000000000000000000000000000000000000\n      dup2\n      mstore\n      pop\n      swap1\n      pop\n      jump(tag_138)\n        /* \"contract/SafeServiceEscrow.sol\":2711:2759  if (status == Status.Disputed) return \"Disputed\" */\n    tag_158:\n        /* \"contract/SafeServiceEscrow.sol\":2770:2786  return \"Unknown\" */\n      mload(0x40)\n      dup1\n      0x40\n      add\n      0x40\n      mstore\n      dup1\n      0x07\n      dup2\n      mstore\n      0x20\n      add\n      0x556e6b6e6f776e00000000000000000000000000000000000000000000000000\n      dup2\n      mstore\n      pop\n      swap1\n      pop\n        /* \"contract/SafeServiceEscrow.sol\":2466:2794  function getStatus() external view returns (string memory) {... */\n    tag_138:\n      swap1\n      jump\t// out\n        /* \"contract/SafeServiceEscrow.sol\":2265:2458  function raiseDispute() external onlyClient {... */\n    tag_65:\n        /* \"contract/SafeServiceEscrow.sol\":823:855  hasRole(CLIENT_ROLE, msg.sender) */\n      tag_160\n        /* \"contract/SafeServiceEscrow.sol\":293:317  keccak256(\"CLIENT_ROLE\") */\n      0xa5ff3ec7a96cdbba4d2d5172d66bbc73c6db3885f29b21be5da9fa7a7c025232\n        /* \"contract/SafeServiceEscrow.sol\":844:854  msg.sender */\n      caller\n        /* \"contract/SafeServiceEscrow.sol\":823:830  hasRole */\n      tag_68\n        /* \"contract/SafeServiceEscrow.sol\":823:855  hasRole(CLIENT_ROLE, msg.sender) */\n      jump\t// in\n    tag_160:\n        /* \"contract/SafeServiceEscrow.sol\":815:870  require(hasRole(CLIENT_ROLE, msg.sender), \"Not client\") */\n      tag_161\n      jumpi\n      mload(0x40)\n      0x08c379a000000000000000000000000000000000000000000000000000000000\n      dup2\n      mstore\n      0x04\n      add\n      tag_162\n      swap1\n      tag_95\n      jump\t// in\n    tag_162:\n      mload(0x40)\n      dup1\n      swap2\n      sub\n      swap1\n      revert\n    tag_161:\n        /* \"contract/SafeServiceEscrow.sol\":2338:2351  Status.Active */\n      0x00\n        /* \"contract/SafeServiceEscrow.sol\":2328:2351  status == Status.Active */\n      0x03\n      dup2\n      gt\n      iszero\n      tag_164\n      jumpi\n      tag_165\n      tag_102\n      jump\t// in\n    tag_165:\n    tag_164:\n        /* \"contract/SafeServiceEscrow.sol\":2328:2334  status */\n      0x06\n      0x00\n      swap1\n      sload\n      swap1\n      0x0100\n      exp\n      swap1\n      div\n      0xff\n      and\n        /* \"contract/SafeServiceEscrow.sol\":2328:2351  status == Status.Active */\n      0x03\n      dup2\n      gt\n      iszero\n      tag_166\n      jumpi\n      tag_167\n      tag_102\n      jump\t// in\n    tag_167:\n    tag_166:\n      eq\n        /* \"contract/SafeServiceEscrow.sol\":2320:2374  require(status == Status.Active, \"Cannot dispute now\") */\n      tag_168\n      jumpi\n      mload(0x40)\n      0x08c379a000000000000000000000000000000000000000000000000000000000\n      dup2\n      mstore\n      0x04\n      add\n      tag_169\n      swap1\n      tag_170\n      jump\t// in\n    tag_169:\n      mload(0x40)\n      dup1\n      swap2\n      sub\n      swap1\n      revert\n    tag_168:\n        /* \"contract/SafeServiceEscrow.sol\":2394:2409  Status.Disputed */\n      0x03\n        /* \"contract/SafeServiceEscrow.sol\":2385:2391  status */\n      0x06\n      0x00\n        /* \"contract/SafeServiceEscrow.sol\":2385:2409  status = Status.Disputed */\n      0x0100\n      exp\n      dup2\n      sload\n      dup2\n      0xff\n      mul\n      not\n      and\n      swap1\n      dup4\n      0x03\n      dup2\n      gt\n      iszero\n      tag_171\n      jumpi\n      tag_172\n      tag_102\n      jump\t// in\n    tag_172:\n    tag_171:\n      mul\n      or\n      swap1\n      sstore\n      pop\n        /* \"contract/SafeServiceEscrow.sol\":2439:2449  msg.sender */\n      caller\n        /* \"contract/SafeServiceEscrow.sol\":2425:2450  DisputeRaised(msg.sender) */\n      0xffffffffffffffffffffffffffffffffffffffff\n      and\n      0x0b3cd97b16a08a5c77357c276d248827ad32dfd56060f7c55d6255537ba3d962\n      mload(0x40)\n      mload(0x40)\n      dup1\n      swap2\n      sub\n      swap1\n      log2\n        /* \"contract/SafeServiceEscrow.sol\":2265:2458  function raiseDispute() external onlyClient {... */\n      jump\t// out\n        /* \"@openzeppelin/contracts/access/AccessControl.sol\":2854:2990  function hasRole(bytes32 role, address account) public view virtual returns (bool) {... */\n    tag_68:\n        /* \"@openzeppelin/contracts/access/AccessControl.sol\":2931:2935  bool */\n      0x00\n        /* \"@openzeppelin/contracts/access/AccessControl.sol\":2954:2960  _roles */\n      dup1\n        /* \"@openzeppelin/contracts/access/AccessControl.sol\":2954:2966  _roles[role] */\n      0x00\n        /* \"@openzeppelin/contracts/access/AccessControl.sol\":2961:2965  role */\n      dup5\n        /* \"@openzeppelin/contracts/access/AccessControl.sol\":2954:2966  _roles[role] */\n      dup2\n      mstore\n      0x20\n      add\n      swap1\n      dup2\n      mstore\n      0x20\n      add\n      0x00\n      keccak256\n        /* \"@openzeppelin/contracts/access/AccessControl.sol\":2954:2974  _roles[role].hasRole */\n      0x00\n      add\n        /* \"@openzeppelin/contracts/access/AccessControl.sol\":2954:2983  _roles[role].hasRole[account] */\n      0x00\n        /* \"@openzeppelin/contracts/access/AccessControl.sol\":2975:2982  account */\n      dup4\n        /* \"@openzeppelin/contracts/access/AccessControl.sol\":2954:2983  _roles[role].hasRole[account] */\n      0xffffffffffffffffffffffffffffffffffffffff\n      and\n      0xffffffffffffffffffffffffffffffffffffffff\n      and\n      dup2\n      mstore\n      0x20\n      add\n      swap1\n      dup2\n      mstore\n      0x20\n      add\n      0x00\n      keccak256\n      0x00\n      swap1\n      sload\n      swap1\n      0x0100\n      exp\n      swap1\n      div\n      0xff\n      and\n        /* \"@openzeppelin/contracts/access/AccessControl.sol\":2947:2983  return _roles[role].hasRole[account] */\n      swap1\n      pop\n        /* \"@openzeppelin/contracts/access/AccessControl.sol\":2854:2990  function hasRole(bytes32 role, address account) public view virtual returns (bool) {... */\n      swap3\n      swap2\n      pop\n      pop\n      jump\t// out\n        /* \"contract/SafeServiceEscrow.sol\":1477:1868  function confirmCompletion() external onlyClient nonReentrant {... */\n    tag_71:\n        /* \"contract/SafeServiceEscrow.sol\":823:855  hasRole(CLIENT_ROLE, msg.sender) */\n      tag_175\n        /* \"contract/SafeServiceEscrow.sol\":293:317  keccak256(\"CLIENT_ROLE\") */\n      0xa5ff3ec7a96cdbba4d2d5172d66bbc73c6db3885f29b21be5da9fa7a7c025232\n        /* \"contract/SafeServiceEscrow.sol\":844:854  msg.sender */\n      caller\n        /* \"contract/SafeServiceEscrow.sol\":823:830  hasRole */\n      tag_68\n        /* \"contract/SafeServiceEscrow.sol\":823:855  hasRole(CLIENT_ROLE, msg.sender) */\n      jump\t// in\n    tag_175:\n        /* \"contract/SafeServiceEscrow.sol\":815:870  require(hasRole(CLIENT_ROLE, msg.sender), \"Not client\") */\n      tag_176\n      jumpi\n      mload(0x40)\n      0x08c379a000000000000000000000000000000000000000000000000000000000\n      dup2\n      mstore\n      0x04\n      add\n      tag_177\n      swap1\n      tag_95\n      jump\t// in\n    tag_177:\n      mload(0x40)\n      dup1\n      swap2\n      sub\n      swap1\n      revert\n    tag_176:\n        /* \"@openzeppelin/contracts/security/ReentrancyGuard.sol\":2261:2282  _nonReentrantBefore() */\n      tag_179\n        /* \"@openzeppelin/contracts/security/ReentrancyGuard.sol\":2261:2280  _nonReentrantBefore */\n      tag_98\n        /* \"@openzeppelin/contracts/security/ReentrancyGuard.sol\":2261:2282  _nonReentrantBefore() */\n      jump\t// in\n    tag_179:\n        /* \"contract/SafeServiceEscrow.sol\":1568:1581  Status.Active */\n      0x00\n        /* \"contract/SafeServiceEscrow.sol\":1558:1581  status == Status.Active */\n      0x03\n      dup2\n      gt\n      iszero\n      tag_181\n      jumpi\n      tag_182\n      tag_102\n      jump\t// in\n    tag_182:\n    tag_181:\n        /* \"contract/SafeServiceEscrow.sol\":1558:1564  status */\n      0x06\n      0x00\n      swap1\n      sload\n      swap1\n      0x0100\n      exp\n      swap1\n      div\n      0xff\n      and\n        /* \"contract/SafeServiceEscrow.sol\":1558:1581  status == Status.Active */\n      0x03\n      dup2\n      gt\n      iszero\n      tag_183\n      jumpi\n      tag_184\n      tag_102\n      jump\t// in\n    tag_184:\n    tag_183:\n      eq\n        /* \"contract/SafeServiceEscrow.sol\":1550:1600  require(status == Status.Active, \"Invalid status\") */\n      tag_185\n      jumpi\n      mload(0x40)\n      0x08c379a000000000000000000000000000000000000000000000000000000000\n      dup2\n      mstore\n      0x04\n      add\n      tag_186\n      swap1\n      tag_107\n      jump\t// in\n    tag_186:\n      mload(0x40)\n      dup1\n      swap2\n      sub\n      swap1\n      revert\n    tag_185:\n        /* \"contract/SafeServiceEscrow.sol\":1638:1646  deadline */\n      sload(0x04)\n        /* \"contract/SafeServiceEscrow.sol\":1619:1634  block.timestamp */\n      timestamp\n        /* \"contract/SafeServiceEscrow.sol\":1619:1646  block.timestamp <= deadline */\n      gt\n      iszero\n        /* \"contract/SafeServiceEscrow.sol\":1611:1664  require(block.timestamp <= deadline, \"Past deadline\") */\n      tag_187\n      jumpi\n      mload(0x40)\n      0x08c379a000000000000000000000000000000000000000000000000000000000\n      dup2\n      mstore\n      0x04\n      add\n      tag_188\n      swap1\n      tag_189\n      jump\t// in\n    tag_188:\n      mload(0x40)\n      dup1\n      swap2\n      sub\n      swap1\n      revert\n    tag_187:\n        /* \"contract/SafeServiceEscrow.sol\":1686:1702  Status.Completed */\n      0x01\n        /* \"contract/SafeServiceEscrow.sol\":1677:1683  status */\n      0x06\n      0x00\n        /* \"contract/SafeServiceEscrow.sol\":1677:1702  status = Status.Completed */\n      0x0100\n      exp\n      dup2\n      sload\n      dup2\n      0xff\n      mul\n      not\n      and\n      swap1\n      dup4\n      0x03\n      dup2\n      gt\n      iszero\n      tag_190\n      jumpi\n      tag_191\n      tag_102\n      jump\t// in\n    tag_191:\n    tag_190:\n      mul\n      or\n      swap1\n      sstore\n      pop\n        /* \"contract/SafeServiceEscrow.sol\":1714:1726  bool success */\n      0x00\n        /* \"contract/SafeServiceEscrow.sol\":1732:1737  agent */\n      0x02\n      0x00\n      swap1\n      sload\n      swap1\n      0x0100\n      exp\n      swap1\n      div\n      0xffffffffffffffffffffffffffffffffffffffff\n      and\n        /* \"contract/SafeServiceEscrow.sol\":1732:1742  agent.call */\n      0xffffffffffffffffffffffffffffffffffffffff\n      and\n        /* \"contract/SafeServiceEscrow.sol\":1750:1756  amount */\n      sload(0x05)\n        /* \"contract/SafeServiceEscrow.sol\":1732:1761  agent.call{value: amount}(\"\") */\n      mload(0x40)\n      tag_192\n      swap1\n      tag_114\n      jump\t// in\n    tag_192:\n      0x00\n      mload(0x40)\n      dup1\n      dup4\n      sub\n      dup2\n      dup6\n      dup8\n      gas\n      call\n      swap3\n      pop\n      pop\n      pop\n      returndatasize\n      dup1\n      0x00\n      dup2\n      eq\n      tag_195\n      jumpi\n      mload(0x40)\n      swap2\n      pop\n      and(add(returndatasize, 0x3f), not(0x1f))\n      dup3\n      add\n      0x40\n      mstore\n      returndatasize\n      dup3\n      mstore\n      returndatasize\n      0x00\n      0x20\n      dup5\n      add\n      returndatacopy\n      jump(tag_194)\n    tag_195:\n      0x60\n      swap2\n      pop\n    tag_194:\n      pop\n        /* \"contract/SafeServiceEscrow.sol\":1713:1761  (bool success, ) = agent.call{value: amount}(\"\") */\n      pop\n      swap1\n      pop\n        /* \"contract/SafeServiceEscrow.sol\":1780:1787  success */\n      dup1\n        /* \"contract/SafeServiceEscrow.sol\":1772:1806  require(success, \"Payment failed\") */\n      tag_196\n      jumpi\n      mload(0x40)\n      0x08c379a000000000000000000000000000000000000000000000000000000000\n      dup2\n      mstore\n      0x04\n      add\n      tag_197\n      swap1\n      tag_198\n      jump\t// in\n    tag_197:\n      mload(0x40)\n      dup1\n      swap2\n      sub\n      swap1\n      revert\n    tag_196:\n        /* \"contract/SafeServiceEscrow.sol\":1841:1851  msg.sender */\n      caller\n        /* \"contract/SafeServiceEscrow.sol\":1824:1860  ServiceConfirmed(msg.sender, amount) */\n      0xffffffffffffffffffffffffffffffffffffffff\n      and\n      0xe7e1c58de787e99204e575cf23080c95315f2f0008084ac1f62e766b79689ae5\n        /* \"contract/SafeServiceEscrow.sol\":1853:1859  amount */\n      sload(0x05)\n        /* \"contract/SafeServiceEscrow.sol\":1824:1860  ServiceConfirmed(msg.sender, amount) */\n      mload(0x40)\n      tag_199\n      swap2\n      swap1\n      tag_52\n      jump\t// in\n    tag_199:\n      mload(0x40)\n      dup1\n      swap2\n      sub\n      swap1\n      log2\n        /* \"contract/SafeServiceEscrow.sol\":1539:1868  {... */\n      pop\n        /* \"@openzeppelin/contracts/security/ReentrancyGuard.sol\":2303:2323  _nonReentrantAfter() */\n      tag_200\n        /* \"@openzeppelin/contracts/security/ReentrancyGuard.sol\":2303:2321  _nonReentrantAfter */\n      tag_123\n        /* \"@openzeppelin/contracts/security/ReentrancyGuard.sol\":2303:2323  _nonReentrantAfter() */\n      jump\t// in\n    tag_200:\n        /* \"contract/SafeServiceEscrow.sol\":1477:1868  function confirmCompletion() external onlyClient nonReentrant {... */\n      jump\t// out\n        /* \"@openzeppelin/contracts/access/AccessControl.sol\":2187:2236  bytes32 public constant DEFAULT_ADMIN_ROLE = 0x00 */\n    tag_73:\n        /* \"@openzeppelin/contracts/access/AccessControl.sol\":2232:2236  0x00 */\n      0x00\n        /* \"@openzeppelin/contracts/access/AccessControl.sol\":2187:2236  bytes32 public constant DEFAULT_ADMIN_ROLE = 0x00 */\n      dup1\n      shl\n      dup2\n      jump\t// out\n        /* \"contract/SafeServiceEscrow.sol\":555:576  uint256 public amount */\n    tag_76:\n      sload(0x05)\n      dup2\n      jump\t// out\n        /* \"@openzeppelin/contracts/access/AccessControl.sol\":4642:4780  function revokeRole(bytes32 role, address account) public virtual onlyRole(getRoleAdmin(role)) {... */\n    tag_80:\n        /* \"@openzeppelin/contracts/access/AccessControl.sol\":4717:4735  getRoleAdmin(role) */\n      tag_201\n        /* \"@openzeppelin/contracts/access/AccessControl.sol\":4730:4734  role */\n      dup3\n        /* \"@openzeppelin/contracts/access/AccessControl.sol\":4717:4729  getRoleAdmin */\n      tag_47\n        /* \"@openzeppelin/contracts/access/AccessControl.sol\":4717:4735  getRoleAdmin(role) */\n      jump\t// in\n    tag_201:\n        /* \"@openzeppelin/contracts/access/AccessControl.sol\":2464:2480  _checkRole(role) */\n      tag_203\n        /* \"@openzeppelin/contracts/access/AccessControl.sol\":2475:2479  role */\n      dup2\n        /* \"@openzeppelin/contracts/access/AccessControl.sol\":2464:2474  _checkRole */\n      tag_128\n        /* \"@openzeppelin/contracts/access/AccessControl.sol\":2464:2480  _checkRole(role) */\n      jump\t// in\n    tag_203:\n        /* \"@openzeppelin/contracts/access/AccessControl.sol\":4747:4773  _revokeRole(role, account) */\n      tag_205\n        /* \"@openzeppelin/contracts/access/AccessControl.sol\":4759:4763  role */\n      dup4\n        /* \"@openzeppelin/contracts/access/AccessControl.sol\":4765:4772  account */\n      dup4\n        /* \"@openzeppelin/contracts/access/AccessControl.sol\":4747:4758  _revokeRole */\n      tag_137\n        /* \"@openzeppelin/contracts/access/AccessControl.sol\":4747:4773  _revokeRole(role, account) */\n      jump\t// in\n    tag_205:\n      pop\n        /* \"@openzeppelin/contracts/access/AccessControl.sol\":4642:4780  function revokeRole(bytes32 role, address account) public virtual onlyRole(getRoleAdmin(role)) {... */\n      pop\n      pop\n      pop\n      jump\t// out\n        /* \"contract/SafeServiceEscrow.sol\":255:317  bytes32 public constant CLIENT_ROLE = keccak256(\"CLIENT_ROLE\") */\n    tag_82:\n        /* \"contract/SafeServiceEscrow.sol\":293:317  keccak256(\"CLIENT_ROLE\") */\n      0xa5ff3ec7a96cdbba4d2d5172d66bbc73c6db3885f29b21be5da9fa7a7c025232\n        /* \"contract/SafeServiceEscrow.sol\":255:317  bytes32 public constant CLIENT_ROLE = keccak256(\"CLIENT_ROLE\") */\n      dup2\n      jump\t// out\n        /* \"contract/SafeServiceEscrow.sol\":454:482  address payable public agent */\n    tag_85:\n      0x02\n      0x00\n      swap1\n      sload\n      swap1\n      0x0100\n      exp\n      swap1\n      div\n      0xffffffffffffffffffffffffffffffffffffffff\n      and\n      dup2\n      jump\t// out\n        /* \"@openzeppelin/contracts/utils/introspection/ERC165.sol\":763:909  function supportsInterface(bytes4 interfaceId) public view virtual returns (bool) {... */\n    tag_90:\n        /* \"@openzeppelin/contracts/utils/introspection/ERC165.sol\":839:843  bool */\n      0x00\n        /* \"@openzeppelin/contracts/utils/introspection/ERC165.sol\":877:902  type(IERC165).interfaceId */\n      0x01ffc9a700000000000000000000000000000000000000000000000000000000\n        /* \"@openzeppelin/contracts/utils/introspection/ERC165.sol\":862:902  interfaceId == type(IERC165).interfaceId */\n      not(0xffffffffffffffffffffffffffffffffffffffffffffffffffffffff)\n      and\n        /* \"@openzeppelin/contracts/utils/introspection/ERC165.sol\":862:873  interfaceId */\n      dup3\n        /* \"@openzeppelin/contracts/utils/introspection/ERC165.sol\":862:902  interfaceId == type(IERC165).interfaceId */\n      not(0xffffffffffffffffffffffffffffffffffffffffffffffffffffffff)\n      and\n      eq\n        /* \"@openzeppelin/contracts/utils/introspection/ERC165.sol\":855:902  return interfaceId == type(IERC165).interfaceId */\n      swap1\n      pop\n        /* \"@openzeppelin/contracts/utils/introspection/ERC165.sol\":763:909  function supportsInterface(bytes4 interfaceId) public view virtual returns (bool) {... */\n      swap2\n      swap1\n      pop\n      jump\t// out\n        /* \"@openzeppelin/contracts/security/ReentrancyGuard.sol\":2336:2623  function _nonReentrantBefore() private {... */\n    tag_98:\n        /* \"@openzeppelin/contracts/security/ReentrancyGuard.sol\":1759:1760  2 */\n      0x02\n        /* \"@openzeppelin/contracts/security/ReentrancyGuard.sol\":2468:2475  _status */\n      sload(0x01)\n        /* \"@openzeppelin/contracts/security/ReentrancyGuard.sol\":2468:2487  _status != _ENTERED */\n      sub\n        /* \"@openzeppelin/contracts/security/ReentrancyGuard.sol\":2460:2523  require(_status != _ENTERED, \"ReentrancyGuard: reentrant call\") */\n      tag_208\n      jumpi\n      mload(0x40)\n      0x08c379a000000000000000000000000000000000000000000000000000000000\n      dup2\n      mstore\n      0x04\n      add\n      tag_209\n      swap1\n      tag_210\n      jump\t// in\n    tag_209:\n      mload(0x40)\n      dup1\n      swap2\n      sub\n      swap1\n      revert\n    tag_208:\n        /* \"@openzeppelin/contracts/security/ReentrancyGuard.sol\":1759:1760  2 */\n      0x02\n        /* \"@openzeppelin/contracts/security/ReentrancyGuard.sol\":2598:2605  _status */\n      0x01\n        /* \"@openzeppelin/contracts/security/ReentrancyGuard.sol\":2598:2616  _status = _ENTERED */\n      dup2\n      swap1\n      sstore\n      pop\n        /* \"@openzeppelin/contracts/security/ReentrancyGuard.sol\":2336:2623  function _nonReentrantBefore() private {... */\n      jump\t// out\n        /* \"@openzeppelin/contracts/security/ReentrancyGuard.sol\":2629:2838  function _nonReentrantAfter() private {... */\n    tag_123:\n        /* \"@openzeppelin/contracts/security/ReentrancyGuard.sol\":1716:1717  1 */\n      0x01\n        /* \"@openzeppelin/contracts/security/ReentrancyGuard.sol\":2809:2816  _status */\n      dup1\n        /* \"@openzeppelin/contracts/security/ReentrancyGuard.sol\":2809:2831  _status = _NOT_ENTERED */\n      dup2\n      swap1\n      sstore\n      pop\n        /* \"@openzeppelin/contracts/security/ReentrancyGuard.sol\":2629:2838  function _nonReentrantAfter() private {... */\n      jump\t// out\n        /* \"@openzeppelin/contracts/access/AccessControl.sol\":3199:3302  function _checkRole(bytes32 role) internal view virtual {... */\n    tag_128:\n        /* \"@openzeppelin/contracts/access/AccessControl.sol\":3265:3295  _checkRole(role, _msgSender()) */\n      tag_213\n        /* \"@openzeppelin/contracts/access/AccessControl.sol\":3276:3280  role */\n      dup2\n        /* \"@openzeppelin/contracts/access/AccessControl.sol\":3282:3294  _msgSender() */\n      tag_214\n        /* \"@openzeppelin/contracts/access/AccessControl.sol\":3282:3292  _msgSender */\n      tag_134\n        /* \"@openzeppelin/contracts/access/AccessControl.sol\":3282:3294  _msgSender() */\n      jump\t// in\n    tag_214:\n        /* \"@openzeppelin/contracts/access/AccessControl.sol\":3265:3275  _checkRole */\n      tag_215\n        /* \"@openzeppelin/contracts/access/AccessControl.sol\":3265:3295  _checkRole(role, _msgSender()) */\n      jump\t// in\n    tag_213:\n        /* \"@openzeppelin/contracts/access/AccessControl.sol\":3199:3302  function _checkRole(bytes32 role) internal view virtual {... */\n      pop\n      jump\t// out\n        /* \"@openzeppelin/contracts/access/AccessControl.sol\":6179:6495  function _grantRole(bytes32 role, address account) internal virtual returns (bool) {... */\n    tag_131:\n        /* \"@openzeppelin/contracts/access/AccessControl.sol\":6256:6260  bool */\n      0x00\n        /* \"@openzeppelin/contracts/access/AccessControl.sol\":6277:6299  hasRole(role, account) */\n      tag_217\n        /* \"@openzeppelin/contracts/access/AccessControl.sol\":6285:6289  role */\n      dup4\n        /* \"@openzeppelin/contracts/access/AccessControl.sol\":6291:6298  account */\n      dup4\n        /* \"@openzeppelin/contracts/access/AccessControl.sol\":6277:6284  hasRole */\n      tag_68\n        /* \"@openzeppelin/contracts/access/AccessControl.sol\":6277:6299  hasRole(role, account) */\n      jump\t// in\n    tag_217:\n        /* \"@openzeppelin/contracts/access/AccessControl.sol\":6272:6489  if (!hasRole(role, account)) {... */\n      tag_218\n      jumpi\n        /* \"@openzeppelin/contracts/access/AccessControl.sol\":6347:6351  true */\n      0x01\n        /* \"@openzeppelin/contracts/access/AccessControl.sol\":6315:6321  _roles */\n      0x00\n        /* \"@openzeppelin/contracts/access/AccessControl.sol\":6315:6327  _roles[role] */\n      dup1\n        /* \"@openzeppelin/contracts/access/AccessControl.sol\":6322:6326  role */\n      dup6\n        /* \"@openzeppelin/contracts/access/AccessControl.sol\":6315:6327  _roles[role] */\n      dup2\n      mstore\n      0x20\n      add\n      swap1\n      dup2\n      mstore\n      0x20\n      add\n      0x00\n      keccak256\n        /* \"@openzeppelin/contracts/access/AccessControl.sol\":6315:6335  _roles[role].hasRole */\n      0x00\n      add\n        /* \"@openzeppelin/contracts/access/AccessControl.sol\":6315:6344  _roles[role].hasRole[account] */\n      0x00\n        /* \"@openzeppelin/contracts/access/AccessControl.sol\":6336:6343  account */\n      dup5\n        /* \"@openzeppelin/contracts/access/AccessControl.sol\":6315:6344  _roles[role].hasRole[account] */\n      0xffffffffffffffffffffffffffffffffffffffff\n      and\n      0xffffffffffffffffffffffffffffffffffffffff\n      and\n      dup2\n      mstore\n      0x20\n      add\n      swap1\n      dup2\n      mstore\n      0x20\n      add\n      0x00\n      keccak256\n      0x00\n        /* \"@openzeppelin/contracts/access/AccessControl.sol\":6315:6351  _roles[role].hasRole[account] = true */\n      0x0100\n      exp\n      dup2\n      sload\n      dup2\n      0xff\n      mul\n      not\n      and\n      swap1\n      dup4\n      iszero\n      iszero\n      mul\n      or\n      swap1\n      sstore\n      pop\n        /* \"@openzeppelin/contracts/access/AccessControl.sol\":6397:6409  _msgSender() */\n      tag_219\n        /* \"@openzeppelin/contracts/access/AccessControl.sol\":6397:6407  _msgSender */\n      tag_134\n        /* \"@openzeppelin/contracts/access/AccessControl.sol\":6397:6409  _msgSender() */\n      jump\t// in\n    tag_219:\n        /* \"@openzeppelin/contracts/access/AccessControl.sol\":6370:6410  RoleGranted(role, account, _msgSender()) */\n      0xffffffffffffffffffffffffffffffffffffffff\n      and\n        /* \"@openzeppelin/contracts/access/AccessControl.sol\":6388:6395  account */\n      dup3\n        /* \"@openzeppelin/contracts/access/AccessControl.sol\":6370:6410  RoleGranted(role, account, _msgSender()) */\n      0xffffffffffffffffffffffffffffffffffffffff\n      and\n        /* \"@openzeppelin/contracts/access/AccessControl.sol\":6382:6386  role */\n      dup5\n        /* \"@openzeppelin/contracts/access/AccessControl.sol\":6370:6410  RoleGranted(role, account, _msgSender()) */\n      0x2f8788117e7eff1d82e926ec794901d17c78024a50270940304540a733656f0d\n      mload(0x40)\n      mload(0x40)\n      dup1\n      swap2\n      sub\n      swap1\n      log4\n        /* \"@openzeppelin/contracts/access/AccessControl.sol\":6431:6435  true */\n      0x01\n        /* \"@openzeppelin/contracts/access/AccessControl.sol\":6424:6435  return true */\n      swap1\n      pop\n      jump(tag_216)\n        /* \"@openzeppelin/contracts/access/AccessControl.sol\":6272:6489  if (!hasRole(role, account)) {... */\n    tag_218:\n        /* \"@openzeppelin/contracts/access/AccessControl.sol\":6473:6478  false */\n      0x00\n        /* \"@openzeppelin/contracts/access/AccessControl.sol\":6466:6478  return false */\n      swap1\n      pop\n        /* \"@openzeppelin/contracts/access/AccessControl.sol\":6179:6495  function _grantRole(bytes32 role, address account) internal virtual returns (bool) {... */\n    tag_216:\n      swap3\n      swap2\n      pop\n      pop\n      jump\t// out\n        /* \"@openzeppelin/contracts/utils/Context.sol\":656:752  function _msgSender() internal view virtual returns (address) {... */\n    tag_134:\n        /* \"@openzeppelin/contracts/utils/Context.sol\":709:716  address */\n      0x00\n        /* \"@openzeppelin/contracts/utils/Context.sol\":735:745  msg.sender */\n      caller\n        /* \"@openzeppelin/contracts/utils/Context.sol\":728:745  return msg.sender */\n      swap1\n      pop\n        /* \"@openzeppelin/contracts/utils/Context.sol\":656:752  function _msgSender() internal view virtual returns (address) {... */\n      swap1\n      jump\t// out\n        /* \"@openzeppelin/contracts/access/AccessControl.sol\":6732:7049  function _revokeRole(bytes32 role, address account) internal virtual returns (bool) {... */\n    tag_137:\n        /* \"@openzeppelin/contracts/access/AccessControl.sol\":6810:6814  bool */\n      0x00\n        /* \"@openzeppelin/contracts/access/AccessControl.sol\":6830:6852  hasRole(role, account) */\n      tag_223\n        /* \"@openzeppelin/contracts/access/AccessControl.sol\":6838:6842  role */\n      dup4\n        /* \"@openzeppelin/contracts/access/AccessControl.sol\":6844:6851  account */\n      dup4\n        /* \"@openzeppelin/contracts/access/AccessControl.sol\":6830:6837  hasRole */\n      tag_68\n        /* \"@openzeppelin/contracts/access/AccessControl.sol\":6830:6852  hasRole(role, account) */\n      jump\t// in\n    tag_223:\n        /* \"@openzeppelin/contracts/access/AccessControl.sol\":6826:7043  if (hasRole(role, account)) {... */\n      iszero\n      tag_224\n      jumpi\n        /* \"@openzeppelin/contracts/access/AccessControl.sol\":6900:6905  false */\n      0x00\n        /* \"@openzeppelin/contracts/access/AccessControl.sol\":6868:6874  _roles */\n      dup1\n        /* \"@openzeppelin/contracts/access/AccessControl.sol\":6868:6880  _roles[role] */\n      0x00\n        /* \"@openzeppelin/contracts/access/AccessControl.sol\":6875:6879  role */\n      dup6\n        /* \"@openzeppelin/contracts/access/AccessControl.sol\":6868:6880  _roles[role] */\n      dup2\n      mstore\n      0x20\n      add\n      swap1\n      dup2\n      mstore\n      0x20\n      add\n      0x00\n      keccak256\n        /* \"@openzeppelin/contracts/access/AccessControl.sol\":6868:6888  _roles[role].hasRole */\n      0x00\n      add\n        /* \"@openzeppelin/contracts/access/AccessControl.sol\":6868:6897  _roles[role].hasRole[account] */\n      0x00\n        /* \"@openzeppelin/contracts/access/AccessControl.sol\":6889:6896  account */\n      dup5\n        /* \"@openzeppelin/contracts/access/AccessControl.sol\":6868:6897  _roles[role].hasRole[account] */\n      0xffffffffffffffffffffffffffffffffffffffff\n      and\n      0xffffffffffffffffffffffffffffffffffffffff\n      and\n      dup2\n      mstore\n      0x20\n      add\n      swap1\n      dup2\n      mstore\n      0x20\n      add\n      0x00\n      keccak256\n      0x00\n        /* \"@openzeppelin/contracts/access/AccessControl.sol\":6868:6905  _roles[role].hasRole[account] = false */\n      0x0100\n      exp\n      dup2\n      sload\n      dup2\n      0xff\n      mul\n      not\n      and\n      swap1\n      dup4\n      iszero\n      iszero\n      mul\n      or\n      swap1\n      sstore\n      pop\n        /* \"@openzeppelin/contracts/access/AccessControl.sol\":6951:6963  _msgSender() */\n      tag_225\n        /* \"@openzeppelin/contracts/access/AccessControl.sol\":6951:6961  _msgSender */\n      tag_134\n        /* \"@openzeppelin/contracts/access/AccessControl.sol\":6951:6963  _msgSender() */\n      jump\t// in\n    tag_225:\n        /* \"@openzeppelin/contracts/access/AccessControl.sol\":6924:6964  RoleRevoked(role, account, _msgSender()) */\n      0xffffffffffffffffffffffffffffffffffffffff\n      and\n        /* \"@openzeppelin/contracts/access/AccessControl.sol\":6942:6949  account */\n      dup3\n        /* \"@openzeppelin/contracts/access/AccessControl.sol\":6924:6964  RoleRevoked(role, account, _msgSender()) */\n      0xffffffffffffffffffffffffffffffffffffffff\n      and\n        /* \"@openzeppelin/contracts/access/AccessControl.sol\":6936:6940  role */\n      dup5\n        /* \"@openzeppelin/contracts/access/AccessControl.sol\":6924:6964  RoleRevoked(role, account, _msgSender()) */\n      0xf6391f5c32d9c69d2a47ea670b442974b53935d1edc7fd64eb21e047a839171b\n      mload(0x40)\n      mload(0x40)\n      dup1\n      swap2\n      sub\n      swap1\n      log4\n        /* \"@openzeppelin/contracts/access/AccessControl.sol\":6985:6989  true */\n      0x01\n        /* \"@openzeppelin/contracts/access/AccessControl.sol\":6978:6989  return true */\n      swap1\n      pop\n      jump(tag_222)\n        /* \"@openzeppelin/contracts/access/AccessControl.sol\":6826:7043  if (hasRole(role, account)) {... */\n    tag_224:\n        /* \"@openzeppelin/contracts/access/AccessControl.sol\":7027:7032  false */\n      0x00\n        /* \"@openzeppelin/contracts/access/AccessControl.sol\":7020:7032  return false */\n      swap1\n      pop\n        /* \"@openzeppelin/contracts/access/AccessControl.sol\":6732:7049  function _revokeRole(bytes32 role, address account) internal virtual returns (bool) {... */\n    tag_222:\n      swap3\n      swap2\n      pop\n      pop\n      jump\t// out\n        /* \"@openzeppelin/contracts/access/AccessControl.sol\":3432:3629  function _checkRole(bytes32 role, address account) internal view virtual {... */\n    tag_215:\n        /* \"@openzeppelin/contracts/access/AccessControl.sol\":3520:3542  hasRole(role, account) */\n      tag_228\n        /* \"@openzeppelin/contracts/access/AccessControl.sol\":3528:3532  role */\n      dup3\n        /* \"@openzeppelin/contracts/access/AccessControl.sol\":3534:3541  account */\n      dup3\n        /* \"@openzeppelin/contracts/access/AccessControl.sol\":3520:3527  hasRole */\n      tag_68\n        /* \"@openzeppelin/contracts/access/AccessControl.sol\":3520:3542  hasRole(role, account) */\n      jump\t// in\n    tag_228:\n        /* \"@openzeppelin/contracts/access/AccessControl.sol\":3515:3623  if (!hasRole(role, account)) {... */\n      tag_229\n      jumpi\n        /* \"@openzeppelin/contracts/access/AccessControl.sol\":3598:3605  account */\n      dup1\n        /* \"@openzeppelin/contracts/access/AccessControl.sol\":3607:3611  role */\n      dup3\n        /* \"@openzeppelin/contracts/access/AccessControl.sol\":3565:3612  AccessControlUnauthorizedAccount(account, role) */\n      mload(0x40)\n      0xe2517d3f00000000000000000000000000000000000000000000000000000000\n      dup2\n      mstore\n      0x04\n      add\n      tag_230\n      swap3\n      swap2\n      swap1\n      tag_231\n      jump\t// in\n    tag_230:\n      mload(0x40)\n      dup1\n      swap2\n      sub\n      swap1\n      revert\n        /* \"@openzeppelin/contracts/access/AccessControl.sol\":3515:3623  if (!hasRole(role, account)) {... */\n    tag_229:\n        /* \"@openzeppelin/contracts/access/AccessControl.sol\":3432:3629  function _checkRole(bytes32 role, address account) internal view virtual {... */\n      pop\n      pop\n      jump\t// out\n        /* \"#utility.yul\":88:205   */\n    tag_233:\n        /* \"#utility.yul\":197:198   */\n      0x00\n        /* \"#utility.yul\":194:195   */\n      dup1\n        /* \"#utility.yul\":187:199   */\n      revert\n        /* \"#utility.yul\":334:483   */\n    tag_235:\n        /* \"#utility.yul\":370:377   */\n      0x00\n        /* \"#utility.yul\":410:476   */\n      0xffffffff00000000000000000000000000000000000000000000000000000000\n        /* \"#utility.yul\":403:408   */\n      dup3\n        /* \"#utility.yul\":399:477   */\n      and\n        /* \"#utility.yul\":388:477   */\n      swap1\n      pop\n        /* \"#utility.yul\":334:483   */\n      swap2\n      swap1\n      pop\n      jump\t// out\n        /* \"#utility.yul\":489:609   */\n    tag_236:\n        /* \"#utility.yul\":561:584   */\n      tag_287\n        /* \"#utility.yul\":578:583   */\n      dup2\n        /* \"#utility.yul\":561:584   */\n      tag_235\n      jump\t// in\n    tag_287:\n        /* \"#utility.yul\":554:559   */\n      dup2\n        /* \"#utility.yul\":551:585   */\n      eq\n        /* \"#utility.yul\":541:603   */\n      tag_288\n      jumpi\n        /* \"#utility.yul\":599:600   */\n      0x00\n        /* \"#utility.yul\":596:597   */\n      dup1\n        /* \"#utility.yul\":589:601   */\n      revert\n        /* \"#utility.yul\":541:603   */\n    tag_288:\n        /* \"#utility.yul\":489:609   */\n      pop\n      jump\t// out\n        /* \"#utility.yul\":615:752   */\n    tag_237:\n        /* \"#utility.yul\":660:665   */\n      0x00\n        /* \"#utility.yul\":698:704   */\n      dup2\n        /* \"#utility.yul\":685:705   */\n      calldataload\n        /* \"#utility.yul\":676:705   */\n      swap1\n      pop\n        /* \"#utility.yul\":714:746   */\n      tag_290\n        /* \"#utility.yul\":740:745   */\n      dup2\n        /* \"#utility.yul\":714:746   */\n      tag_236\n      jump\t// in\n    tag_290:\n        /* \"#utility.yul\":615:752   */\n      swap3\n      swap2\n      pop\n      pop\n      jump\t// out\n        /* \"#utility.yul\":758:1085   */\n    tag_26:\n        /* \"#utility.yul\":816:822   */\n      0x00\n        /* \"#utility.yul\":865:867   */\n      0x20\n        /* \"#utility.yul\":853:862   */\n      dup3\n        /* \"#utility.yul\":844:851   */\n      dup5\n        /* \"#utility.yul\":840:863   */\n      sub\n        /* \"#utility.yul\":836:868   */\n      slt\n        /* \"#utility.yul\":833:952   */\n      iszero\n      tag_292\n      jumpi\n        /* \"#utility.yul\":871:950   */\n      tag_293\n      tag_233\n      jump\t// in\n    tag_293:\n        /* \"#utility.yul\":833:952   */\n    tag_292:\n        /* \"#utility.yul\":991:992   */\n      0x00\n        /* \"#utility.yul\":1016:1068   */\n      tag_294\n        /* \"#utility.yul\":1060:1067   */\n      dup5\n        /* \"#utility.yul\":1051:1057   */\n      dup3\n        /* \"#utility.yul\":1040:1049   */\n      dup6\n        /* \"#utility.yul\":1036:1058   */\n      add\n        /* \"#utility.yul\":1016:1068   */\n      tag_237\n      jump\t// in\n    tag_294:\n        /* \"#utility.yul\":1006:1068   */\n      swap2\n      pop\n        /* \"#utility.yul\":962:1078   */\n      pop\n        /* \"#utility.yul\":758:1085   */\n      swap3\n      swap2\n      pop\n      pop\n      jump\t// out\n        /* \"#utility.yul\":1091:1181   */\n    tag_238:\n        /* \"#utility.yul\":1125:1132   */\n      0x00\n        /* \"#utility.yul\":1168:1173   */\n      dup2\n        /* \"#utility.yul\":1161:1174   */\n      iszero\n        /* \"#utility.yul\":1154:1175   */\n      iszero\n        /* \"#utility.yul\":1143:1175   */\n      swap1\n      pop\n        /* \"#utility.yul\":1091:1181   */\n      swap2\n      swap1\n      pop\n      jump\t// out\n        /* \"#utility.yul\":1187:1296   */\n    tag_239:\n        /* \"#utility.yul\":1268:1289   */\n      tag_297\n        /* \"#utility.yul\":1283:1288   */\n      dup2\n        /* \"#utility.yul\":1268:1289   */\n      tag_238\n      jump\t// in\n    tag_297:\n        /* \"#utility.yul\":1263:1266   */\n      dup3\n        /* \"#utility.yul\":1256:1290   */\n      mstore\n        /* \"#utility.yul\":1187:1296   */\n      pop\n      pop\n      jump\t// out\n        /* \"#utility.yul\":1302:1512   */\n    tag_29:\n        /* \"#utility.yul\":1389:1393   */\n      0x00\n        /* \"#utility.yul\":1427:1429   */\n      0x20\n        /* \"#utility.yul\":1416:1425   */\n      dup3\n        /* \"#utility.yul\":1412:1430   */\n      add\n        /* \"#utility.yul\":1404:1430   */\n      swap1\n      pop\n        /* \"#utility.yul\":1440:1505   */\n      tag_299\n        /* \"#utility.yul\":1502:1503   */\n      0x00\n        /* \"#utility.yul\":1491:1500   */\n      dup4\n        /* \"#utility.yul\":1487:1504   */\n      add\n        /* \"#utility.yul\":1478:1484   */\n      dup5\n        /* \"#utility.yul\":1440:1505   */\n      tag_239\n      jump\t// in\n    tag_299:\n        /* \"#utility.yul\":1302:1512   */\n      swap3\n      swap2\n      pop\n      pop\n      jump\t// out\n        /* \"#utility.yul\":1518:1644   */\n    tag_240:\n        /* \"#utility.yul\":1555:1562   */\n      0x00\n        /* \"#utility.yul\":1595:1637   */\n      0xffffffffffffffffffffffffffffffffffffffff\n        /* \"#utility.yul\":1588:1593   */\n      dup3\n        /* \"#utility.yul\":1584:1638   */\n      and\n        /* \"#utility.yul\":1573:1638   */\n      swap1\n      pop\n        /* \"#utility.yul\":1518:1644   */\n      swap2\n      swap1\n      pop\n      jump\t// out\n        /* \"#utility.yul\":1650:1754   */\n    tag_241:\n        /* \"#utility.yul\":1695:1702   */\n      0x00\n        /* \"#utility.yul\":1724:1748   */\n      tag_302\n        /* \"#utility.yul\":1742:1747   */\n      dup3\n        /* \"#utility.yul\":1724:1748   */\n      tag_240\n      jump\t// in\n    tag_302:\n        /* \"#utility.yul\":1713:1748   */\n      swap1\n      pop\n        /* \"#utility.yul\":1650:1754   */\n      swap2\n      swap1\n      pop\n      jump\t// out\n        /* \"#utility.yul\":1760:1902   */\n    tag_242:\n        /* \"#utility.yul\":1863:1895   */\n      tag_304\n        /* \"#utility.yul\":1889:1894   */\n      dup2\n        /* \"#utility.yul\":1863:1895   */\n      tag_241\n      jump\t// in\n    tag_304:\n        /* \"#utility.yul\":1858:1861   */\n      dup3\n        /* \"#utility.yul\":1851:1896   */\n      mstore\n        /* \"#utility.yul\":1760:1902   */\n      pop\n      pop\n      jump\t// out\n        /* \"#utility.yul\":1908:2162   */\n    tag_33:\n        /* \"#utility.yul\":2017:2021   */\n      0x00\n        /* \"#utility.yul\":2055:2057   */\n      0x20\n        /* \"#utility.yul\":2044:2053   */\n      dup3\n        /* \"#utility.yul\":2040:2058   */\n      add\n        /* \"#utility.yul\":2032:2058   */\n      swap1\n      pop\n        /* \"#utility.yul\":2068:2155   */\n      tag_306\n        /* \"#utility.yul\":2152:2153   */\n      0x00\n        /* \"#utility.yul\":2141:2150   */\n      dup4\n        /* \"#utility.yul\":2137:2154   */\n      add\n        /* \"#utility.yul\":2128:2134   */\n      dup5\n        /* \"#utility.yul\":2068:2155   */\n      tag_242\n      jump\t// in\n    tag_306:\n        /* \"#utility.yul\":1908:2162   */\n      swap3\n      swap2\n      pop\n      pop\n      jump\t// out\n        /* \"#utility.yul\":2168:2348   */\n    tag_102:\n        /* \"#utility.yul\":2216:2293   */\n      0x4e487b7100000000000000000000000000000000000000000000000000000000\n        /* \"#utility.yul\":2213:2214   */\n      0x00\n        /* \"#utility.yul\":2206:2294   */\n      mstore\n        /* \"#utility.yul\":2313:2317   */\n      0x21\n        /* \"#utility.yul\":2310:2311   */\n      0x04\n        /* \"#utility.yul\":2303:2318   */\n      mstore\n        /* \"#utility.yul\":2337:2341   */\n      0x24\n        /* \"#utility.yul\":2334:2335   */\n      0x00\n        /* \"#utility.yul\":2327:2342   */\n      revert\n        /* \"#utility.yul\":2354:2469   */\n    tag_243:\n        /* \"#utility.yul\":2437:2438   */\n      0x04\n        /* \"#utility.yul\":2430:2435   */\n      dup2\n        /* \"#utility.yul\":2427:2439   */\n      lt\n        /* \"#utility.yul\":2417:2463   */\n      tag_309\n      jumpi\n        /* \"#utility.yul\":2443:2461   */\n      tag_310\n      tag_102\n      jump\t// in\n    tag_310:\n        /* \"#utility.yul\":2417:2463   */\n    tag_309:\n        /* \"#utility.yul\":2354:2469   */\n      pop\n      jump\t// out\n        /* \"#utility.yul\":2475:2606   */\n    tag_244:\n        /* \"#utility.yul\":2522:2529   */\n      0x00\n        /* \"#utility.yul\":2551:2556   */\n      dup2\n        /* \"#utility.yul\":2540:2556   */\n      swap1\n      pop\n        /* \"#utility.yul\":2557:2600   */\n      tag_312\n        /* \"#utility.yul\":2594:2599   */\n      dup3\n        /* \"#utility.yul\":2557:2600   */\n      tag_243\n      jump\t// in\n    tag_312:\n        /* \"#utility.yul\":2475:2606   */\n      swap2\n      swap1\n      pop\n      jump\t// out\n        /* \"#utility.yul\":2612:2743   */\n    tag_245:\n        /* \"#utility.yul\":2670:2679   */\n      0x00\n        /* \"#utility.yul\":2703:2737   */\n      tag_314\n        /* \"#utility.yul\":2731:2736   */\n      dup3\n        /* \"#utility.yul\":2703:2737   */\n      tag_244\n      jump\t// in\n    tag_314:\n        /* \"#utility.yul\":2690:2737   */\n      swap1\n      pop\n        /* \"#utility.yul\":2612:2743   */\n      swap2\n      swap1\n      pop\n      jump\t// out\n        /* \"#utility.yul\":2749:2896   */\n    tag_246:\n        /* \"#utility.yul\":2844:2889   */\n      tag_316\n        /* \"#utility.yul\":2883:2888   */\n      dup2\n        /* \"#utility.yul\":2844:2889   */\n      tag_245\n      jump\t// in\n    tag_316:\n        /* \"#utility.yul\":2839:2842   */\n      dup3\n        /* \"#utility.yul\":2832:2890   */\n      mstore\n        /* \"#utility.yul\":2749:2896   */\n      pop\n      pop\n      jump\t// out\n        /* \"#utility.yul\":2902:3140   */\n    tag_39:\n        /* \"#utility.yul\":3003:3007   */\n      0x00\n        /* \"#utility.yul\":3041:3043   */\n      0x20\n        /* \"#utility.yul\":3030:3039   */\n      dup3\n        /* \"#utility.yul\":3026:3044   */\n      add\n        /* \"#utility.yul\":3018:3044   */\n      swap1\n      pop\n        /* \"#utility.yul\":3054:3133   */\n      tag_318\n        /* \"#utility.yul\":3130:3131   */\n      0x00\n        /* \"#utility.yul\":3119:3128   */\n      dup4\n        /* \"#utility.yul\":3115:3132   */\n      add\n        /* \"#utility.yul\":3106:3112   */\n      dup5\n        /* \"#utility.yul\":3054:3133   */\n      tag_246\n      jump\t// in\n    tag_318:\n        /* \"#utility.yul\":2902:3140   */\n      swap3\n      swap2\n      pop\n      pop\n      jump\t// out\n        /* \"#utility.yul\":3146:3223   */\n    tag_247:\n        /* \"#utility.yul\":3183:3190   */\n      0x00\n        /* \"#utility.yul\":3212:3217   */\n      dup2\n        /* \"#utility.yul\":3201:3217   */\n      swap1\n      pop\n        /* \"#utility.yul\":3146:3223   */\n      swap2\n      swap1\n      pop\n      jump\t// out\n        /* \"#utility.yul\":3229:3347   */\n    tag_248:\n        /* \"#utility.yul\":3316:3340   */\n      tag_321\n        /* \"#utility.yul\":3334:3339   */\n      dup2\n        /* \"#utility.yul\":3316:3340   */\n      tag_247\n      jump\t// in\n    tag_321:\n        /* \"#utility.yul\":3311:3314   */\n      dup3\n        /* \"#utility.yul\":3304:3341   */\n      mstore\n        /* \"#utility.yul\":3229:3347   */\n      pop\n      pop\n      jump\t// out\n        /* \"#utility.yul\":3353:3575   */\n    tag_43:\n        /* \"#utility.yul\":3446:3450   */\n      0x00\n        /* \"#utility.yul\":3484:3486   */\n      0x20\n        /* \"#utility.yul\":3473:3482   */\n      dup3\n        /* \"#utility.yul\":3469:3487   */\n      add\n        /* \"#utility.yul\":3461:3487   */\n      swap1\n      pop\n        /* \"#utility.yul\":3497:3568   */\n      tag_323\n        /* \"#utility.yul\":3565:3566   */\n      0x00\n        /* \"#utility.yul\":3554:3563   */\n      dup4\n        /* \"#utility.yul\":3550:3567   */\n      add\n        /* \"#utility.yul\":3541:3547   */\n      dup5\n        /* \"#utility.yul\":3497:3568   */\n      tag_248\n      jump\t// in\n    tag_323:\n        /* \"#utility.yul\":3353:3575   */\n      swap3\n      swap2\n      pop\n      pop\n      jump\t// out\n        /* \"#utility.yul\":3581:3703   */\n    tag_249:\n        /* \"#utility.yul\":3654:3678   */\n      tag_325\n        /* \"#utility.yul\":3672:3677   */\n      dup2\n        /* \"#utility.yul\":3654:3678   */\n      tag_247\n      jump\t// in\n    tag_325:\n        /* \"#utility.yul\":3647:3652   */\n      dup2\n        /* \"#utility.yul\":3644:3679   */\n      eq\n        /* \"#utility.yul\":3634:3697   */\n      tag_326\n      jumpi\n        /* \"#utility.yul\":3693:3694   */\n      0x00\n        /* \"#utility.yul\":3690:3691   */\n      dup1\n        /* \"#utility.yul\":3683:3695   */\n      revert\n        /* \"#utility.yul\":3634:3697   */\n    tag_326:\n        /* \"#utility.yul\":3581:3703   */\n      pop\n      jump\t// out\n        /* \"#utility.yul\":3709:3848   */\n    tag_250:\n        /* \"#utility.yul\":3755:3760   */\n      0x00\n        /* \"#utility.yul\":3793:3799   */\n      dup2\n        /* \"#utility.yul\":3780:3800   */\n      calldataload\n        /* \"#utility.yul\":3771:3800   */\n      swap1\n      pop\n        /* \"#utility.yul\":3809:3842   */\n      tag_328\n        /* \"#utility.yul\":3836:3841   */\n      dup2\n        /* \"#utility.yul\":3809:3842   */\n      tag_249\n      jump\t// in\n    tag_328:\n        /* \"#utility.yul\":3709:3848   */\n      swap3\n      swap2\n      pop\n      pop\n      jump\t// out\n        /* \"#utility.yul\":3854:4183   */\n    tag_46:\n        /* \"#utility.yul\":3913:3919   */\n      0x00\n        /* \"#utility.yul\":3962:3964   */\n      0x20\n        /* \"#utility.yul\":3950:3959   */\n      dup3\n        /* \"#utility.yul\":3941:3948   */\n      dup5\n        /* \"#utility.yul\":3937:3960   */\n      sub\n        /* \"#utility.yul\":3933:3965   */\n      slt\n        /* \"#utility.yul\":3930:4049   */\n      iszero\n      tag_330\n      jumpi\n        /* \"#utility.yul\":3968:4047   */\n      tag_331\n      tag_233\n      jump\t// in\n    tag_331:\n        /* \"#utility.yul\":3930:4049   */\n    tag_330:\n        /* \"#utility.yul\":4088:4089   */\n      0x00\n        /* \"#utility.yul\":4113:4166   */\n      tag_332\n        /* \"#utility.yul\":4158:4165   */\n      dup5\n        /* \"#utility.yul\":4149:4155   */\n      dup3\n        /* \"#utility.yul\":4138:4147   */\n      dup6\n        /* \"#utility.yul\":4134:4156   */\n      add\n        /* \"#utility.yul\":4113:4166   */\n      tag_250\n      jump\t// in\n    tag_332:\n        /* \"#utility.yul\":4103:4166   */\n      swap2\n      pop\n        /* \"#utility.yul\":4059:4176   */\n      pop\n        /* \"#utility.yul\":3854:4183   */\n      swap3\n      swap2\n      pop\n      pop\n      jump\t// out\n        /* \"#utility.yul\":4189:4266   */\n    tag_251:\n        /* \"#utility.yul\":4226:4233   */\n      0x00\n        /* \"#utility.yul\":4255:4260   */\n      dup2\n        /* \"#utility.yul\":4244:4260   */\n      swap1\n      pop\n        /* \"#utility.yul\":4189:4266   */\n      swap2\n      swap1\n      pop\n      jump\t// out\n        /* \"#utility.yul\":4272:4390   */\n    tag_252:\n        /* \"#utility.yul\":4359:4383   */\n      tag_335\n        /* \"#utility.yul\":4377:4382   */\n      dup2\n        /* \"#utility.yul\":4359:4383   */\n      tag_251\n      jump\t// in\n    tag_335:\n        /* \"#utility.yul\":4354:4357   */\n      dup3\n        /* \"#utility.yul\":4347:4384   */\n      mstore\n        /* \"#utility.yul\":4272:4390   */\n      pop\n      pop\n      jump\t// out\n        /* \"#utility.yul\":4396:4618   */\n    tag_52:\n        /* \"#utility.yul\":4489:4493   */\n      0x00\n        /* \"#utility.yul\":4527:4529   */\n      0x20\n        /* \"#utility.yul\":4516:4525   */\n      dup3\n        /* \"#utility.yul\":4512:4530   */\n      add\n        /* \"#utility.yul\":4504:4530   */\n      swap1\n      pop\n        /* \"#utility.yul\":4540:4611   */\n      tag_337\n        /* \"#utility.yul\":4608:4609   */\n      0x00\n        /* \"#utility.yul\":4597:4606   */\n      dup4\n        /* \"#utility.yul\":4593:4610   */\n      add\n        /* \"#utility.yul\":4584:4590   */\n      dup5\n        /* \"#utility.yul\":4540:4611   */\n      tag_252\n      jump\t// in\n    tag_337:\n        /* \"#utility.yul\":4396:4618   */\n      swap3\n      swap2\n      pop\n      pop\n      jump\t// out\n        /* \"#utility.yul\":4624:4720   */\n    tag_253:\n        /* \"#utility.yul\":4661:4668   */\n      0x00\n        /* \"#utility.yul\":4690:4714   */\n      tag_339\n        /* \"#utility.yul\":4708:4713   */\n      dup3\n        /* \"#utility.yul\":4690:4714   */\n      tag_240\n      jump\t// in\n    tag_339:\n        /* \"#utility.yul\":4679:4714   */\n      swap1\n      pop\n        /* \"#utility.yul\":4624:4720   */\n      swap2\n      swap1\n      pop\n      jump\t// out\n        /* \"#utility.yul\":4726:4848   */\n    tag_254:\n        /* \"#utility.yul\":4799:4823   */\n      tag_341\n        /* \"#utility.yul\":4817:4822   */\n      dup2\n        /* \"#utility.yul\":4799:4823   */\n      tag_253\n      jump\t// in\n    tag_341:\n        /* \"#utility.yul\":4792:4797   */\n      dup2\n        /* \"#utility.yul\":4789:4824   */\n      eq\n        /* \"#utility.yul\":4779:4842   */\n      tag_342\n      jumpi\n        /* \"#utility.yul\":4838:4839   */\n      0x00\n        /* \"#utility.yul\":4835:4836   */\n      dup1\n        /* \"#utility.yul\":4828:4840   */\n      revert\n        /* \"#utility.yul\":4779:4842   */\n    tag_342:\n        /* \"#utility.yul\":4726:4848   */\n      pop\n      jump\t// out\n        /* \"#utility.yul\":4854:4993   */\n    tag_255:\n        /* \"#utility.yul\":4900:4905   */\n      0x00\n        /* \"#utility.yul\":4938:4944   */\n      dup2\n        /* \"#utility.yul\":4925:4945   */\n      calldataload\n        /* \"#utility.yul\":4916:4945   */\n      swap1\n      pop\n        /* \"#utility.yul\":4954:4987   */\n      tag_344\n        /* \"#utility.yul\":4981:4986   */\n      dup2\n        /* \"#utility.yul\":4954:4987   */\n      tag_254\n      jump\t// in\n    tag_344:\n        /* \"#utility.yul\":4854:4993   */\n      swap3\n      swap2\n      pop\n      pop\n      jump\t// out\n        /* \"#utility.yul\":4999:5473   */\n    tag_55:\n        /* \"#utility.yul\":5067:5073   */\n      0x00\n        /* \"#utility.yul\":5075:5081   */\n      dup1\n        /* \"#utility.yul\":5124:5126   */\n      0x40\n        /* \"#utility.yul\":5112:5121   */\n      dup4\n        /* \"#utility.yul\":5103:5110   */\n      dup6\n        /* \"#utility.yul\":5099:5122   */\n      sub\n        /* \"#utility.yul\":5095:5127   */\n      slt\n        /* \"#utility.yul\":5092:5211   */\n      iszero\n      tag_346\n      jumpi\n        /* \"#utility.yul\":5130:5209   */\n      tag_347\n      tag_233\n      jump\t// in\n    tag_347:\n        /* \"#utility.yul\":5092:5211   */\n    tag_346:\n        /* \"#utility.yul\":5250:5251   */\n      0x00\n        /* \"#utility.yul\":5275:5328   */\n      tag_348\n        /* \"#utility.yul\":5320:5327   */\n      dup6\n        /* \"#utility.yul\":5311:5317   */\n      dup3\n        /* \"#utility.yul\":5300:5309   */\n      dup7\n        /* \"#utility.yul\":5296:5318   */\n      add\n        /* \"#utility.yul\":5275:5328   */\n      tag_250\n      jump\t// in\n    tag_348:\n        /* \"#utility.yul\":5265:5328   */\n      swap3\n      pop\n        /* \"#utility.yul\":5221:5338   */\n      pop\n        /* \"#utility.yul\":5377:5379   */\n      0x20\n        /* \"#utility.yul\":5403:5456   */\n      tag_349\n        /* \"#utility.yul\":5448:5455   */\n      dup6\n        /* \"#utility.yul\":5439:5445   */\n      dup3\n        /* \"#utility.yul\":5428:5437   */\n      dup7\n        /* \"#utility.yul\":5424:5446   */\n      add\n        /* \"#utility.yul\":5403:5456   */\n      tag_255\n      jump\t// in\n    tag_349:\n        /* \"#utility.yul\":5393:5456   */\n      swap2\n      pop\n        /* \"#utility.yul\":5348:5466   */\n      pop\n        /* \"#utility.yul\":4999:5473   */\n      swap3\n      pop\n      swap3\n      swap1\n      pop\n      jump\t// out\n        /* \"#utility.yul\":5479:5578   */\n    tag_256:\n        /* \"#utility.yul\":5531:5537   */\n      0x00\n        /* \"#utility.yul\":5565:5570   */\n      dup2\n        /* \"#utility.yul\":5559:5571   */\n      mload\n        /* \"#utility.yul\":5549:5571   */\n      swap1\n      pop\n        /* \"#utility.yul\":5479:5578   */\n      swap2\n      swap1\n      pop\n      jump\t// out\n        /* \"#utility.yul\":5584:5753   */\n    tag_257:\n        /* \"#utility.yul\":5668:5679   */\n      0x00\n        /* \"#utility.yul\":5702:5708   */\n      dup3\n        /* \"#utility.yul\":5697:5700   */\n      dup3\n        /* \"#utility.yul\":5690:5709   */\n      mstore\n        /* \"#utility.yul\":5742:5746   */\n      0x20\n        /* \"#utility.yul\":5737:5740   */\n      dup3\n        /* \"#utility.yul\":5733:5747   */\n      add\n        /* \"#utility.yul\":5718:5747   */\n      swap1\n      pop\n        /* \"#utility.yul\":5584:5753   */\n      swap3\n      swap2\n      pop\n      pop\n      jump\t// out\n        /* \"#utility.yul\":5759:6005   */\n    tag_258:\n        /* \"#utility.yul\":5840:5841   */\n      0x00\n        /* \"#utility.yul\":5850:5963   */\n    tag_353:\n        /* \"#utility.yul\":5864:5870   */\n      dup4\n        /* \"#utility.yul\":5861:5862   */\n      dup2\n        /* \"#utility.yul\":5858:5871   */\n      lt\n        /* \"#utility.yul\":5850:5963   */\n      iszero\n      tag_355\n      jumpi\n        /* \"#utility.yul\":5949:5950   */\n      dup1\n        /* \"#utility.yul\":5944:5947   */\n      dup3\n        /* \"#utility.yul\":5940:5951   */\n      add\n        /* \"#utility.yul\":5934:5952   */\n      mload\n        /* \"#utility.yul\":5930:5931   */\n      dup2\n        /* \"#utility.yul\":5925:5928   */\n      dup5\n        /* \"#utility.yul\":5921:5932   */\n      add\n        /* \"#utility.yul\":5914:5953   */\n      mstore\n        /* \"#utility.yul\":5886:5888   */\n      0x20\n        /* \"#utility.yul\":5883:5884   */\n      dup2\n        /* \"#utility.yul\":5879:5889   */\n      add\n        /* \"#utility.yul\":5874:5889   */\n      swap1\n      pop\n        /* \"#utility.yul\":5850:5963   */\n      jump(tag_353)\n    tag_355:\n        /* \"#utility.yul\":5997:5998   */\n      0x00\n        /* \"#utility.yul\":5988:5994   */\n      dup5\n        /* \"#utility.yul\":5983:5986   */\n      dup5\n        /* \"#utility.yul\":5979:5995   */\n      add\n        /* \"#utility.yul\":5972:5999   */\n      mstore\n        /* \"#utility.yul\":5821:6005   */\n      pop\n        /* \"#utility.yul\":5759:6005   */\n      pop\n      pop\n      pop\n      jump\t// out\n        /* \"#utility.yul\":6011:6113   */\n    tag_259:\n        /* \"#utility.yul\":6052:6058   */\n      0x00\n        /* \"#utility.yul\":6103:6105   */\n      0x1f\n        /* \"#utility.yul\":6099:6106   */\n      not\n        /* \"#utility.yul\":6094:6096   */\n      0x1f\n        /* \"#utility.yul\":6087:6092   */\n      dup4\n        /* \"#utility.yul\":6083:6097   */\n      add\n        /* \"#utility.yul\":6079:6107   */\n      and\n        /* \"#utility.yul\":6069:6107   */\n      swap1\n      pop\n        /* \"#utility.yul\":6011:6113   */\n      swap2\n      swap1\n      pop\n      jump\t// out\n        /* \"#utility.yul\":6119:6496   */\n    tag_260:\n        /* \"#utility.yul\":6207:6210   */\n      0x00\n        /* \"#utility.yul\":6235:6274   */\n      tag_358\n        /* \"#utility.yul\":6268:6273   */\n      dup3\n        /* \"#utility.yul\":6235:6274   */\n      tag_256\n      jump\t// in\n    tag_358:\n        /* \"#utility.yul\":6290:6361   */\n      tag_359\n        /* \"#utility.yul\":6354:6360   */\n      dup2\n        /* \"#utility.yul\":6349:6352   */\n      dup6\n        /* \"#utility.yul\":6290:6361   */\n      tag_257\n      jump\t// in\n    tag_359:\n        /* \"#utility.yul\":6283:6361   */\n      swap4\n      pop\n        /* \"#utility.yul\":6370:6435   */\n      tag_360\n        /* \"#utility.yul\":6428:6434   */\n      dup2\n        /* \"#utility.yul\":6423:6426   */\n      dup6\n        /* \"#utility.yul\":6416:6420   */\n      0x20\n        /* \"#utility.yul\":6409:6414   */\n      dup7\n        /* \"#utility.yul\":6405:6421   */\n      add\n        /* \"#utility.yul\":6370:6435   */\n      tag_258\n      jump\t// in\n    tag_360:\n        /* \"#utility.yul\":6460:6489   */\n      tag_361\n        /* \"#utility.yul\":6482:6488   */\n      dup2\n        /* \"#utility.yul\":6460:6489   */\n      tag_259\n      jump\t// in\n    tag_361:\n        /* \"#utility.yul\":6455:6458   */\n      dup5\n        /* \"#utility.yul\":6451:6490   */\n      add\n        /* \"#utility.yul\":6444:6490   */\n      swap2\n      pop\n        /* \"#utility.yul\":6211:6496   */\n      pop\n        /* \"#utility.yul\":6119:6496   */\n      swap3\n      swap2\n      pop\n      pop\n      jump\t// out\n        /* \"#utility.yul\":6502:6815   */\n    tag_63:\n        /* \"#utility.yul\":6615:6619   */\n      0x00\n        /* \"#utility.yul\":6653:6655   */\n      0x20\n        /* \"#utility.yul\":6642:6651   */\n      dup3\n        /* \"#utility.yul\":6638:6656   */\n      add\n        /* \"#utility.yul\":6630:6656   */\n      swap1\n      pop\n        /* \"#utility.yul\":6702:6711   */\n      dup2\n        /* \"#utility.yul\":6696:6700   */\n      dup2\n        /* \"#utility.yul\":6692:6712   */\n      sub\n        /* \"#utility.yul\":6688:6689   */\n      0x00\n        /* \"#utility.yul\":6677:6686   */\n      dup4\n        /* \"#utility.yul\":6673:6690   */\n      add\n        /* \"#utility.yul\":6666:6713   */\n      mstore\n        /* \"#utility.yul\":6730:6808   */\n      tag_363\n        /* \"#utility.yul\":6803:6807   */\n      dup2\n        /* \"#utility.yul\":6794:6800   */\n      dup5\n        /* \"#utility.yul\":6730:6808   */\n      tag_260\n      jump\t// in\n    tag_363:\n        /* \"#utility.yul\":6722:6808   */\n      swap1\n      pop\n        /* \"#utility.yul\":6502:6815   */\n      swap3\n      swap2\n      pop\n      pop\n      jump\t// out\n        /* \"#utility.yul\":6821:6981   */\n    tag_261:\n        /* \"#utility.yul\":6961:6973   */\n      0x4e6f7420636c69656e7400000000000000000000000000000000000000000000\n        /* \"#utility.yul\":6957:6958   */\n      0x00\n        /* \"#utility.yul\":6949:6955   */\n      dup3\n        /* \"#utility.yul\":6945:6959   */\n      add\n        /* \"#utility.yul\":6938:6974   */\n      mstore\n        /* \"#utility.yul\":6821:6981   */\n      pop\n      jump\t// out\n        /* \"#utility.yul\":6987:7353   */\n    tag_262:\n        /* \"#utility.yul\":7129:7132   */\n      0x00\n        /* \"#utility.yul\":7150:7217   */\n      tag_366\n        /* \"#utility.yul\":7214:7216   */\n      0x0a\n        /* \"#utility.yul\":7209:7212   */\n      dup4\n        /* \"#utility.yul\":7150:7217   */\n      tag_257\n      jump\t// in\n    tag_366:\n        /* \"#utility.yul\":7143:7217   */\n      swap2\n      pop\n        /* \"#utility.yul\":7226:7319   */\n      tag_367\n        /* \"#utility.yul\":7315:7318   */\n      dup3\n        /* \"#utility.yul\":7226:7319   */\n      tag_261\n      jump\t// in\n    tag_367:\n        /* \"#utility.yul\":7344:7346   */\n      0x20\n        /* \"#utility.yul\":7339:7342   */\n      dup3\n        /* \"#utility.yul\":7335:7347   */\n      add\n        /* \"#utility.yul\":7328:7347   */\n      swap1\n      pop\n        /* \"#utility.yul\":6987:7353   */\n      swap2\n      swap1\n      pop\n      jump\t// out\n        /* \"#utility.yul\":7359:7778   */\n    tag_95:\n        /* \"#utility.yul\":7525:7529   */\n      0x00\n        /* \"#utility.yul\":7563:7565   */\n      0x20\n        /* \"#utility.yul\":7552:7561   */\n      dup3\n        /* \"#utility.yul\":7548:7566   */\n      add\n        /* \"#utility.yul\":7540:7566   */\n      swap1\n      pop\n        /* \"#utility.yul\":7612:7621   */\n      dup2\n        /* \"#utility.yul\":7606:7610   */\n      dup2\n        /* \"#utility.yul\":7602:7622   */\n      sub\n        /* \"#utility.yul\":7598:7599   */\n      0x00\n        /* \"#utility.yul\":7587:7596   */\n      dup4\n        /* \"#utility.yul\":7583:7600   */\n      add\n        /* \"#utility.yul\":7576:7623   */\n      mstore\n        /* \"#utility.yul\":7640:7771   */\n      tag_369\n        /* \"#utility.yul\":7766:7770   */\n      dup2\n        /* \"#utility.yul\":7640:7771   */\n      tag_262\n      jump\t// in\n    tag_369:\n        /* \"#utility.yul\":7632:7771   */\n      swap1\n      pop\n        /* \"#utility.yul\":7359:7778   */\n      swap2\n      swap1\n      pop\n      jump\t// out\n        /* \"#utility.yul\":7784:7948   */\n    tag_263:\n        /* \"#utility.yul\":7924:7940   */\n      0x496e76616c696420737461747573000000000000000000000000000000000000\n        /* \"#utility.yul\":7920:7921   */\n      0x00\n        /* \"#utility.yul\":7912:7918   */\n      dup3\n        /* \"#utility.yul\":7908:7922   */\n      add\n        /* \"#utility.yul\":7901:7941   */\n      mstore\n        /* \"#utility.yul\":7784:7948   */\n      pop\n      jump\t// out\n        /* \"#utility.yul\":7954:8320   */\n    tag_264:\n        /* \"#utility.yul\":8096:8099   */\n      0x00\n        /* \"#utility.yul\":8117:8184   */\n      tag_372\n        /* \"#utility.yul\":8181:8183   */\n      0x0e\n        /* \"#utility.yul\":8176:8179   */\n      dup4\n        /* \"#utility.yul\":8117:8184   */\n      tag_257\n      jump\t// in\n    tag_372:\n        /* \"#utility.yul\":8110:8184   */\n      swap2\n      pop\n        /* \"#utility.yul\":8193:8286   */\n      tag_373\n        /* \"#utility.yul\":8282:8285   */\n      dup3\n        /* \"#utility.yul\":8193:8286   */\n      tag_263\n      jump\t// in\n    tag_373:\n        /* \"#utility.yul\":8311:8313   */\n      0x20\n        /* \"#utility.yul\":8306:8309   */\n      dup3\n        /* \"#utility.yul\":8302:8314   */\n      add\n        /* \"#utility.yul\":8295:8314   */\n      swap1\n      pop\n        /* \"#utility.yul\":7954:8320   */\n      swap2\n      swap1\n      pop\n      jump\t// out\n        /* \"#utility.yul\":8326:8745   */\n    tag_107:\n        /* \"#utility.yul\":8492:8496   */\n      0x00\n        /* \"#utility.yul\":8530:8532   */\n      0x20\n        /* \"#utility.yul\":8519:8528   */\n      dup3\n        /* \"#utility.yul\":8515:8533   */\n      add\n        /* \"#utility.yul\":8507:8533   */\n      swap1\n      pop\n        /* \"#utility.yul\":8579:8588   */\n      dup2\n        /* \"#utility.yul\":8573:8577   */\n      dup2\n        /* \"#utility.yul\":8569:8589   */\n      sub\n        /* \"#utility.yul\":8565:8566   */\n      0x00\n        /* \"#utility.yul\":8554:8563   */\n      dup4\n        /* \"#utility.yul\":8550:8567   */\n      add\n        /* \"#utility.yul\":8543:8590   */\n      mstore\n        /* \"#utility.yul\":8607:8738   */\n      tag_375\n        /* \"#utility.yul\":8733:8737   */\n      dup2\n        /* \"#utility.yul\":8607:8738   */\n      tag_264\n      jump\t// in\n    tag_375:\n        /* \"#utility.yul\":8599:8738   */\n      swap1\n      pop\n        /* \"#utility.yul\":8326:8745   */\n      swap2\n      swap1\n      pop\n      jump\t// out\n        /* \"#utility.yul\":8751:8920   */\n    tag_265:\n        /* \"#utility.yul\":8891:8912   */\n      0x446561646c696e65206e6f742070617373656400000000000000000000000000\n        /* \"#utility.yul\":8887:8888   */\n      0x00\n        /* \"#utility.yul\":8879:8885   */\n      dup3\n        /* \"#utility.yul\":8875:8889   */\n      add\n        /* \"#utility.yul\":8868:8913   */\n      mstore\n        /* \"#utility.yul\":8751:8920   */\n      pop\n      jump\t// out\n        /* \"#utility.yul\":8926:9292   */\n    tag_266:\n        /* \"#utility.yul\":9068:9071   */\n      0x00\n        /* \"#utility.yul\":9089:9156   */\n      tag_378\n        /* \"#utility.yul\":9153:9155   */\n      0x13\n        /* \"#utility.yul\":9148:9151   */\n      dup4\n        /* \"#utility.yul\":9089:9156   */\n      tag_257\n      jump\t// in\n    tag_378:\n        /* \"#utility.yul\":9082:9156   */\n      swap2\n      pop\n        /* \"#utility.yul\":9165:9258   */\n      tag_379\n        /* \"#utility.yul\":9254:9257   */\n      dup3\n        /* \"#utility.yul\":9165:9258   */\n      tag_265\n      jump\t// in\n    tag_379:\n        /* \"#utility.yul\":9283:9285   */\n      0x20\n        /* \"#utility.yul\":9278:9281   */\n      dup3\n        /* \"#utility.yul\":9274:9286   */\n      add\n        /* \"#utility.yul\":9267:9286   */\n      swap1\n      pop\n        /* \"#utility.yul\":8926:9292   */\n      swap2\n      swap1\n      pop\n      jump\t// out\n        /* \"#utility.yul\":9298:9717   */\n    tag_110:\n        /* \"#utility.yul\":9464:9468   */\n      0x00\n        /* \"#utility.yul\":9502:9504   */\n      0x20\n        /* \"#utility.yul\":9491:9500   */\n      dup3\n        /* \"#utility.yul\":9487:9505   */\n      add\n        /* \"#utility.yul\":9479:9505   */\n      swap1\n      pop\n        /* \"#utility.yul\":9551:9560   */\n      dup2\n        /* \"#utility.yul\":9545:9549   */\n      dup2\n        /* \"#utility.yul\":9541:9561   */\n      sub\n        /* \"#utility.yul\":9537:9538   */\n      0x00\n        /* \"#utility.yul\":9526:9535   */\n      dup4\n        /* \"#utility.yul\":9522:9539   */\n      add\n        /* \"#utility.yul\":9515:9562   */\n      mstore\n        /* \"#utility.yul\":9579:9710   */\n      tag_381\n        /* \"#utility.yul\":9705:9709   */\n      dup2\n        /* \"#utility.yul\":9579:9710   */\n      tag_266\n      jump\t// in\n    tag_381:\n        /* \"#utility.yul\":9571:9710   */\n      swap1\n      pop\n        /* \"#utility.yul\":9298:9717   */\n      swap2\n      swap1\n      pop\n      jump\t// out\n        /* \"#utility.yul\":9723:9870   */\n    tag_267:\n        /* \"#utility.yul\":9824:9835   */\n      0x00\n        /* \"#utility.yul\":9861:9864   */\n      dup2\n        /* \"#utility.yul\":9846:9864   */\n      swap1\n      pop\n        /* \"#utility.yul\":9723:9870   */\n      swap3\n      swap2\n      pop\n      pop\n      jump\t// out\n        /* \"#utility.yul\":9876:9990   */\n    tag_268:\n      pop\n      jump\t// out\n        /* \"#utility.yul\":9996:10394   */\n    tag_269:\n        /* \"#utility.yul\":10155:10158   */\n      0x00\n        /* \"#utility.yul\":10176:10259   */\n      tag_385\n        /* \"#utility.yul\":10257:10258   */\n      0x00\n        /* \"#utility.yul\":10252:10255   */\n      dup4\n        /* \"#utility.yul\":10176:10259   */\n      tag_267\n      jump\t// in\n    tag_385:\n        /* \"#utility.yul\":10169:10259   */\n      swap2\n      pop\n        /* \"#utility.yul\":10268:10361   */\n      tag_386\n        /* \"#utility.yul\":10357:10360   */\n      dup3\n        /* \"#utility.yul\":10268:10361   */\n      tag_268\n      jump\t// in\n    tag_386:\n        /* \"#utility.yul\":10386:10387   */\n      0x00\n        /* \"#utility.yul\":10381:10384   */\n      dup3\n        /* \"#utility.yul\":10377:10388   */\n      add\n        /* \"#utility.yul\":10370:10388   */\n      swap1\n      pop\n        /* \"#utility.yul\":9996:10394   */\n      swap2\n      swap1\n      pop\n      jump\t// out\n        /* \"#utility.yul\":10400:10779   */\n    tag_114:\n        /* \"#utility.yul\":10584:10587   */\n      0x00\n        /* \"#utility.yul\":10606:10753   */\n      tag_388\n        /* \"#utility.yul\":10749:10752   */\n      dup3\n        /* \"#utility.yul\":10606:10753   */\n      tag_269\n      jump\t// in\n    tag_388:\n        /* \"#utility.yul\":10599:10753   */\n      swap2\n      pop\n        /* \"#utility.yul\":10770:10773   */\n      dup2\n        /* \"#utility.yul\":10763:10773   */\n      swap1\n      pop\n        /* \"#utility.yul\":10400:10779   */\n      swap2\n      swap1\n      pop\n      jump\t// out\n        /* \"#utility.yul\":10785:10948   */\n    tag_270:\n        /* \"#utility.yul\":10925:10940   */\n      0x526566756e64206661696c656400000000000000000000000000000000000000\n        /* \"#utility.yul\":10921:10922   */\n      0x00\n        /* \"#utility.yul\":10913:10919   */\n      dup3\n        /* \"#utility.yul\":10909:10923   */\n      add\n        /* \"#utility.yul\":10902:10941   */\n      mstore\n        /* \"#utility.yul\":10785:10948   */\n      pop\n      jump\t// out\n        /* \"#utility.yul\":10954:11320   */\n    tag_271:\n        /* \"#utility.yul\":11096:11099   */\n      0x00\n        /* \"#utility.yul\":11117:11184   */\n      tag_391\n        /* \"#utility.yul\":11181:11183   */\n      0x0d\n        /* \"#utility.yul\":11176:11179   */\n      dup4\n        /* \"#utility.yul\":11117:11184   */\n      tag_257\n      jump\t// in\n    tag_391:\n        /* \"#utility.yul\":11110:11184   */\n      swap2\n      pop\n        /* \"#utility.yul\":11193:11286   */\n      tag_392\n        /* \"#utility.yul\":11282:11285   */\n      dup3\n        /* \"#utility.yul\":11193:11286   */\n      tag_270\n      jump\t// in\n    tag_392:\n        /* \"#utility.yul\":11311:11313   */\n      0x20\n        /* \"#utility.yul\":11306:11309   */\n      dup3\n        /* \"#utility.yul\":11302:11314   */\n      add\n        /* \"#utility.yul\":11295:11314   */\n      swap1\n      pop\n        /* \"#utility.yul\":10954:11320   */\n      swap2\n      swap1\n      pop\n      jump\t// out\n        /* \"#utility.yul\":11326:11745   */\n    tag_120:\n        /* \"#utility.yul\":11492:11496   */\n      0x00\n        /* \"#utility.yul\":11530:11532   */\n      0x20\n        /* \"#utility.yul\":11519:11528   */\n      dup3\n        /* \"#utility.yul\":11515:11533   */\n      add\n        /* \"#utility.yul\":11507:11533   */\n      swap1\n      pop\n        /* \"#utility.yul\":11579:11588   */\n      dup2\n        /* \"#utility.yul\":11573:11577   */\n      dup2\n        /* \"#utility.yul\":11569:11589   */\n      sub\n        /* \"#utility.yul\":11565:11566   */\n      0x00\n        /* \"#utility.yul\":11554:11563   */\n      dup4\n        /* \"#utility.yul\":11550:11567   */\n      add\n        /* \"#utility.yul\":11543:11590   */\n      mstore\n        /* \"#utility.yul\":11607:11738   */\n      tag_394\n        /* \"#utility.yul\":11733:11737   */\n      dup2\n        /* \"#utility.yul\":11607:11738   */\n      tag_271\n      jump\t// in\n    tag_394:\n        /* \"#utility.yul\":11599:11738   */\n      swap1\n      pop\n        /* \"#utility.yul\":11326:11745   */\n      swap2\n      swap1\n      pop\n      jump\t// out\n        /* \"#utility.yul\":11751:11919   */\n    tag_272:\n        /* \"#utility.yul\":11891:11911   */\n      0x43616e6e6f742064697370757465206e6f770000000000000000000000000000\n        /* \"#utility.yul\":11887:11888   */\n      0x00\n        /* \"#utility.yul\":11879:11885   */\n      dup3\n        /* \"#utility.yul\":11875:11889   */\n      add\n        /* \"#utility.yul\":11868:11912   */\n      mstore\n        /* \"#utility.yul\":11751:11919   */\n      pop\n      jump\t// out\n        /* \"#utility.yul\":11925:12291   */\n    tag_273:\n        /* \"#utility.yul\":12067:12070   */\n      0x00\n        /* \"#utility.yul\":12088:12155   */\n      tag_397\n        /* \"#utility.yul\":12152:12154   */\n      0x12\n        /* \"#utility.yul\":12147:12150   */\n      dup4\n        /* \"#utility.yul\":12088:12155   */\n      tag_257\n      jump\t// in\n    tag_397:\n        /* \"#utility.yul\":12081:12155   */\n      swap2\n      pop\n        /* \"#utility.yul\":12164:12257   */\n      tag_398\n        /* \"#utility.yul\":12253:12256   */\n      dup3\n        /* \"#utility.yul\":12164:12257   */\n      tag_272\n      jump\t// in\n    tag_398:\n        /* \"#utility.yul\":12282:12284   */\n      0x20\n        /* \"#utility.yul\":12277:12280   */\n      dup3\n        /* \"#utility.yul\":12273:12285   */\n      add\n        /* \"#utility.yul\":12266:12285   */\n      swap1\n      pop\n        /* \"#utility.yul\":11925:12291   */\n      swap2\n      swap1\n      pop\n      jump\t// out\n        /* \"#utility.yul\":12297:12716   */\n    tag_170:\n        /* \"#utility.yul\":12463:12467   */\n      0x00\n        /* \"#utility.yul\":12501:12503   */\n      0x20\n        /* \"#utility.yul\":12490:12499   */\n      dup3\n        /* \"#utility.yul\":12486:12504   */\n      add\n        /* \"#utility.yul\":12478:12504   */\n      swap1\n      pop\n        /* \"#utility.yul\":12550:12559   */\n      dup2\n        /* \"#utility.yul\":12544:12548   */\n      dup2\n        /* \"#utility.yul\":12540:12560   */\n      sub\n        /* \"#utility.yul\":12536:12537   */\n      0x00\n        /* \"#utility.yul\":12525:12534   */\n      dup4\n        /* \"#utility.yul\":12521:12538   */\n      add\n        /* \"#utility.yul\":12514:12561   */\n      mstore\n        /* \"#utility.yul\":12578:12709   */\n      tag_400\n        /* \"#utility.yul\":12704:12708   */\n      dup2\n        /* \"#utility.yul\":12578:12709   */\n      tag_273\n      jump\t// in\n    tag_400:\n        /* \"#utility.yul\":12570:12709   */\n      swap1\n      pop\n        /* \"#utility.yul\":12297:12716   */\n      swap2\n      swap1\n      pop\n      jump\t// out\n        /* \"#utility.yul\":12722:12885   */\n    tag_274:\n        /* \"#utility.yul\":12862:12877   */\n      0x5061737420646561646c696e6500000000000000000000000000000000000000\n        /* \"#utility.yul\":12858:12859   */\n      0x00\n        /* \"#utility.yul\":12850:12856   */\n      dup3\n        /* \"#utility.yul\":12846:12860   */\n      add\n        /* \"#utility.yul\":12839:12878   */\n      mstore\n        /* \"#utility.yul\":12722:12885   */\n      pop\n      jump\t// out\n        /* \"#utility.yul\":12891:13257   */\n    tag_275:\n        /* \"#utility.yul\":13033:13036   */\n      0x00\n        /* \"#utility.yul\":13054:13121   */\n      tag_403\n        /* \"#utility.yul\":13118:13120   */\n      0x0d\n        /* \"#utility.yul\":13113:13116   */\n      dup4\n        /* \"#utility.yul\":13054:13121   */\n      tag_257\n      jump\t// in\n    tag_403:\n        /* \"#utility.yul\":13047:13121   */\n      swap2\n      pop\n        /* \"#utility.yul\":13130:13223   */\n      tag_404\n        /* \"#utility.yul\":13219:13222   */\n      dup3\n        /* \"#utility.yul\":13130:13223   */\n      tag_274\n      jump\t// in\n    tag_404:\n        /* \"#utility.yul\":13248:13250   */\n      0x20\n        /* \"#utility.yul\":13243:13246   */\n      dup3\n        /* \"#utility.yul\":13239:13251   */\n      add\n        /* \"#utility.yul\":13232:13251   */\n      swap1\n      pop\n        /* \"#utility.yul\":12891:13257   */\n      swap2\n      swap1\n      pop\n      jump\t// out\n        /* \"#utility.yul\":13263:13682   */\n    tag_189:\n        /* \"#utility.yul\":13429:13433   */\n      0x00\n        /* \"#utility.yul\":13467:13469   */\n      0x20\n        /* \"#utility.yul\":13456:13465   */\n      dup3\n        /* \"#utility.yul\":13452:13470   */\n      add\n        /* \"#utility.yul\":13444:13470   */\n      swap1\n      pop\n        /* \"#utility.yul\":13516:13525   */\n      dup2\n        /* \"#utility.yul\":13510:13514   */\n      dup2\n        /* \"#utility.yul\":13506:13526   */\n      sub\n        /* \"#utility.yul\":13502:13503   */\n      0x00\n        /* \"#utility.yul\":13491:13500   */\n      dup4\n        /* \"#utility.yul\":13487:13504   */\n      add\n        /* \"#utility.yul\":13480:13527   */\n      mstore\n        /* \"#utility.yul\":13544:13675   */\n      tag_406\n        /* \"#utility.yul\":13670:13674   */\n      dup2\n        /* \"#utility.yul\":13544:13675   */\n      tag_275\n      jump\t// in\n    tag_406:\n        /* \"#utility.yul\":13536:13675   */\n      swap1\n      pop\n        /* \"#utility.yul\":13263:13682   */\n      swap2\n      swap1\n      pop\n      jump\t// out\n        /* \"#utility.yul\":13688:13852   */\n    tag_276:\n        /* \"#utility.yul\":13828:13844   */\n      0x5061796d656e74206661696c6564000000000000000000000000000000000000\n        /* \"#utility.yul\":13824:13825   */\n      0x00\n        /* \"#utility.yul\":13816:13822   */\n      dup3\n        /* \"#utility.yul\":13812:13826   */\n      add\n        /* \"#utility.yul\":13805:13845   */\n      mstore\n        /* \"#utility.yul\":13688:13852   */\n      pop\n      jump\t// out\n        /* \"#utility.yul\":13858:14224   */\n    tag_277:\n        /* \"#utility.yul\":14000:14003   */\n      0x00\n        /* \"#utility.yul\":14021:14088   */\n      tag_409\n        /* \"#utility.yul\":14085:14087   */\n      0x0e\n        /* \"#utility.yul\":14080:14083   */\n      dup4\n        /* \"#utility.yul\":14021:14088   */\n      tag_257\n      jump\t// in\n    tag_409:\n        /* \"#utility.yul\":14014:14088   */\n      swap2\n      pop\n        /* \"#utility.yul\":14097:14190   */\n      tag_410\n        /* \"#utility.yul\":14186:14189   */\n      dup3\n        /* \"#utility.yul\":14097:14190   */\n      tag_276\n      jump\t// in\n    tag_410:\n        /* \"#utility.yul\":14215:14217   */\n      0x20\n        /* \"#utility.yul\":14210:14213   */\n      dup3\n        /* \"#utility.yul\":14206:14218   */\n      add\n        /* \"#utility.yul\":14199:14218   */\n      swap1\n      pop\n        /* \"#utility.yul\":13858:14224   */\n      swap2\n      swap1\n      pop\n      jump\t// out\n        /* \"#utility.yul\":14230:14649   */\n    tag_198:\n        /* \"#utility.yul\":14396:14400   */\n      0x00\n        /* \"#utility.yul\":14434:14436   */\n      0x20\n        /* \"#utility.yul\":14423:14432   */\n      dup3\n        /* \"#utility.yul\":14419:14437   */\n      add\n        /* \"#utility.yul\":14411:14437   */\n      swap1\n      pop\n        /* \"#utility.yul\":14483:14492   */\n      dup2\n        /* \"#utility.yul\":14477:14481   */\n      dup2\n        /* \"#utility.yul\":14473:14493   */\n      sub\n        /* \"#utility.yul\":14469:14470   */\n      0x00\n        /* \"#utility.yul\":14458:14467   */\n      dup4\n        /* \"#utility.yul\":14454:14471   */\n      add\n        /* \"#utility.yul\":14447:14494   */\n      mstore\n        /* \"#utility.yul\":14511:14642   */\n      tag_412\n        /* \"#utility.yul\":14637:14641   */\n      dup2\n        /* \"#utility.yul\":14511:14642   */\n      tag_277\n      jump\t// in\n    tag_412:\n        /* \"#utility.yul\":14503:14642   */\n      swap1\n      pop\n        /* \"#utility.yul\":14230:14649   */\n      swap2\n      swap1\n      pop\n      jump\t// out\n        /* \"#utility.yul\":14655:14836   */\n    tag_278:\n        /* \"#utility.yul\":14795:14828   */\n      0x5265656e7472616e637947756172643a207265656e7472616e742063616c6c00\n        /* \"#utility.yul\":14791:14792   */\n      0x00\n        /* \"#utility.yul\":14783:14789   */\n      dup3\n        /* \"#utility.yul\":14779:14793   */\n      add\n        /* \"#utility.yul\":14772:14829   */\n      mstore\n        /* \"#utility.yul\":14655:14836   */\n      pop\n      jump\t// out\n        /* \"#utility.yul\":14842:15208   */\n    tag_279:\n        /* \"#utility.yul\":14984:14987   */\n      0x00\n        /* \"#utility.yul\":15005:15072   */\n      tag_415\n        /* \"#utility.yul\":15069:15071   */\n      0x1f\n        /* \"#utility.yul\":15064:15067   */\n      dup4\n        /* \"#utility.yul\":15005:15072   */\n      tag_257\n      jump\t// in\n    tag_415:\n        /* \"#utility.yul\":14998:15072   */\n      swap2\n      pop\n        /* \"#utility.yul\":15081:15174   */\n      tag_416\n        /* \"#utility.yul\":15170:15173   */\n      dup3\n        /* \"#utility.yul\":15081:15174   */\n      tag_278\n      jump\t// in\n    tag_416:\n        /* \"#utility.yul\":15199:15201   */\n      0x20\n        /* \"#utility.yul\":15194:15197   */\n      dup3\n        /* \"#utility.yul\":15190:15202   */\n      add\n        /* \"#utility.yul\":15183:15202   */\n      swap1\n      pop\n        /* \"#utility.yul\":14842:15208   */\n      swap2\n      swap1\n      pop\n      jump\t// out\n        /* \"#utility.yul\":15214:15633   */\n    tag_210:\n        /* \"#utility.yul\":15380:15384   */\n      0x00\n        /* \"#utility.yul\":15418:15420   */\n      0x20\n        /* \"#utility.yul\":15407:15416   */\n      dup3\n        /* \"#utility.yul\":15403:15421   */\n      add\n        /* \"#utility.yul\":15395:15421   */\n      swap1\n      pop\n        /* \"#utility.yul\":15467:15476   */\n      dup2\n        /* \"#utility.yul\":15461:15465   */\n      dup2\n        /* \"#utility.yul\":15457:15477   */\n      sub\n        /* \"#utility.yul\":15453:15454   */\n      0x00\n        /* \"#utility.yul\":15442:15451   */\n      dup4\n        /* \"#utility.yul\":15438:15455   */\n      add\n        /* \"#utility.yul\":15431:15478   */\n      mstore\n        /* \"#utility.yul\":15495:15626   */\n      tag_418\n        /* \"#utility.yul\":15621:15625   */\n      dup2\n        /* \"#utility.yul\":15495:15626   */\n      tag_279\n      jump\t// in\n    tag_418:\n        /* \"#utility.yul\":15487:15626   */\n      swap1\n      pop\n        /* \"#utility.yul\":15214:15633   */\n      swap2\n      swap1\n      pop\n      jump\t// out\n        /* \"#utility.yul\":15639:15757   */\n    tag_280:\n        /* \"#utility.yul\":15726:15750   */\n      tag_420\n        /* \"#utility.yul\":15744:15749   */\n      dup2\n        /* \"#utility.yul\":15726:15750   */\n      tag_253\n      jump\t// in\n    tag_420:\n        /* \"#utility.yul\":15721:15724   */\n      dup3\n        /* \"#utility.yul\":15714:15751   */\n      mstore\n        /* \"#utility.yul\":15639:15757   */\n      pop\n      pop\n      jump\t// out\n        /* \"#utility.yul\":15763:16095   */\n    tag_231:\n        /* \"#utility.yul\":15884:15888   */\n      0x00\n        /* \"#utility.yul\":15922:15924   */\n      0x40\n        /* \"#utility.yul\":15911:15920   */\n      dup3\n        /* \"#utility.yul\":15907:15925   */\n      add\n        /* \"#utility.yul\":15899:15925   */\n      swap1\n      pop\n        /* \"#utility.yul\":15935:16006   */\n      tag_422\n        /* \"#utility.yul\":16003:16004   */\n      0x00\n        /* \"#utility.yul\":15992:16001   */\n      dup4\n        /* \"#utility.yul\":15988:16005   */\n      add\n        /* \"#utility.yul\":15979:15985   */\n      dup6\n        /* \"#utility.yul\":15935:16006   */\n      tag_280\n      jump\t// in\n    tag_422:\n        /* \"#utility.yul\":16016:16088   */\n      tag_423\n        /* \"#utility.yul\":16084:16086   */\n      0x20\n        /* \"#utility.yul\":16073:16082   */\n      dup4\n        /* \"#utility.yul\":16069:16087   */\n      add\n        /* \"#utility.yul\":16060:16066   */\n      dup5\n        /* \"#utility.yul\":16016:16088   */\n      tag_248\n      jump\t// in\n    tag_423:\n        /* \"#utility.yul\":15763:16095   */\n      swap4\n      swap3\n      pop\n      pop\n      pop\n      jump\t// out\n\n    auxdata: 0xa264697066735822122073970832c9cf151066601906001d462b7bc79092bc1d6ea19f75221d0cacee4c64736f6c63430008140033\n}\n",
				"bytecode": {
					"linkReferences": {},
					"object": "608060405260405162001da938038062001da98339818101604052810190620000299190620003c2565b600180819055505f341162000075576040517f08c379a00000000000000000000000000000000000000000000000000000000081526004016200006c9062000479565b60405180910390fd5b620000895f801b33620001c060201b60201c565b50620000bc7fa5ff3ec7a96cdbba4d2d5172d66bbc73c6db3885f29b21be5da9fa7a7c02523284620001c060201b60201c565b50620000ef7fcab5a0bfe0b79d2c4b1c2e02599fa044d115b7511f9659307cb427695096770983620001c060201b60201c565b508260035f6101000a81548173ffffffffffffffffffffffffffffffffffffffff021916908373ffffffffffffffffffffffffffffffffffffffff1602179055508160025f6101000a81548173ffffffffffffffffffffffffffffffffffffffff021916908373ffffffffffffffffffffffffffffffffffffffff16021790555080426200017e9190620004c6565b600481905550346005819055505f60065f6101000a81548160ff02191690836003811115620001b257620001b162000500565b5b02179055505050506200052d565b5f620001d38383620002bb60201b60201c565b620002b15760015f808581526020019081526020015f205f015f8473ffffffffffffffffffffffffffffffffffffffff1673ffffffffffffffffffffffffffffffffffffffff1681526020019081526020015f205f6101000a81548160ff0219169083151502179055506200024d6200031e60201b60201c565b73ffffffffffffffffffffffffffffffffffffffff168273ffffffffffffffffffffffffffffffffffffffff16847f2f8788117e7eff1d82e926ec794901d17c78024a50270940304540a733656f0d60405160405180910390a460019050620002b5565b5f90505b92915050565b5f805f8481526020019081526020015f205f015f8373ffffffffffffffffffffffffffffffffffffffff1673ffffffffffffffffffffffffffffffffffffffff1681526020019081526020015f205f9054906101000a900460ff16905092915050565b5f33905090565b5f80fd5b5f73ffffffffffffffffffffffffffffffffffffffff82169050919050565b5f620003548262000329565b9050919050565b620003668162000348565b811462000371575f80fd5b50565b5f8151905062000384816200035b565b92915050565b5f819050919050565b6200039e816200038a565b8114620003a9575f80fd5b50565b5f81519050620003bc8162000393565b92915050565b5f805f60608486031215620003dc57620003db62000325565b5b5f620003eb8682870162000374565b9350506020620003fe8682870162000374565b92505060406200041186828701620003ac565b9150509250925092565b5f82825260208201905092915050565b7f457363726f77206d7573742062652066756e64656400000000000000000000005f82015250565b5f620004616015836200041b565b91506200046e826200042b565b602082019050919050565b5f6020820190508181035f830152620004928162000453565b9050919050565b7f4e487b71000000000000000000000000000000000000000000000000000000005f52601160045260245ffd5b5f620004d2826200038a565b9150620004df836200038a565b9250828201905080821115620004fa57620004f962000499565b5b92915050565b7f4e487b71000000000000000000000000000000000000000000000000000000005f52602160045260245ffd5b61186e806200053b5f395ff3fe608060405234801561000f575f80fd5b5060043610610114575f3560e01c80634e69d560116100a0578063a217fddf1161006f578063a217fddf14610294578063aa8c217c146102b2578063d547741f146102d0578063eae6f652146102ec578063f5ff5c761461030a57610114565b80634e69d560146102325780636daa2d441461025057806391d148541461025a578063a06aa1ab1461028a57610114565b806322459e18116100e757806322459e181461018e578063248a9ca3146101ac57806329dcb0cf146101dc5780632f2ff15d146101fa57806336568abe1461021657610114565b806301ffc9a714610118578063109e94cf146101485780632009dc6514610166578063200d2ed214610170575b5f80fd5b610132600480360381019061012d9190611165565b610328565b60405161013f91906111aa565b60405180910390f35b6101506103a1565b60405161015d9190611202565b60405180910390f35b61016e6103c6565b005b610178610660565b604051610185919061128e565b60405180910390f35b610196610672565b6040516101a391906112bf565b60405180910390f35b6101c660048036038101906101c19190611302565b610696565b6040516101d391906112bf565b60405180910390f35b6101e46106b2565b6040516101f19190611345565b60405180910390f35b610214600480360381019061020f9190611399565b6106b8565b005b610230600480360381019061022b9190611399565b6106da565b005b61023a610755565b6040516102479190611461565b60405180910390f35b61025861096d565b005b610274600480360381019061026f9190611399565b610ab9565b60405161028191906111aa565b60405180910390f35b610292610b1c565b005b61029c610d96565b6040516102a991906112bf565b60405180910390f35b6102ba610d9c565b6040516102c79190611345565b60405180910390f35b6102ea60048036038101906102e59190611399565b610da2565b005b6102f4610dc4565b60405161030191906112bf565b60405180910390f35b610312610de8565b60405161031f9190611202565b60405180910390f35b5f7f7965db0b000000000000000000000000000000000000000000000000000000007bffffffffffffffffffffffffffffffffffffffffffffffffffffffff1916827bffffffffffffffffffffffffffffffffffffffffffffffffffffffff1916148061039a575061039982610e0d565b5b9050919050565b60035f9054906101000a900473ffffffffffffffffffffffffffffffffffffffff1681565b6103f07fa5ff3ec7a96cdbba4d2d5172d66bbc73c6db3885f29b21be5da9fa7a7c02523233610ab9565b61042f576040517f08c379a0000000000000000000000000000000000000000000000000000000008152600401610426906114cb565b60405180910390fd5b610437610e76565b5f600381111561044a5761044961121b565b5b60065f9054906101000a900460ff16600381111561046b5761046a61121b565b5b146104ab576040517f08c379a00000000000000000000000000000000000000000000000000000000081526004016104a290611533565b60405180910390fd5b60045442116104ef576040517f08c379a00000000000000000000000000000000000000000000000000000000081526004016104e69061159b565b60405180910390fd5b600260065f6101000a81548160ff021916908360038111156105145761051361121b565b5b02179055505f60035f9054906101000a900473ffffffffffffffffffffffffffffffffffffffff1673ffffffffffffffffffffffffffffffffffffffff16600554604051610561906115e6565b5f6040518083038185875af1925050503d805f811461059b576040519150601f19603f3d011682016040523d82523d5f602084013e6105a0565b606091505b50509050806105e4576040517f08c379a00000000000000000000000000000000000000000000000000000000081526004016105db90611644565b60405180910390fd5b60035f9054906101000a900473ffffffffffffffffffffffffffffffffffffffff1673ffffffffffffffffffffffffffffffffffffffff167fd7dee2702d63ad89917b6a4da9981c90c4d24f8c2bdfd64c604ecae57d8d065160055460405161064d9190611345565b60405180910390a25061065e610ec5565b565b60065f9054906101000a900460ff1681565b7fcab5a0bfe0b79d2c4b1c2e02599fa044d115b7511f9659307cb427695096770981565b5f805f8381526020019081526020015f20600101549050919050565b60045481565b6106c182610696565b6106ca81610ece565b6106d48383610ee2565b50505050565b6106e2610fcb565b73ffffffffffffffffffffffffffffffffffffffff168173ffffffffffffffffffffffffffffffffffffffff1614610746576040517f6697b23200000000000000000000000000000000000000000000000000000000815260040160405180910390fd5b6107508282610fd2565b505050565b60605f600381111561076a5761076961121b565b5b60065f9054906101000a900460ff16600381111561078b5761078a61121b565b5b036107cd576040518060400160405280600681526020017f4163746976650000000000000000000000000000000000000000000000000000815250905061096a565b600160038111156107e1576107e061121b565b5b60065f9054906101000a900460ff1660038111156108025761080161121b565b5b03610844576040518060400160405280600981526020017f436f6d706c657465640000000000000000000000000000000000000000000000815250905061096a565b600260038111156108585761085761121b565b5b60065f9054906101000a900460ff1660038111156108795761087861121b565b5b036108bb576040518060400160405280600881526020017f526566756e646564000000000000000000000000000000000000000000000000815250905061096a565b6003808111156108ce576108cd61121b565b5b60065f9054906101000a900460ff1660038111156108ef576108ee61121b565b5b03610931576040518060400160405280600881526020017f4469737075746564000000000000000000000000000000000000000000000000815250905061096a565b6040518060400160405280600781526020017f556e6b6e6f776e0000000000000000000000000000000000000000000000000081525090505b90565b6109977fa5ff3ec7a96cdbba4d2d5172d66bbc73c6db3885f29b21be5da9fa7a7c02523233610ab9565b6109d6576040517f08c379a00000000000000000000000000000000000000000000000000000000081526004016109cd906114cb565b60405180910390fd5b5f60038111156109e9576109e861121b565b5b60065f9054906101000a900460ff166003811115610a0a57610a0961121b565b5b14610a4a576040517f08c379a0000000000000000000000000000000000000000000000000000000008152600401610a41906116ac565b60405180910390fd5b600360065f6101000a81548160ff02191690836003811115610a6f57610a6e61121b565b5b02179055503373ffffffffffffffffffffffffffffffffffffffff167f0b3cd97b16a08a5c77357c276d248827ad32dfd56060f7c55d6255537ba3d96260405160405180910390a2565b5f805f8481526020019081526020015f205f015f8373ffffffffffffffffffffffffffffffffffffffff1673ffffffffffffffffffffffffffffffffffffffff1681526020019081526020015f205f9054906101000a900460ff16905092915050565b610b467fa5ff3ec7a96cdbba4d2d5172d66bbc73c6db3885f29b21be5da9fa7a7c02523233610ab9565b610b85576040517f08c379a0000000000000000000000000000000000000000000000000000000008152600401610b7c906114cb565b60405180910390fd5b610b8d610e76565b5f6003811115610ba057610b9f61121b565b5b60065f9054906101000a900460ff166003811115610bc157610bc061121b565b5b14610c01576040517f08c379a0000000000000000000000000000000000000000000000000000000008152600401610bf890611533565b60405180910390fd5b600454421115610c46576040517f08c379a0000000000000000000000000000000000000000000000000000000008152600401610c3d90611714565b60405180910390fd5b600160065f6101000a81548160ff02191690836003811115610c6b57610c6a61121b565b5b02179055505f60025f9054906101000a900473ffffffffffffffffffffffffffffffffffffffff1673ffffffffffffffffffffffffffffffffffffffff16600554604051610cb8906115e6565b5f6040518083038185875af1925050503d805f8114610cf2576040519150601f19603f3d011682016040523d82523d5f602084013e610cf7565b606091505b5050905080610d3b576040517f08c379a0000000000000000000000000000000000000000000000000000000008152600401610d329061177c565b60405180910390fd5b3373ffffffffffffffffffffffffffffffffffffffff167fe7e1c58de787e99204e575cf23080c95315f2f0008084ac1f62e766b79689ae5600554604051610d839190611345565b60405180910390a250610d94610ec5565b565b5f801b81565b60055481565b610dab82610696565b610db481610ece565b610dbe8383610fd2565b50505050565b7fa5ff3ec7a96cdbba4d2d5172d66bbc73c6db3885f29b21be5da9fa7a7c02523281565b60025f9054906101000a900473ffffffffffffffffffffffffffffffffffffffff1681565b5f7f01ffc9a7000000000000000000000000000000000000000000000000000000007bffffffffffffffffffffffffffffffffffffffffffffffffffffffff1916827bffffffffffffffffffffffffffffffffffffffffffffffffffffffff1916149050919050565b600260015403610ebb576040517f08c379a0000000000000000000000000000000000000000000000000000000008152600401610eb2906117e4565b60405180910390fd5b6002600181905550565b60018081905550565b610edf81610eda610fcb565b6110bb565b50565b5f610eed8383610ab9565b610fc15760015f808581526020019081526020015f205f015f8473ffffffffffffffffffffffffffffffffffffffff1673ffffffffffffffffffffffffffffffffffffffff1681526020019081526020015f205f6101000a81548160ff021916908315150217905550610f5e610fcb565b73ffffffffffffffffffffffffffffffffffffffff168273ffffffffffffffffffffffffffffffffffffffff16847f2f8788117e7eff1d82e926ec794901d17c78024a50270940304540a733656f0d60405160405180910390a460019050610fc5565b5f90505b92915050565b5f33905090565b5f610fdd8383610ab9565b156110b1575f805f8581526020019081526020015f205f015f8473ffffffffffffffffffffffffffffffffffffffff1673ffffffffffffffffffffffffffffffffffffffff1681526020019081526020015f205f6101000a81548160ff02191690831515021790555061104e610fcb565b73ffffffffffffffffffffffffffffffffffffffff168273ffffffffffffffffffffffffffffffffffffffff16847ff6391f5c32d9c69d2a47ea670b442974b53935d1edc7fd64eb21e047a839171b60405160405180910390a4600190506110b5565b5f90505b92915050565b6110c58282610ab9565b6111085780826040517fe2517d3f0000000000000000000000000000000000000000000000000000000081526004016110ff929190611811565b60405180910390fd5b5050565b5f80fd5b5f7fffffffff0000000000000000000000000000000000000000000000000000000082169050919050565b61114481611110565b811461114e575f80fd5b50565b5f8135905061115f8161113b565b92915050565b5f6020828403121561117a5761117961110c565b5b5f61118784828501611151565b91505092915050565b5f8115159050919050565b6111a481611190565b82525050565b5f6020820190506111bd5f83018461119b565b92915050565b5f73ffffffffffffffffffffffffffffffffffffffff82169050919050565b5f6111ec826111c3565b9050919050565b6111fc816111e2565b82525050565b5f6020820190506112155f8301846111f3565b92915050565b7f4e487b71000000000000000000000000000000000000000000000000000000005f52602160045260245ffd5b600481106112595761125861121b565b5b50565b5f81905061126982611248565b919050565b5f6112788261125c565b9050919050565b6112888161126e565b82525050565b5f6020820190506112a15f83018461127f565b92915050565b5f819050919050565b6112b9816112a7565b82525050565b5f6020820190506112d25f8301846112b0565b92915050565b6112e1816112a7565b81146112eb575f80fd5b50565b5f813590506112fc816112d8565b92915050565b5f602082840312156113175761131661110c565b5b5f611324848285016112ee565b91505092915050565b5f819050919050565b61133f8161132d565b82525050565b5f6020820190506113585f830184611336565b92915050565b5f611368826111c3565b9050919050565b6113788161135e565b8114611382575f80fd5b50565b5f813590506113938161136f565b92915050565b5f80604083850312156113af576113ae61110c565b5b5f6113bc858286016112ee565b92505060206113cd85828601611385565b9150509250929050565b5f81519050919050565b5f82825260208201905092915050565b5f5b8381101561140e5780820151818401526020810190506113f3565b5f8484015250505050565b5f601f19601f8301169050919050565b5f611433826113d7565b61143d81856113e1565b935061144d8185602086016113f1565b61145681611419565b840191505092915050565b5f6020820190508181035f8301526114798184611429565b905092915050565b7f4e6f7420636c69656e74000000000000000000000000000000000000000000005f82015250565b5f6114b5600a836113e1565b91506114c082611481565b602082019050919050565b5f6020820190508181035f8301526114e2816114a9565b9050919050565b7f496e76616c6964207374617475730000000000000000000000000000000000005f82015250565b5f61151d600e836113e1565b9150611528826114e9565b602082019050919050565b5f6020820190508181035f83015261154a81611511565b9050919050565b7f446561646c696e65206e6f7420706173736564000000000000000000000000005f82015250565b5f6115856013836113e1565b915061159082611551565b602082019050919050565b5f6020820190508181035f8301526115b281611579565b9050919050565b5f81905092915050565b50565b5f6115d15f836115b9565b91506115dc826115c3565b5f82019050919050565b5f6115f0826115c6565b9150819050919050565b7f526566756e64206661696c6564000000000000000000000000000000000000005f82015250565b5f61162e600d836113e1565b9150611639826115fa565b602082019050919050565b5f6020820190508181035f83015261165b81611622565b9050919050565b7f43616e6e6f742064697370757465206e6f7700000000000000000000000000005f82015250565b5f6116966012836113e1565b91506116a182611662565b602082019050919050565b5f6020820190508181035f8301526116c38161168a565b9050919050565b7f5061737420646561646c696e65000000000000000000000000000000000000005f82015250565b5f6116fe600d836113e1565b9150611709826116ca565b602082019050919050565b5f6020820190508181035f83015261172b816116f2565b9050919050565b7f5061796d656e74206661696c65640000000000000000000000000000000000005f82015250565b5f611766600e836113e1565b915061177182611732565b602082019050919050565b5f6020820190508181035f8301526117938161175a565b9050919050565b7f5265656e7472616e637947756172643a207265656e7472616e742063616c6c005f82015250565b5f6117ce601f836113e1565b91506117d98261179a565b602082019050919050565b5f6020820190508181035f8301526117fb816117c2565b9050919050565b61180b8161135e565b82525050565b5f6040820190506118245f830185611802565b61183160208301846112b0565b939250505056fea264697066735822122073970832c9cf151066601906001d462b7bc79092bc1d6ea19f75221d0cacee4c64736f6c63430008140033",
					"opcodes": "PUSH1 0x80 PUSH1 0x40 MSTORE PUSH1 0x40 MLOAD PUSH3 0x1DA9 CODESIZE SUB DUP1 PUSH3 0x1DA9 DUP4 CODECOPY DUP2 DUP2 ADD PUSH1 0x40 MSTORE DUP2 ADD SWAP1 PUSH3 0x29 SWAP2 SWAP1 PUSH3 0x3C2 JUMP JUMPDEST PUSH1 0x1 DUP1 DUP2 SWAP1 SSTORE POP PUSH0 CALLVALUE GT PUSH3 0x75 JUMPI PUSH1 0x40 MLOAD PUSH32 0x8C379A000000000000000000000000000000000000000000000000000000000 DUP2 MSTORE PUSH1 0x4 ADD PUSH3 0x6C SWAP1 PUSH3 0x479 JUMP JUMPDEST PUSH1 0x40 MLOAD DUP1 SWAP2 SUB SWAP1 REVERT JUMPDEST PUSH3 0x89 PUSH0 DUP1 SHL CALLER PUSH3 0x1C0 PUSH1 0x20 SHL PUSH1 0x20 SHR JUMP JUMPDEST POP PUSH3 0xBC PUSH32 0xA5FF3EC7A96CDBBA4D2D5172D66BBC73C6DB3885F29B21BE5DA9FA7A7C025232 DUP5 PUSH3 0x1C0 PUSH1 0x20 SHL PUSH1 0x20 SHR JUMP JUMPDEST POP PUSH3 0xEF PUSH32 0xCAB5A0BFE0B79D2C4B1C2E02599FA044D115B7511F9659307CB4276950967709 DUP4 PUSH3 0x1C0 PUSH1 0x20 SHL PUSH1 0x20 SHR JUMP JUMPDEST POP DUP3 PUSH1 0x3 PUSH0 PUSH2 0x100 EXP DUP2 SLOAD DUP2 PUSH20 0xFFFFFFFFFFFFFFFFFFFFFFFFFFFFFFFFFFFFFFFF MUL NOT AND SWAP1 DUP4 PUSH20 0xFFFFFFFFFFFFFFFFFFFFFFFFFFFFFFFFFFFFFFFF AND MUL OR SWAP1 SSTORE POP DUP2 PUSH1 0x2 PUSH0 PUSH2 0x100 EXP DUP2 SLOAD DUP2 PUSH20 0xFFFFFFFFFFFFFFFFFFFFFFFFFFFFFFFFFFFFFFFF MUL NOT AND SWAP1 DUP4 PUSH20 0xFFFFFFFFFFFFFFFFFFFFFFFFFFFFFFFFFFFFFFFF AND MUL OR SWAP1 SSTORE POP DUP1 TIMESTAMP PUSH3 0x17E SWAP2 SWAP1 PUSH3 0x4C6 JUMP JUMPDEST PUSH1 0x4 DUP2 SWAP1 SSTORE POP CALLVALUE PUSH1 0x5 DUP2 SWAP1 SSTORE POP PUSH0 PUSH1 0x6 PUSH0 PUSH2 0x100 EXP DUP2 SLOAD DUP2 PUSH1 0xFF MUL NOT AND SWAP1 DUP4 PUSH1 0x3 DUP2 GT ISZERO PUSH3 0x1B2 JUMPI PUSH3 0x1B1 PUSH3 0x500 JUMP JUMPDEST JUMPDEST MUL OR SWAP1 SSTORE POP POP POP POP PUSH3 0x52D JUMP JUMPDEST PUSH0 PUSH3 0x1D3 DUP4 DUP4 PUSH3 0x2BB PUSH1 0x20 SHL PUSH1 0x20 SHR JUMP JUMPDEST PUSH3 0x2B1 JUMPI PUSH1 0x1 PUSH0 DUP1 DUP6 DUP2 MSTORE PUSH1 0x20 ADD SWAP1 DUP2 MSTORE PUSH1 0x20 ADD PUSH0 KECCAK256 PUSH0 ADD PUSH0 DUP5 PUSH20 0xFFFFFFFFFFFFFFFFFFFFFFFFFFFFFFFFFFFFFFFF AND PUSH20 0xFFFFFFFFFFFFFFFFFFFFFFFFFFFFFFFFFFFFFFFF AND DUP2 MSTORE PUSH1 0x20 ADD SWAP1 DUP2 MSTORE PUSH1 0x20 ADD PUSH0 KECCAK256 PUSH0 PUSH2 0x100 EXP DUP2 SLOAD DUP2 PUSH1 0xFF MUL NOT AND SWAP1 DUP4 ISZERO ISZERO MUL OR SWAP1 SSTORE POP PUSH3 0x24D PUSH3 0x31E PUSH1 0x20 SHL PUSH1 0x20 SHR JUMP JUMPDEST PUSH20 0xFFFFFFFFFFFFFFFFFFFFFFFFFFFFFFFFFFFFFFFF AND DUP3 PUSH20 0xFFFFFFFFFFFFFFFFFFFFFFFFFFFFFFFFFFFFFFFF AND DUP5 PUSH32 0x2F8788117E7EFF1D82E926EC794901D17C78024A50270940304540A733656F0D PUSH1 0x40 MLOAD PUSH1 0x40 MLOAD DUP1 SWAP2 SUB SWAP1 LOG4 PUSH1 0x1 SWAP1 POP PUSH3 0x2B5 JUMP JUMPDEST PUSH0 SWAP1 POP JUMPDEST SWAP3 SWAP2 POP POP JUMP JUMPDEST PUSH0 DUP1 PUSH0 DUP5 DUP2 MSTORE PUSH1 0x20 ADD SWAP1 DUP2 MSTORE PUSH1 0x20 ADD PUSH0 KECCAK256 PUSH0 ADD PUSH0 DUP4 PUSH20 0xFFFFFFFFFFFFFFFFFFFFFFFFFFFFFFFFFFFFFFFF AND PUSH20 0xFFFFFFFFFFFFFFFFFFFFFFFFFFFFFFFFFFFFFFFF AND DUP2 MSTORE PUSH1 0x20 ADD SWAP1 DUP2 MSTORE PUSH1 0x20 ADD PUSH0 KECCAK256 PUSH0 SWAP1 SLOAD SWAP1 PUSH2 0x100 EXP SWAP1 DIV PUSH1 0xFF AND SWAP1 POP SWAP3 SWAP2 POP POP JUMP JUMPDEST PUSH0 CALLER SWAP1 POP SWAP1 JUMP JUMPDEST PUSH0 DUP1 REVERT JUMPDEST PUSH0 PUSH20 0xFFFFFFFFFFFFFFFFFFFFFFFFFFFFFFFFFFFFFFFF DUP3 AND SWAP1 POP SWAP2 SWAP1 POP JUMP JUMPDEST PUSH0 PUSH3 0x354 DUP3 PUSH3 0x329 JUMP JUMPDEST SWAP1 POP SWAP2 SWAP1 POP JUMP JUMPDEST PUSH3 0x366 DUP2 PUSH3 0x348 JUMP JUMPDEST DUP2 EQ PUSH3 0x371 JUMPI PUSH0 DUP1 REVERT JUMPDEST POP JUMP JUMPDEST PUSH0 DUP2 MLOAD SWAP1 POP PUSH3 0x384 DUP2 PUSH3 0x35B JUMP JUMPDEST SWAP3 SWAP2 POP POP JUMP JUMPDEST PUSH0 DUP2 SWAP1 POP SWAP2 SWAP1 POP JUMP JUMPDEST PUSH3 0x39E DUP2 PUSH3 0x38A JUMP JUMPDEST DUP2 EQ PUSH3 0x3A9 JUMPI PUSH0 DUP1 REVERT JUMPDEST POP JUMP JUMPDEST PUSH0 DUP2 MLOAD SWAP1 POP PUSH3 0x3BC DUP2 PUSH3 0x393 JUMP JUMPDEST SWAP3 SWAP2 POP POP JUMP JUMPDEST PUSH0 DUP1 PUSH0 PUSH1 0x60 DUP5 DUP7 SUB SLT ISZERO PUSH3 0x3DC JUMPI PUSH3 0x3DB PUSH3 0x325 JUMP JUMPDEST JUMPDEST PUSH0 PUSH3 0x3EB DUP7 DUP3 DUP8 ADD PUSH3 0x374 JUMP JUMPDEST SWAP4 POP POP PUSH1 0x20 PUSH3 0x3FE DUP7 DUP3 DUP8 ADD PUSH3 0x374 JUMP JUMPDEST SWAP3 POP POP PUSH1 0x40 PUSH3 0x411 DUP7 DUP3 DUP8 ADD PUSH3 0x3AC JUMP JUMPDEST SWAP2 POP POP SWAP3 POP SWAP3 POP SWAP3 JUMP JUMPDEST PUSH0 DUP3 DUP3 MSTORE PUSH1 0x20 DUP3 ADD SWAP1 POP SWAP3 SWAP2 POP POP JUMP JUMPDEST PUSH32 0x457363726F77206D7573742062652066756E6465640000000000000000000000 PUSH0 DUP3 ADD MSTORE POP JUMP JUMPDEST PUSH0 PUSH3 0x461 PUSH1 0x15 DUP4 PUSH3 0x41B JUMP JUMPDEST SWAP2 POP PUSH3 0x46E DUP3 PUSH3 0x42B JUMP JUMPDEST PUSH1 0x20 DUP3 ADD SWAP1 POP SWAP2 SWAP1 POP JUMP JUMPDEST PUSH0 PUSH1 0x20 DUP3 ADD SWAP1 POP DUP2 DUP2 SUB PUSH0 DUP4 ADD MSTORE PUSH3 0x492 DUP2 PUSH3 0x453 JUMP JUMPDEST SWAP1 POP SWAP2 SWAP1 POP JUMP JUMPDEST PUSH32 0x4E487B7100000000000000000000000000000000000000000000000000000000 PUSH0 MSTORE PUSH1 0x11 PUSH1 0x4 MSTORE PUSH1 0x24 PUSH0 REVERT JUMPDEST PUSH0 PUSH3 0x4D2 DUP3 PUSH3 0x38A JUMP JUMPDEST SWAP2 POP PUSH3 0x4DF DUP4 PUSH3 0x38A JUMP JUMPDEST SWAP3 POP DUP3 DUP3 ADD SWAP1 POP DUP1 DUP3 GT ISZERO PUSH3 0x4FA JUMPI PUSH3 0x4F9 PUSH3 0x499 JUMP JUMPDEST JUMPDEST SWAP3 SWAP2 POP POP JUMP JUMPDEST PUSH32 0x4E487B7100000000000000000000000000000000000000000000000000000000 PUSH0 MSTORE PUSH1 0x21 PUSH1 0x4 MSTORE PUSH1 0x24 PUSH0 REVERT JUMPDEST PUSH2 0x186E DUP1 PUSH3 0x53B PUSH0 CODECOPY PUSH0 RETURN INVALID PUSH1 0x80 PUSH1 0x40 MSTORE CALLVALUE DUP1 ISZERO PUSH2 0xF JUMPI PUSH0 DUP1 REVERT JUMPDEST POP PUSH1 0x4 CALLDATASIZE LT PUSH2 0x114 JUMPI PUSH0 CALLDATALOAD PUSH1 0xE0 SHR DUP1 PUSH4 0x4E69D560 GT PUSH2 0xA0 JUMPI DUP1 PUSH4 0xA217FDDF GT PUSH2 0x6F JUMPI DUP1 PUSH4 0xA217FDDF EQ PUSH2 0x294 JUMPI DUP1 PUSH4 0xAA8C217C EQ PUSH2 0x2B2 JUMPI DUP1 PUSH4 0xD547741F EQ PUSH2 0x2D0 JUMPI DUP1 PUSH4 0xEAE6F652 EQ PUSH2 0x2EC JUMPI DUP1 PUSH4 0xF5FF5C76 EQ PUSH2 0x30A JUMPI PUSH2 0x114 JUMP JUMPDEST DUP1 PUSH4 0x4E69D560 EQ PUSH2 0x232 JUMPI DUP1 PUSH4 0x6DAA2D44 EQ PUSH2 0x250 JUMPI DUP1 PUSH4 0x91D14854 EQ PUSH2 0x25A JUMPI DUP1 PUSH4 0xA06AA1AB EQ PUSH2 0x28A JUMPI PUSH2 0x114 JUMP JUMPDEST DUP1 PUSH4 0x22459E18 GT PUSH2 0xE7 JUMPI DUP1 PUSH4 0x22459E18 EQ PUSH2 0x18E JUMPI DUP1 PUSH4 0x248A9CA3 EQ PUSH2 0x1AC JUMPI DUP1 PUSH4 0x29DCB0CF EQ PUSH2 0x1DC JUMPI DUP1 PUSH4 0x2F2FF15D EQ PUSH2 0x1FA JUMPI DUP1 PUSH4 0x36568ABE EQ PUSH2 0x216 JUMPI PUSH2 0x114 JUMP JUMPDEST DUP1 PUSH4 0x1FFC9A7 EQ PUSH2 0x118 JUMPI DUP1 PUSH4 0x109E94CF EQ PUSH2 0x148 JUMPI DUP1 PUSH4 0x2009DC65 EQ PUSH2 0x166 JUMPI DUP1 PUSH4 0x200D2ED2 EQ PUSH2 0x170 JUMPI JUMPDEST PUSH0 DUP1 REVERT JUMPDEST PUSH2 0x132 PUSH1 0x4 DUP1 CALLDATASIZE SUB DUP2 ADD SWAP1 PUSH2 0x12D SWAP2 SWAP1 PUSH2 0x1165 JUMP JUMPDEST PUSH2 0x328 JUMP JUMPDEST PUSH1 0x40 MLOAD PUSH2 0x13F SWAP2 SWAP1 PUSH2 0x11AA JUMP JUMPDEST PUSH1 0x40 MLOAD DUP1 SWAP2 SUB SWAP1 RETURN JUMPDEST PUSH2 0x150 PUSH2 0x3A1 JUMP JUMPDEST PUSH1 0x40 MLOAD PUSH2 0x15D SWAP2 SWAP1 PUSH2 0x1202 JUMP JUMPDEST PUSH1 0x40 MLOAD DUP1 SWAP2 SUB SWAP1 RETURN JUMPDEST PUSH2 0x16E PUSH2 0x3C6 JUMP JUMPDEST STOP JUMPDEST PUSH2 0x178 PUSH2 0x660 JUMP JUMPDEST PUSH1 0x40 MLOAD PUSH2 0x185 SWAP2 SWAP1 PUSH2 0x128E JUMP JUMPDEST PUSH1 0x40 MLOAD DUP1 SWAP2 SUB SWAP1 RETURN JUMPDEST PUSH2 0x196 PUSH2 0x672 JUMP JUMPDEST PUSH1 0x40 MLOAD PUSH2 0x1A3 SWAP2 SWAP1 PUSH2 0x12BF JUMP JUMPDEST PUSH1 0x40 MLOAD DUP1 SWAP2 SUB SWAP1 RETURN JUMPDEST PUSH2 0x1C6 PUSH1 0x4 DUP1 CALLDATASIZE SUB DUP2 ADD SWAP1 PUSH2 0x1C1 SWAP2 SWAP1 PUSH2 0x1302 JUMP JUMPDEST PUSH2 0x696 JUMP JUMPDEST PUSH1 0x40 MLOAD PUSH2 0x1D3 SWAP2 SWAP1 PUSH2 0x12BF JUMP JUMPDEST PUSH1 0x40 MLOAD DUP1 SWAP2 SUB SWAP1 RETURN JUMPDEST PUSH2 0x1E4 PUSH2 0x6B2 JUMP JUMPDEST PUSH1 0x40 MLOAD PUSH2 0x1F1 SWAP2 SWAP1 PUSH2 0x1345 JUMP JUMPDEST PUSH1 0x40 MLOAD DUP1 SWAP2 SUB SWAP1 RETURN JUMPDEST PUSH2 0x214 PUSH1 0x4 DUP1 CALLDATASIZE SUB DUP2 ADD SWAP1 PUSH2 0x20F SWAP2 SWAP1 PUSH2 0x1399 JUMP JUMPDEST PUSH2 0x6B8 JUMP JUMPDEST STOP JUMPDEST PUSH2 0x230 PUSH1 0x4 DUP1 CALLDATASIZE SUB DUP2 ADD SWAP1 PUSH2 0x22B SWAP2 SWAP1 PUSH2 0x1399 JUMP JUMPDEST PUSH2 0x6DA JUMP JUMPDEST STOP JUMPDEST PUSH2 0x23A PUSH2 0x755 JUMP JUMPDEST PUSH1 0x40 MLOAD PUSH2 0x247 SWAP2 SWAP1 PUSH2 0x1461 JUMP JUMPDEST PUSH1 0x40 MLOAD DUP1 SWAP2 SUB SWAP1 RETURN JUMPDEST PUSH2 0x258 PUSH2 0x96D JUMP JUMPDEST STOP JUMPDEST PUSH2 0x274 PUSH1 0x4 DUP1 CALLDATASIZE SUB DUP2 ADD SWAP1 PUSH2 0x26F SWAP2 SWAP1 PUSH2 0x1399 JUMP JUMPDEST PUSH2 0xAB9 JUMP JUMPDEST PUSH1 0x40 MLOAD PUSH2 0x281 SWAP2 SWAP1 PUSH2 0x11AA JUMP JUMPDEST PUSH1 0x40 MLOAD DUP1 SWAP2 SUB SWAP1 RETURN JUMPDEST PUSH2 0x292 PUSH2 0xB1C JUMP JUMPDEST STOP JUMPDEST PUSH2 0x29C PUSH2 0xD96 JUMP JUMPDEST PUSH1 0x40 MLOAD PUSH2 0x2A9 SWAP2 SWAP1 PUSH2 0x12BF JUMP JUMPDEST PUSH1 0x40 MLOAD DUP1 SWAP2 SUB SWAP1 RETURN JUMPDEST PUSH2 0x2BA PUSH2 0xD9C JUMP JUMPDEST PUSH1 0x40 MLOAD PUSH2 0x2C7 SWAP2 SWAP1 PUSH2 0x1345 JUMP JUMPDEST PUSH1 0x40 MLOAD DUP1 SWAP2 SUB SWAP1 RETURN JUMPDEST PUSH2 0x2EA PUSH1 0x4 DUP1 CALLDATASIZE SUB DUP2 ADD SWAP1 PUSH2 0x2E5 SWAP2 SWAP1 PUSH2 0x1399 JUMP JUMPDEST PUSH2 0xDA2 JUMP JUMPDEST STOP JUMPDEST PUSH2 0x2F4 PUSH2 0xDC4 JUMP JUMPDEST PUSH1 0x40 MLOAD PUSH2 0x301 SWAP2 SWAP1 PUSH2 0x12BF JUMP JUMPDEST PUSH1 0x40 MLOAD DUP1 SWAP2 SUB SWAP1 RETURN JUMPDEST PUSH2 0x312 PUSH2 0xDE8 JUMP JUMPDEST PUSH1 0x40 MLOAD PUSH2 0x31F SWAP2 SWAP1 PUSH2 0x1202 JUMP JUMPDEST PUSH1 0x40 MLOAD DUP1 SWAP2 SUB SWAP1 RETURN JUMPDEST PUSH0 PUSH32 0x7965DB0B00000000000000000000000000000000000000000000000000000000 PUSH28 0xFFFFFFFFFFFFFFFFFFFFFFFFFFFFFFFFFFFFFFFFFFFFFFFFFFFFFFFF NOT AND DUP3 PUSH28 0xFFFFFFFFFFFFFFFFFFFFFFFFFFFFFFFFFFFFFFFFFFFFFFFFFFFFFFFF NOT AND EQ DUP1 PUSH2 0x39A JUMPI POP PUSH2 0x399 DUP3 PUSH2 0xE0D JUMP JUMPDEST JUMPDEST SWAP1 POP SWAP2 SWAP1 POP JUMP JUMPDEST PUSH1 0x3 PUSH0 SWAP1 SLOAD SWAP1 PUSH2 0x100 EXP SWAP1 DIV PUSH20 0xFFFFFFFFFFFFFFFFFFFFFFFFFFFFFFFFFFFFFFFF AND DUP2 JUMP JUMPDEST PUSH2 0x3F0 PUSH32 0xA5FF3EC7A96CDBBA4D2D5172D66BBC73C6DB3885F29B21BE5DA9FA7A7C025232 CALLER PUSH2 0xAB9 JUMP JUMPDEST PUSH2 0x42F JUMPI PUSH1 0x40 MLOAD PUSH32 0x8C379A000000000000000000000000000000000000000000000000000000000 DUP2 MSTORE PUSH1 0x4 ADD PUSH2 0x426 SWAP1 PUSH2 0x14CB JUMP JUMPDEST PUSH1 0x40 MLOAD DUP1 SWAP2 SUB SWAP1 REVERT JUMPDEST PUSH2 0x437 PUSH2 0xE76 JUMP JUMPDEST PUSH0 PUSH1 0x3 DUP2 GT ISZERO PUSH2 0x44A JUMPI PUSH2 0x449 PUSH2 0x121B JUMP JUMPDEST JUMPDEST PUSH1 0x6 PUSH0 SWAP1 SLOAD SWAP1 PUSH2 0x100 EXP SWAP1 DIV PUSH1 0xFF AND PUSH1 0x3 DUP2 GT ISZERO PUSH2 0x46B JUMPI PUSH2 0x46A PUSH2 0x121B JUMP JUMPDEST JUMPDEST EQ PUSH2 0x4AB JUMPI PUSH1 0x40 MLOAD PUSH32 0x8C379A000000000000000000000000000000000000000000000000000000000 DUP2 MSTORE PUSH1 0x4 ADD PUSH2 0x4A2 SWAP1 PUSH2 0x1533 JUMP JUMPDEST PUSH1 0x40 MLOAD DUP1 SWAP2 SUB SWAP1 REVERT JUMPDEST PUSH1 0x4 SLOAD TIMESTAMP GT PUSH2 0x4EF JUMPI PUSH1 0x40 MLOAD PUSH32 0x8C379A000000000000000000000000000000000000000000000000000000000 DUP2 MSTORE PUSH1 0x4 ADD PUSH2 0x4E6 SWAP1 PUSH2 0x159B JUMP JUMPDEST PUSH1 0x40 MLOAD DUP1 SWAP2 SUB SWAP1 REVERT JUMPDEST PUSH1 0x2 PUSH1 0x6 PUSH0 PUSH2 0x100 EXP DUP2 SLOAD DUP2 PUSH1 0xFF MUL NOT AND SWAP1 DUP4 PUSH1 0x3 DUP2 GT ISZERO PUSH2 0x514 JUMPI PUSH2 0x513 PUSH2 0x121B JUMP JUMPDEST JUMPDEST MUL OR SWAP1 SSTORE POP PUSH0 PUSH1 0x3 PUSH0 SWAP1 SLOAD SWAP1 PUSH2 0x100 EXP SWAP1 DIV PUSH20 0xFFFFFFFFFFFFFFFFFFFFFFFFFFFFFFFFFFFFFFFF AND PUSH20 0xFFFFFFFFFFFFFFFFFFFFFFFFFFFFFFFFFFFFFFFF AND PUSH1 0x5 SLOAD PUSH1 0x40 MLOAD PUSH2 0x561 SWAP1 PUSH2 0x15E6 JUMP JUMPDEST PUSH0 PUSH1 0x40 MLOAD DUP1 DUP4 SUB DUP2 DUP6 DUP8 GAS CALL SWAP3 POP POP POP RETURNDATASIZE DUP1 PUSH0 DUP2 EQ PUSH2 0x59B JUMPI PUSH1 0x40 MLOAD SWAP2 POP PUSH1 0x1F NOT PUSH1 0x3F RETURNDATASIZE ADD AND DUP3 ADD PUSH1 0x40 MSTORE RETURNDATASIZE DUP3 MSTORE RETURNDATASIZE PUSH0 PUSH1 0x20 DUP5 ADD RETURNDATACOPY PUSH2 0x5A0 JUMP JUMPDEST PUSH1 0x60 SWAP2 POP JUMPDEST POP POP SWAP1 POP DUP1 PUSH2 0x5E4 JUMPI PUSH1 0x40 MLOAD PUSH32 0x8C379A000000000000000000000000000000000000000000000000000000000 DUP2 MSTORE PUSH1 0x4 ADD PUSH2 0x5DB SWAP1 PUSH2 0x1644 JUMP JUMPDEST PUSH1 0x40 MLOAD DUP1 SWAP2 SUB SWAP1 REVERT JUMPDEST PUSH1 0x3 PUSH0 SWAP1 SLOAD SWAP1 PUSH2 0x100 EXP SWAP1 DIV PUSH20 0xFFFFFFFFFFFFFFFFFFFFFFFFFFFFFFFFFFFFFFFF AND PUSH20 0xFFFFFFFFFFFFFFFFFFFFFFFFFFFFFFFFFFFFFFFF AND PUSH32 0xD7DEE2702D63AD89917B6A4DA9981C90C4D24F8C2BDFD64C604ECAE57D8D0651 PUSH1 0x5 SLOAD PUSH1 0x40 MLOAD PUSH2 0x64D SWAP2 SWAP1 PUSH2 0x1345 JUMP JUMPDEST PUSH1 0x40 MLOAD DUP1 SWAP2 SUB SWAP1 LOG2 POP PUSH2 0x65E PUSH2 0xEC5 JUMP JUMPDEST JUMP JUMPDEST PUSH1 0x6 PUSH0 SWAP1 SLOAD SWAP1 PUSH2 0x100 EXP SWAP1 DIV PUSH1 0xFF AND DUP2 JUMP JUMPDEST PUSH32 0xCAB5A0BFE0B79D2C4B1C2E02599FA044D115B7511F9659307CB4276950967709 DUP2 JUMP JUMPDEST PUSH0 DUP1 PUSH0 DUP4 DUP2 MSTORE PUSH1 0x20 ADD SWAP1 DUP2 MSTORE PUSH1 0x20 ADD PUSH0 KECCAK256 PUSH1 0x1 ADD SLOAD SWAP1 POP SWAP2 SWAP1 POP JUMP JUMPDEST PUSH1 0x4 SLOAD DUP2 JUMP JUMPDEST PUSH2 0x6C1 DUP3 PUSH2 0x696 JUMP JUMPDEST PUSH2 0x6CA DUP2 PUSH2 0xECE JUMP JUMPDEST PUSH2 0x6D4 DUP4 DUP4 PUSH2 0xEE2 JUMP JUMPDEST POP POP POP POP JUMP JUMPDEST PUSH2 0x6E2 PUSH2 0xFCB JUMP JUMPDEST PUSH20 0xFFFFFFFFFFFFFFFFFFFFFFFFFFFFFFFFFFFFFFFF AND DUP2 PUSH20 0xFFFFFFFFFFFFFFFFFFFFFFFFFFFFFFFFFFFFFFFF AND EQ PUSH2 0x746 JUMPI PUSH1 0x40 MLOAD PUSH32 0x6697B23200000000000000000000000000000000000000000000000000000000 DUP2 MSTORE PUSH1 0x4 ADD PUSH1 0x40 MLOAD DUP1 SWAP2 SUB SWAP1 REVERT JUMPDEST PUSH2 0x750 DUP3 DUP3 PUSH2 0xFD2 JUMP JUMPDEST POP POP POP JUMP JUMPDEST PUSH1 0x60 PUSH0 PUSH1 0x3 DUP2 GT ISZERO PUSH2 0x76A JUMPI PUSH2 0x769 PUSH2 0x121B JUMP JUMPDEST JUMPDEST PUSH1 0x6 PUSH0 SWAP1 SLOAD SWAP1 PUSH2 0x100 EXP SWAP1 DIV PUSH1 0xFF AND PUSH1 0x3 DUP2 GT ISZERO PUSH2 0x78B JUMPI PUSH2 0x78A PUSH2 0x121B JUMP JUMPDEST JUMPDEST SUB PUSH2 0x7CD JUMPI PUSH1 0x40 MLOAD DUP1 PUSH1 0x40 ADD PUSH1 0x40 MSTORE DUP1 PUSH1 0x6 DUP2 MSTORE PUSH1 0x20 ADD PUSH32 0x4163746976650000000000000000000000000000000000000000000000000000 DUP2 MSTORE POP SWAP1 POP PUSH2 0x96A JUMP JUMPDEST PUSH1 0x1 PUSH1 0x3 DUP2 GT ISZERO PUSH2 0x7E1 JUMPI PUSH2 0x7E0 PUSH2 0x121B JUMP JUMPDEST JUMPDEST PUSH1 0x6 PUSH0 SWAP1 SLOAD SWAP1 PUSH2 0x100 EXP SWAP1 DIV PUSH1 0xFF AND PUSH1 0x3 DUP2 GT ISZERO PUSH2 0x802 JUMPI PUSH2 0x801 PUSH2 0x121B JUMP JUMPDEST JUMPDEST SUB PUSH2 0x844 JUMPI PUSH1 0x40 MLOAD DUP1 PUSH1 0x40 ADD PUSH1 0x40 MSTORE DUP1 PUSH1 0x9 DUP2 MSTORE PUSH1 0x20 ADD PUSH32 0x436F6D706C657465640000000000000000000000000000000000000000000000 DUP2 MSTORE POP SWAP1 POP PUSH2 0x96A JUMP JUMPDEST PUSH1 0x2 PUSH1 0x3 DUP2 GT ISZERO PUSH2 0x858 JUMPI PUSH2 0x857 PUSH2 0x121B JUMP JUMPDEST JUMPDEST PUSH1 0x6 PUSH0 SWAP1 SLOAD SWAP1 PUSH2 0x100 EXP SWAP1 DIV PUSH1 0xFF AND PUSH1 0x3 DUP2 GT ISZERO PUSH2 0x879 JUMPI PUSH2 0x878 PUSH2 0x121B JUMP JUMPDEST JUMPDEST SUB PUSH2 0x8BB JUMPI PUSH1 0x40 MLOAD DUP1 PUSH1 0x40 ADD PUSH1 0x40 MSTORE DUP1 PUSH1 0x8 DUP2 MSTORE PUSH1 0x20 ADD PUSH32 0x526566756E646564000000000000000000000000000000000000000000000000 DUP2 MSTORE POP SWAP1 POP PUSH2 0x96A JUMP JUMPDEST PUSH1 0x3 DUP1 DUP2 GT ISZERO PUSH2 0x8CE JUMPI PUSH2 0x8CD PUSH2 0x121B JUMP JUMPDEST JUMPDEST PUSH1 0x6 PUSH0 SWAP1 SLOAD SWAP1 PUSH2 0x100 EXP SWAP1 DIV PUSH1 0xFF AND PUSH1 0x3 DUP2 GT ISZERO PUSH2 0x8EF JUMPI PUSH2 0x8EE PUSH2 0x121B JUMP JUMPDEST JUMPDEST SUB PUSH2 0x931 JUMPI PUSH1 0x40 MLOAD DUP1 PUSH1 0x40 ADD PUSH1 0x40 MSTORE DUP1 PUSH1 0x8 DUP2 MSTORE PUSH1 0x20 ADD PUSH32 0x4469737075746564000000000000000000000000000000000000000000000000 DUP2 MSTORE POP SWAP1 POP PUSH2 0x96A JUMP JUMPDEST PUSH1 0x40 MLOAD DUP1 PUSH1 0x40 ADD PUSH1 0x40 MSTORE DUP1 PUSH1 0x7 DUP2 MSTORE PUSH1 0x20 ADD PUSH32 0x556E6B6E6F776E00000000000000000000000000000000000000000000000000 DUP2 MSTORE POP SWAP1 POP JUMPDEST SWAP1 JUMP JUMPDEST PUSH2 0x997 PUSH32 0xA5FF3EC7A96CDBBA4D2D5172D66BBC73C6DB3885F29B21BE5DA9FA7A7C025232 CALLER PUSH2 0xAB9 JUMP JUMPDEST PUSH2 0x9D6 JUMPI PUSH1 0x40 MLOAD PUSH32 0x8C379A000000000000000000000000000000000000000000000000000000000 DUP2 MSTORE PUSH1 0x4 ADD PUSH2 0x9CD SWAP1 PUSH2 0x14CB JUMP JUMPDEST PUSH1 0x40 MLOAD DUP1 SWAP2 SUB SWAP1 REVERT JUMPDEST PUSH0 PUSH1 0x3 DUP2 GT ISZERO PUSH2 0x9E9 JUMPI PUSH2 0x9E8 PUSH2 0x121B JUMP JUMPDEST JUMPDEST PUSH1 0x6 PUSH0 SWAP1 SLOAD SWAP1 PUSH2 0x100 EXP SWAP1 DIV PUSH1 0xFF AND PUSH1 0x3 DUP2 GT ISZERO PUSH2 0xA0A JUMPI PUSH2 0xA09 PUSH2 0x121B JUMP JUMPDEST JUMPDEST EQ PUSH2 0xA4A JUMPI PUSH1 0x40 MLOAD PUSH32 0x8C379A000000000000000000000000000000000000000000000000000000000 DUP2 MSTORE PUSH1 0x4 ADD PUSH2 0xA41 SWAP1 PUSH2 0x16AC JUMP JUMPDEST PUSH1 0x40 MLOAD DUP1 SWAP2 SUB SWAP1 REVERT JUMPDEST PUSH1 0x3 PUSH1 0x6 PUSH0 PUSH2 0x100 EXP DUP2 SLOAD DUP2 PUSH1 0xFF MUL NOT AND SWAP1 DUP4 PUSH1 0x3 DUP2 GT ISZERO PUSH2 0xA6F JUMPI PUSH2 0xA6E PUSH2 0x121B JUMP JUMPDEST JUMPDEST MUL OR SWAP1 SSTORE POP CALLER PUSH20 0xFFFFFFFFFFFFFFFFFFFFFFFFFFFFFFFFFFFFFFFF AND PUSH32 0xB3CD97B16A08A5C77357C276D248827AD32DFD56060F7C55D6255537BA3D962 PUSH1 0x40 MLOAD PUSH1 0x40 MLOAD DUP1 SWAP2 SUB SWAP1 LOG2 JUMP JUMPDEST PUSH0 DUP1 PUSH0 DUP5 DUP2 MSTORE PUSH1 0x20 ADD SWAP1 DUP2 MSTORE PUSH1 0x20 ADD PUSH0 KECCAK256 PUSH0 ADD PUSH0 DUP4 PUSH20 0xFFFFFFFFFFFFFFFFFFFFFFFFFFFFFFFFFFFFFFFF AND PUSH20 0xFFFFFFFFFFFFFFFFFFFFFFFFFFFFFFFFFFFFFFFF AND DUP2 MSTORE PUSH1 0x20 ADD SWAP1 DUP2 MSTORE PUSH1 0x20 ADD PUSH0 KECCAK256 PUSH0 SWAP1 SLOAD SWAP1 PUSH2 0x100 EXP SWAP1 DIV PUSH1 0xFF AND SWAP1 POP SWAP3 SWAP2 POP POP JUMP JUMPDEST PUSH2 0xB46 PUSH32 0xA5FF3EC7A96CDBBA4D2D5172D66BBC73C6DB3885F29B21BE5DA9FA7A7C025232 CALLER PUSH2 0xAB9 JUMP JUMPDEST PUSH2 0xB85 JUMPI PUSH1 0x40 MLOAD PUSH32 0x8C379A000000000000000000000000000000000000000000000000000000000 DUP2 MSTORE PUSH1 0x4 ADD PUSH2 0xB7C SWAP1 PUSH2 0x14CB JUMP JUMPDEST PUSH1 0x40 MLOAD DUP1 SWAP2 SUB SWAP1 REVERT JUMPDEST PUSH2 0xB8D PUSH2 0xE76 JUMP JUMPDEST PUSH0 PUSH1 0x3 DUP2 GT ISZERO PUSH2 0xBA0 JUMPI PUSH2 0xB9F PUSH2 0x121B JUMP JUMPDEST JUMPDEST PUSH1 0x6 PUSH0 SWAP1 SLOAD SWAP1 PUSH2 0x100 EXP SWAP1 DIV PUSH1 0xFF AND PUSH1 0x3 DUP2 GT ISZERO PUSH2 0xBC1 JUMPI PUSH2 0xBC0 PUSH2 0x121B JUMP JUMPDEST JUMPDEST EQ PUSH2 0xC01 JUMPI PUSH1 0x40 MLOAD PUSH32 0x8C379A000000000000000000000000000000000000000000000000000000000 DUP2 MSTORE PUSH1 0x4 ADD PUSH2 0xBF8 SWAP1 PUSH2 0x1533 JUMP JUMPDEST PUSH1 0x40 MLOAD DUP1 SWAP2 SUB SWAP1 REVERT JUMPDEST PUSH1 0x4 SLOAD TIMESTAMP GT ISZERO PUSH2 0xC46 JUMPI PUSH1 0x40 MLOAD PUSH32 0x8C379A000000000000000000000000000000000000000000000000000000000 DUP2 MSTORE PUSH1 0x4 ADD PUSH2 0xC3D SWAP1 PUSH2 0x1714 JUMP JUMPDEST PUSH1 0x40 MLOAD DUP1 SWAP2 SUB SWAP1 REVERT JUMPDEST PUSH1 0x1 PUSH1 0x6 PUSH0 PUSH2 0x100 EXP DUP2 SLOAD DUP2 PUSH1 0xFF MUL NOT AND SWAP1 DUP4 PUSH1 0x3 DUP2 GT ISZERO PUSH2 0xC6B JUMPI PUSH2 0xC6A PUSH2 0x121B JUMP JUMPDEST JUMPDEST MUL OR SWAP1 SSTORE POP PUSH0 PUSH1 0x2 PUSH0 SWAP1 SLOAD SWAP1 PUSH2 0x100 EXP SWAP1 DIV PUSH20 0xFFFFFFFFFFFFFFFFFFFFFFFFFFFFFFFFFFFFFFFF AND PUSH20 0xFFFFFFFFFFFFFFFFFFFFFFFFFFFFFFFFFFFFFFFF AND PUSH1 0x5 SLOAD PUSH1 0x40 MLOAD PUSH2 0xCB8 SWAP1 PUSH2 0x15E6 JUMP JUMPDEST PUSH0 PUSH1 0x40 MLOAD DUP1 DUP4 SUB DUP2 DUP6 DUP8 GAS CALL SWAP3 POP POP POP RETURNDATASIZE DUP1 PUSH0 DUP2 EQ PUSH2 0xCF2 JUMPI PUSH1 0x40 MLOAD SWAP2 POP PUSH1 0x1F NOT PUSH1 0x3F RETURNDATASIZE ADD AND DUP3 ADD PUSH1 0x40 MSTORE RETURNDATASIZE DUP3 MSTORE RETURNDATASIZE PUSH0 PUSH1 0x20 DUP5 ADD RETURNDATACOPY PUSH2 0xCF7 JUMP JUMPDEST PUSH1 0x60 SWAP2 POP JUMPDEST POP POP SWAP1 POP DUP1 PUSH2 0xD3B JUMPI PUSH1 0x40 MLOAD PUSH32 0x8C379A000000000000000000000000000000000000000000000000000000000 DUP2 MSTORE PUSH1 0x4 ADD PUSH2 0xD32 SWAP1 PUSH2 0x177C JUMP JUMPDEST PUSH1 0x40 MLOAD DUP1 SWAP2 SUB SWAP1 REVERT JUMPDEST CALLER PUSH20 0xFFFFFFFFFFFFFFFFFFFFFFFFFFFFFFFFFFFFFFFF AND PUSH32 0xE7E1C58DE787E99204E575CF23080C95315F2F0008084AC1F62E766B79689AE5 PUSH1 0x5 SLOAD PUSH1 0x40 MLOAD PUSH2 0xD83 SWAP2 SWAP1 PUSH2 0x1345 JUMP JUMPDEST PUSH1 0x40 MLOAD DUP1 SWAP2 SUB SWAP1 LOG2 POP PUSH2 0xD94 PUSH2 0xEC5 JUMP JUMPDEST JUMP JUMPDEST PUSH0 DUP1 SHL DUP2 JUMP JUMPDEST PUSH1 0x5 SLOAD DUP2 JUMP JUMPDEST PUSH2 0xDAB DUP3 PUSH2 0x696 JUMP JUMPDEST PUSH2 0xDB4 DUP2 PUSH2 0xECE JUMP JUMPDEST PUSH2 0xDBE DUP4 DUP4 PUSH2 0xFD2 JUMP JUMPDEST POP POP POP POP JUMP JUMPDEST PUSH32 0xA5FF3EC7A96CDBBA4D2D5172D66BBC73C6DB3885F29B21BE5DA9FA7A7C025232 DUP2 JUMP JUMPDEST PUSH1 0x2 PUSH0 SWAP1 SLOAD SWAP1 PUSH2 0x100 EXP SWAP1 DIV PUSH20 0xFFFFFFFFFFFFFFFFFFFFFFFFFFFFFFFFFFFFFFFF AND DUP2 JUMP JUMPDEST PUSH0 PUSH32 0x1FFC9A700000000000000000000000000000000000000000000000000000000 PUSH28 0xFFFFFFFFFFFFFFFFFFFFFFFFFFFFFFFFFFFFFFFFFFFFFFFFFFFFFFFF NOT AND DUP3 PUSH28 0xFFFFFFFFFFFFFFFFFFFFFFFFFFFFFFFFFFFFFFFFFFFFFFFFFFFFFFFF NOT AND EQ SWAP1 POP SWAP2 SWAP1 POP JUMP JUMPDEST PUSH1 0x2 PUSH1 0x1 SLOAD SUB PUSH2 0xEBB JUMPI PUSH1 0x40 MLOAD PUSH32 0x8C379A000000000000000000000000000000000000000000000000000000000 DUP2 MSTORE PUSH1 0x4 ADD PUSH2 0xEB2 SWAP1 PUSH2 0x17E4 JUMP JUMPDEST PUSH1 0x40 MLOAD DUP1 SWAP2 SUB SWAP1 REVERT JUMPDEST PUSH1 0x2 PUSH1 0x1 DUP2 SWAP1 SSTORE POP JUMP JUMPDEST PUSH1 0x1 DUP1 DUP2 SWAP1 SSTORE POP JUMP JUMPDEST PUSH2 0xEDF DUP2 PUSH2 0xEDA PUSH2 0xFCB JUMP JUMPDEST PUSH2 0x10BB JUMP JUMPDEST POP JUMP JUMPDEST PUSH0 PUSH2 0xEED DUP4 DUP4 PUSH2 0xAB9 JUMP JUMPDEST PUSH2 0xFC1 JUMPI PUSH1 0x1 PUSH0 DUP1 DUP6 DUP2 MSTORE PUSH1 0x20 ADD SWAP1 DUP2 MSTORE PUSH1 0x20 ADD PUSH0 KECCAK256 PUSH0 ADD PUSH0 DUP5 PUSH20 0xFFFFFFFFFFFFFFFFFFFFFFFFFFFFFFFFFFFFFFFF AND PUSH20 0xFFFFFFFFFFFFFFFFFFFFFFFFFFFFFFFFFFFFFFFF AND DUP2 MSTORE PUSH1 0x20 ADD SWAP1 DUP2 MSTORE PUSH1 0x20 ADD PUSH0 KECCAK256 PUSH0 PUSH2 0x100 EXP DUP2 SLOAD DUP2 PUSH1 0xFF MUL NOT AND SWAP1 DUP4 ISZERO ISZERO MUL OR SWAP1 SSTORE POP PUSH2 0xF5E PUSH2 0xFCB JUMP JUMPDEST PUSH20 0xFFFFFFFFFFFFFFFFFFFFFFFFFFFFFFFFFFFFFFFF AND DUP3 PUSH20 0xFFFFFFFFFFFFFFFFFFFFFFFFFFFFFFFFFFFFFFFF AND DUP5 PUSH32 0x2F8788117E7EFF1D82E926EC794901D17C78024A50270940304540A733656F0D PUSH1 0x40 MLOAD PUSH1 0x40 MLOAD DUP1 SWAP2 SUB SWAP1 LOG4 PUSH1 0x1 SWAP1 POP PUSH2 0xFC5 JUMP JUMPDEST PUSH0 SWAP1 POP JUMPDEST SWAP3 SWAP2 POP POP JUMP JUMPDEST PUSH0 CALLER SWAP1 POP SWAP1 JUMP JUMPDEST PUSH0 PUSH2 0xFDD DUP4 DUP4 PUSH2 0xAB9 JUMP JUMPDEST ISZERO PUSH2 0x10B1 JUMPI PUSH0 DUP1 PUSH0 DUP6 DUP2 MSTORE PUSH1 0x20 ADD SWAP1 DUP2 MSTORE PUSH1 0x20 ADD PUSH0 KECCAK256 PUSH0 ADD PUSH0 DUP5 PUSH20 0xFFFFFFFFFFFFFFFFFFFFFFFFFFFFFFFFFFFFFFFF AND PUSH20 0xFFFFFFFFFFFFFFFFFFFFFFFFFFFFFFFFFFFFFFFF AND DUP2 MSTORE PUSH1 0x20 ADD SWAP1 DUP2 MSTORE PUSH1 0x20 ADD PUSH0 KECCAK256 PUSH0 PUSH2 0x100 EXP DUP2 SLOAD DUP2 PUSH1 0xFF MUL NOT AND SWAP1 DUP4 ISZERO ISZERO MUL OR SWAP1 SSTORE POP PUSH2 0x104E PUSH2 0xFCB JUMP JUMPDEST PUSH20 0xFFFFFFFFFFFFFFFFFFFFFFFFFFFFFFFFFFFFFFFF AND DUP3 PUSH20 0xFFFFFFFFFFFFFFFFFFFFFFFFFFFFFFFFFFFFFFFF AND DUP5 PUSH32 0xF6391F5C32D9C69D2A47EA670B442974B53935D1EDC7FD64EB21E047A839171B PUSH1 0x40 MLOAD PUSH1 0x40 MLOAD DUP1 SWAP2 SUB SWAP1 LOG4 PUSH1 0x1 SWAP1 POP PUSH2 0x10B5 JUMP JUMPDEST PUSH0 SWAP1 POP JUMPDEST SWAP3 SWAP2 POP POP JUMP JUMPDEST PUSH2 0x10C5 DUP3 DUP3 PUSH2 0xAB9 JUMP JUMPDEST PUSH2 0x1108 JUMPI DUP1 DUP3 PUSH1 0x40 MLOAD PUSH32 0xE2517D3F00000000000000000000000000000000000000000000000000000000 DUP2 MSTORE PUSH1 0x4 ADD PUSH2 0x10FF SWAP3 SWAP2 SWAP1 PUSH2 0x1811 JUMP JUMPDEST PUSH1 0x40 MLOAD DUP1 SWAP2 SUB SWAP1 REVERT JUMPDEST POP POP JUMP JUMPDEST PUSH0 DUP1 REVERT JUMPDEST PUSH0 PUSH32 0xFFFFFFFF00000000000000000000000000000000000000000000000000000000 DUP3 AND SWAP1 POP SWAP2 SWAP1 POP JUMP JUMPDEST PUSH2 0x1144 DUP2 PUSH2 0x1110 JUMP JUMPDEST DUP2 EQ PUSH2 0x114E JUMPI PUSH0 DUP1 REVERT JUMPDEST POP JUMP JUMPDEST PUSH0 DUP2 CALLDATALOAD SWAP1 POP PUSH2 0x115F DUP2 PUSH2 0x113B JUMP JUMPDEST SWAP3 SWAP2 POP POP JUMP JUMPDEST PUSH0 PUSH1 0x20 DUP3 DUP5 SUB SLT ISZERO PUSH2 0x117A JUMPI PUSH2 0x1179 PUSH2 0x110C JUMP JUMPDEST JUMPDEST PUSH0 PUSH2 0x1187 DUP5 DUP3 DUP6 ADD PUSH2 0x1151 JUMP JUMPDEST SWAP2 POP POP SWAP3 SWAP2 POP POP JUMP JUMPDEST PUSH0 DUP2 ISZERO ISZERO SWAP1 POP SWAP2 SWAP1 POP JUMP JUMPDEST PUSH2 0x11A4 DUP2 PUSH2 0x1190 JUMP JUMPDEST DUP3 MSTORE POP POP JUMP JUMPDEST PUSH0 PUSH1 0x20 DUP3 ADD SWAP1 POP PUSH2 0x11BD PUSH0 DUP4 ADD DUP5 PUSH2 0x119B JUMP JUMPDEST SWAP3 SWAP2 POP POP JUMP JUMPDEST PUSH0 PUSH20 0xFFFFFFFFFFFFFFFFFFFFFFFFFFFFFFFFFFFFFFFF DUP3 AND SWAP1 POP SWAP2 SWAP1 POP JUMP JUMPDEST PUSH0 PUSH2 0x11EC DUP3 PUSH2 0x11C3 JUMP JUMPDEST SWAP1 POP SWAP2 SWAP1 POP JUMP JUMPDEST PUSH2 0x11FC DUP2 PUSH2 0x11E2 JUMP JUMPDEST DUP3 MSTORE POP POP JUMP JUMPDEST PUSH0 PUSH1 0x20 DUP3 ADD SWAP1 POP PUSH2 0x1215 PUSH0 DUP4 ADD DUP5 PUSH2 0x11F3 JUMP JUMPDEST SWAP3 SWAP2 POP POP JUMP JUMPDEST PUSH32 0x4E487B7100000000000000000000000000000000000000000000000000000000 PUSH0 MSTORE PUSH1 0x21 PUSH1 0x4 MSTORE PUSH1 0x24 PUSH0 REVERT JUMPDEST PUSH1 0x4 DUP2 LT PUSH2 0x1259 JUMPI PUSH2 0x1258 PUSH2 0x121B JUMP JUMPDEST JUMPDEST POP JUMP JUMPDEST PUSH0 DUP2 SWAP1 POP PUSH2 0x1269 DUP3 PUSH2 0x1248 JUMP JUMPDEST SWAP2 SWAP1 POP JUMP JUMPDEST PUSH0 PUSH2 0x1278 DUP3 PUSH2 0x125C JUMP JUMPDEST SWAP1 POP SWAP2 SWAP1 POP JUMP JUMPDEST PUSH2 0x1288 DUP2 PUSH2 0x126E JUMP JUMPDEST DUP3 MSTORE POP POP JUMP JUMPDEST PUSH0 PUSH1 0x20 DUP3 ADD SWAP1 POP PUSH2 0x12A1 PUSH0 DUP4 ADD DUP5 PUSH2 0x127F JUMP JUMPDEST SWAP3 SWAP2 POP POP JUMP JUMPDEST PUSH0 DUP2 SWAP1 POP SWAP2 SWAP1 POP JUMP JUMPDEST PUSH2 0x12B9 DUP2 PUSH2 0x12A7 JUMP JUMPDEST DUP3 MSTORE POP POP JUMP JUMPDEST PUSH0 PUSH1 0x20 DUP3 ADD SWAP1 POP PUSH2 0x12D2 PUSH0 DUP4 ADD DUP5 PUSH2 0x12B0 JUMP JUMPDEST SWAP3 SWAP2 POP POP JUMP JUMPDEST PUSH2 0x12E1 DUP2 PUSH2 0x12A7 JUMP JUMPDEST DUP2 EQ PUSH2 0x12EB JUMPI PUSH0 DUP1 REVERT JUMPDEST POP JUMP JUMPDEST PUSH0 DUP2 CALLDATALOAD SWAP1 POP PUSH2 0x12FC DUP2 PUSH2 0x12D8 JUMP JUMPDEST SWAP3 SWAP2 POP POP JUMP JUMPDEST PUSH0 PUSH1 0x20 DUP3 DUP5 SUB SLT ISZERO PUSH2 0x1317 JUMPI PUSH2 0x1316 PUSH2 0x110C JUMP JUMPDEST JUMPDEST PUSH0 PUSH2 0x1324 DUP5 DUP3 DUP6 ADD PUSH2 0x12EE JUMP JUMPDEST SWAP2 POP POP SWAP3 SWAP2 POP POP JUMP JUMPDEST PUSH0 DUP2 SWAP1 POP SWAP2 SWAP1 POP JUMP JUMPDEST PUSH2 0x133F DUP2 PUSH2 0x132D JUMP JUMPDEST DUP3 MSTORE POP POP JUMP JUMPDEST PUSH0 PUSH1 0x20 DUP3 ADD SWAP1 POP PUSH2 0x1358 PUSH0 DUP4 ADD DUP5 PUSH2 0x1336 JUMP JUMPDEST SWAP3 SWAP2 POP POP JUMP JUMPDEST PUSH0 PUSH2 0x1368 DUP3 PUSH2 0x11C3 JUMP JUMPDEST SWAP1 POP SWAP2 SWAP1 POP JUMP JUMPDEST PUSH2 0x1378 DUP2 PUSH2 0x135E JUMP JUMPDEST DUP2 EQ PUSH2 0x1382 JUMPI PUSH0 DUP1 REVERT JUMPDEST POP JUMP JUMPDEST PUSH0 DUP2 CALLDATALOAD SWAP1 POP PUSH2 0x1393 DUP2 PUSH2 0x136F JUMP JUMPDEST SWAP3 SWAP2 POP POP JUMP JUMPDEST PUSH0 DUP1 PUSH1 0x40 DUP4 DUP6 SUB SLT ISZERO PUSH2 0x13AF JUMPI PUSH2 0x13AE PUSH2 0x110C JUMP JUMPDEST JUMPDEST PUSH0 PUSH2 0x13BC DUP6 DUP3 DUP7 ADD PUSH2 0x12EE JUMP JUMPDEST SWAP3 POP POP PUSH1 0x20 PUSH2 0x13CD DUP6 DUP3 DUP7 ADD PUSH2 0x1385 JUMP JUMPDEST SWAP2 POP POP SWAP3 POP SWAP3 SWAP1 POP JUMP JUMPDEST PUSH0 DUP2 MLOAD SWAP1 POP SWAP2 SWAP1 POP JUMP JUMPDEST PUSH0 DUP3 DUP3 MSTORE PUSH1 0x20 DUP3 ADD SWAP1 POP SWAP3 SWAP2 POP POP JUMP JUMPDEST PUSH0 JUMPDEST DUP4 DUP2 LT ISZERO PUSH2 0x140E JUMPI DUP1 DUP3 ADD MLOAD DUP2 DUP5 ADD MSTORE PUSH1 0x20 DUP2 ADD SWAP1 POP PUSH2 0x13F3 JUMP JUMPDEST PUSH0 DUP5 DUP5 ADD MSTORE POP POP POP POP JUMP JUMPDEST PUSH0 PUSH1 0x1F NOT PUSH1 0x1F DUP4 ADD AND SWAP1 POP SWAP2 SWAP1 POP JUMP JUMPDEST PUSH0 PUSH2 0x1433 DUP3 PUSH2 0x13D7 JUMP JUMPDEST PUSH2 0x143D DUP2 DUP6 PUSH2 0x13E1 JUMP JUMPDEST SWAP4 POP PUSH2 0x144D DUP2 DUP6 PUSH1 0x20 DUP7 ADD PUSH2 0x13F1 JUMP JUMPDEST PUSH2 0x1456 DUP2 PUSH2 0x1419 JUMP JUMPDEST DUP5 ADD SWAP2 POP POP SWAP3 SWAP2 POP POP JUMP JUMPDEST PUSH0 PUSH1 0x20 DUP3 ADD SWAP1 POP DUP2 DUP2 SUB PUSH0 DUP4 ADD MSTORE PUSH2 0x1479 DUP2 DUP5 PUSH2 0x1429 JUMP JUMPDEST SWAP1 POP SWAP3 SWAP2 POP POP JUMP JUMPDEST PUSH32 0x4E6F7420636C69656E7400000000000000000000000000000000000000000000 PUSH0 DUP3 ADD MSTORE POP JUMP JUMPDEST PUSH0 PUSH2 0x14B5 PUSH1 0xA DUP4 PUSH2 0x13E1 JUMP JUMPDEST SWAP2 POP PUSH2 0x14C0 DUP3 PUSH2 0x1481 JUMP JUMPDEST PUSH1 0x20 DUP3 ADD SWAP1 POP SWAP2 SWAP1 POP JUMP JUMPDEST PUSH0 PUSH1 0x20 DUP3 ADD SWAP1 POP DUP2 DUP2 SUB PUSH0 DUP4 ADD MSTORE PUSH2 0x14E2 DUP2 PUSH2 0x14A9 JUMP JUMPDEST SWAP1 POP SWAP2 SWAP1 POP JUMP JUMPDEST PUSH32 0x496E76616C696420737461747573000000000000000000000000000000000000 PUSH0 DUP3 ADD MSTORE POP JUMP JUMPDEST PUSH0 PUSH2 0x151D PUSH1 0xE DUP4 PUSH2 0x13E1 JUMP JUMPDEST SWAP2 POP PUSH2 0x1528 DUP3 PUSH2 0x14E9 JUMP JUMPDEST PUSH1 0x20 DUP3 ADD SWAP1 POP SWAP2 SWAP1 POP JUMP JUMPDEST PUSH0 PUSH1 0x20 DUP3 ADD SWAP1 POP DUP2 DUP2 SUB PUSH0 DUP4 ADD MSTORE PUSH2 0x154A DUP2 PUSH2 0x1511 JUMP JUMPDEST SWAP1 POP SWAP2 SWAP1 POP JUMP JUMPDEST PUSH32 0x446561646C696E65206E6F742070617373656400000000000000000000000000 PUSH0 DUP3 ADD MSTORE POP JUMP JUMPDEST PUSH0 PUSH2 0x1585 PUSH1 0x13 DUP4 PUSH2 0x13E1 JUMP JUMPDEST SWAP2 POP PUSH2 0x1590 DUP3 PUSH2 0x1551 JUMP JUMPDEST PUSH1 0x20 DUP3 ADD SWAP1 POP SWAP2 SWAP1 POP JUMP JUMPDEST PUSH0 PUSH1 0x20 DUP3 ADD SWAP1 POP DUP2 DUP2 SUB PUSH0 DUP4 ADD MSTORE PUSH2 0x15B2 DUP2 PUSH2 0x1579 JUMP JUMPDEST SWAP1 POP SWAP2 SWAP1 POP JUMP JUMPDEST PUSH0 DUP2 SWAP1 POP SWAP3 SWAP2 POP POP JUMP JUMPDEST POP JUMP JUMPDEST PUSH0 PUSH2 0x15D1 PUSH0 DUP4 PUSH2 0x15B9 JUMP JUMPDEST SWAP2 POP PUSH2 0x15DC DUP3 PUSH2 0x15C3 JUMP JUMPDEST PUSH0 DUP3 ADD SWAP1 POP SWAP2 SWAP1 POP JUMP JUMPDEST PUSH0 PUSH2 0x15F0 DUP3 PUSH2 0x15C6 JUMP JUMPDEST SWAP2 POP DUP2 SWAP1 POP SWAP2 SWAP1 POP JUMP JUMPDEST PUSH32 0x526566756E64206661696C656400000000000000000000000000000000000000 PUSH0 DUP3 ADD MSTORE POP JUMP JUMPDEST PUSH0 PUSH2 0x162E PUSH1 0xD DUP4 PUSH2 0x13E1 JUMP JUMPDEST SWAP2 POP PUSH2 0x1639 DUP3 PUSH2 0x15FA JUMP JUMPDEST PUSH1 0x20 DUP3 ADD SWAP1 POP SWAP2 SWAP1 POP JUMP JUMPDEST PUSH0 PUSH1 0x20 DUP3 ADD SWAP1 POP DUP2 DUP2 SUB PUSH0 DUP4 ADD MSTORE PUSH2 0x165B DUP2 PUSH2 0x1622 JUMP JUMPDEST SWAP1 POP SWAP2 SWAP1 POP JUMP JUMPDEST PUSH32 0x43616E6E6F742064697370757465206E6F770000000000000000000000000000 PUSH0 DUP3 ADD MSTORE POP JUMP JUMPDEST PUSH0 PUSH2 0x1696 PUSH1 0x12 DUP4 PUSH2 0x13E1 JUMP JUMPDEST SWAP2 POP PUSH2 0x16A1 DUP3 PUSH2 0x1662 JUMP JUMPDEST PUSH1 0x20 DUP3 ADD SWAP1 POP SWAP2 SWAP1 POP JUMP JUMPDEST PUSH0 PUSH1 0x20 DUP3 ADD SWAP1 POP DUP2 DUP2 SUB PUSH0 DUP4 ADD MSTORE PUSH2 0x16C3 DUP2 PUSH2 0x168A JUMP JUMPDEST SWAP1 POP SWAP2 SWAP1 POP JUMP JUMPDEST PUSH32 0x5061737420646561646C696E6500000000000000000000000000000000000000 PUSH0 DUP3 ADD MSTORE POP JUMP JUMPDEST PUSH0 PUSH2 0x16FE PUSH1 0xD DUP4 PUSH2 0x13E1 JUMP JUMPDEST SWAP2 POP PUSH2 0x1709 DUP3 PUSH2 0x16CA JUMP JUMPDEST PUSH1 0x20 DUP3 ADD SWAP1 POP SWAP2 SWAP1 POP JUMP JUMPDEST PUSH0 PUSH1 0x20 DUP3 ADD SWAP1 POP DUP2 DUP2 SUB PUSH0 DUP4 ADD MSTORE PUSH2 0x172B DUP2 PUSH2 0x16F2 JUMP JUMPDEST SWAP1 POP SWAP2 SWAP1 POP JUMP JUMPDEST PUSH32 0x5061796D656E74206661696C6564000000000000000000000000000000000000 PUSH0 DUP3 ADD MSTORE POP JUMP JUMPDEST PUSH0 PUSH2 0x1766 PUSH1 0xE DUP4 PUSH2 0x13E1 JUMP JUMPDEST SWAP2 POP PUSH2 0x1771 DUP3 PUSH2 0x1732 JUMP JUMPDEST PUSH1 0x20 DUP3 ADD SWAP1 POP SWAP2 SWAP1 POP JUMP JUMPDEST PUSH0 PUSH1 0x20 DUP3 ADD SWAP1 POP DUP2 DUP2 SUB PUSH0 DUP4 ADD MSTORE PUSH2 0x1793 DUP2 PUSH2 0x175A JUMP JUMPDEST SWAP1 POP SWAP2 SWAP1 POP JUMP JUMPDEST PUSH32 0x5265656E7472616E637947756172643A207265656E7472616E742063616C6C00 PUSH0 DUP3 ADD MSTORE POP JUMP JUMPDEST PUSH0 PUSH2 0x17CE PUSH1 0x1F DUP4 PUSH2 0x13E1 JUMP JUMPDEST SWAP2 POP PUSH2 0x17D9 DUP3 PUSH2 0x179A JUMP JUMPDEST PUSH1 0x20 DUP3 ADD SWAP1 POP SWAP2 SWAP1 POP JUMP JUMPDEST PUSH0 PUSH1 0x20 DUP3 ADD SWAP1 POP DUP2 DUP2 SUB PUSH0 DUP4 ADD MSTORE PUSH2 0x17FB DUP2 PUSH2 0x17C2 JUMP JUMPDEST SWAP1 POP SWAP2 SWAP1 POP JUMP JUMPDEST PUSH2 0x180B DUP2 PUSH2 0x135E JUMP JUMPDEST DUP3 MSTORE POP POP JUMP JUMPDEST PUSH0 PUSH1 0x40 DUP3 ADD SWAP1 POP PUSH2 0x1824 PUSH0 DUP4 ADD DUP6 PUSH2 0x1802 JUMP JUMPDEST PUSH2 0x1831 PUSH1 0x20 DUP4 ADD DUP5 PUSH2 0x12B0 JUMP JUMPDEST SWAP4 SWAP3 POP POP POP JUMP INVALID LOG2 PUSH5 0x6970667358 0x22 SLT KECCAK256 PUSH20 0x970832C9CF151066601906001D462B7BC79092BC SAR PUSH15 0xA19F75221D0CACEE4C64736F6C6343 STOP ADDMOD EQ STOP CALLER "
				},
				"gasEstimates": {
					"creation": {
						"codeDepositCost": "1250800",
						"executionCost": "infinite",
						"totalCost": "infinite"
					},
					"external": {
						"AGENT_ROLE()": "348",
						"CLIENT_ROLE()": "413",
						"DEFAULT_ADMIN_ROLE()": "352",
						"agent()": "2618",
						"amount()": "2469",
						"cancelAndRefund()": "infinite",
						"client()": "2554",
						"confirmCompletion()": "infinite",
						"deadline()": "2492",
						"getRoleAdmin(bytes32)": "infinite",
						"getStatus()": "infinite",
						"grantRole(bytes32,address)": "infinite",
						"hasRole(bytes32,address)": "3189",
						"raiseDispute()": "30210",
						"renounceRole(bytes32,address)": "infinite",
						"revokeRole(bytes32,address)": "infinite",
						"status()": "2644",
						"supportsInterface(bytes4)": "741"
					}
				},
				"methodIdentifiers": {
					"AGENT_ROLE()": "22459e18",
					"CLIENT_ROLE()": "eae6f652",
					"DEFAULT_ADMIN_ROLE()": "a217fddf",
					"agent()": "f5ff5c76",
					"amount()": "aa8c217c",
					"cancelAndRefund()": "2009dc65",
					"client()": "109e94cf",
					"confirmCompletion()": "a06aa1ab",
					"deadline()": "29dcb0cf",
					"getRoleAdmin(bytes32)": "248a9ca3",
					"getStatus()": "4e69d560",
					"grantRole(bytes32,address)": "2f2ff15d",
					"hasRole(bytes32,address)": "91d14854",
					"raiseDispute()": "6daa2d44",
					"renounceRole(bytes32,address)": "36568abe",
					"revokeRole(bytes32,address)": "d547741f",
					"status()": "200d2ed2",
					"supportsInterface(bytes4)": "01ffc9a7"
				}
			},
			"storageLayout": {
				"storage": [
					{
						"astId": 26,
						"contract": "contract/SafeServiceEscrow.sol:SafeServiceEscrow",
						"label": "_roles",
						"offset": 0,
						"slot": "0",
						"type": "t_mapping(t_bytes32,t_struct(RoleData)21_storage)"
					},
					{
						"astId": 389,
						"contract": "contract/SafeServiceEscrow.sol:SafeServiceEscrow",
						"label": "_status",
						"offset": 0,
						"slot": "1",
						"type": "t_uint256"
					},
					{
						"astId": 534,
						"contract": "contract/SafeServiceEscrow.sol:SafeServiceEscrow",
						"label": "agent",
						"offset": 0,
						"slot": "2",
						"type": "t_address_payable"
					},
					{
						"astId": 536,
						"contract": "contract/SafeServiceEscrow.sol:SafeServiceEscrow",
						"label": "client",
						"offset": 0,
						"slot": "3",
						"type": "t_address_payable"
					},
					{
						"astId": 538,
						"contract": "contract/SafeServiceEscrow.sol:SafeServiceEscrow",
						"label": "deadline",
						"offset": 0,
						"slot": "4",
						"type": "t_uint256"
					},
					{
						"astId": 540,
						"contract": "contract/SafeServiceEscrow.sol:SafeServiceEscrow",
						"label": "amount",
						"offset": 0,
						"slot": "5",
						"type": "t_uint256"
					},
					{
						"astId": 543,
						"contract": "contract/SafeServiceEscrow.sol:SafeServiceEscrow",
						"label": "status",
						"offset": 0,
						"slot": "6",
						"type": "t_enum(Status)532"
					}
				],
				"types": {
					"t_address": {
						"encoding": "inplace",
						"label": "address",
						"numberOfBytes": "20"
					},
					"t_address_payable": {
						"encoding": "inplace",
						"label": "address payable",
						"numberOfBytes": "20"
					},
					"t_bool": {
						"encoding": "inplace",
						"label": "bool",
						"numberOfBytes": "1"
					},
					"t_bytes32": {
						"encoding": "inplace",
						"label": "bytes32",
						"numberOfBytes": "32"
					},
					"t_enum(Status)532": {
						"encoding": "inplace",
						"label": "enum SafeServiceEscrow.Status",
						"numberOfBytes": "1"
					},
					"t_mapping(t_address,t_bool)": {
						"encoding": "mapping",
						"key": "t_address",
						"label": "mapping(address => bool)",
						"numberOfBytes": "32",
						"value": "t_bool"
					},
					"t_mapping(t_bytes32,t_struct(RoleData)21_storage)": {
						"encoding": "mapping",
						"key": "t_bytes32",
						"label": "mapping(bytes32 => struct AccessControl.RoleData)",
						"numberOfBytes": "32",
						"value": "t_struct(RoleData)21_storage"
					},
					"t_struct(RoleData)21_storage": {
						"encoding": "inplace",
						"label": "struct AccessControl.RoleData",
						"members": [
							{
								"astId": 18,
								"contract": "contract/SafeServiceEscrow.sol:SafeServiceEscrow",
								"label": "hasRole",
								"offset": 0,
								"slot": "0",
								"type": "t_mapping(t_address,t_bool)"
							},
							{
								"astId": 20,
								"contract": "contract/SafeServiceEscrow.sol:SafeServiceEscrow",
								"label": "adminRole",
								"offset": 0,
								"slot": "1",
								"type": "t_bytes32"
							}
						],
						"numberOfBytes": "64"
					},
					"t_uint256": {
						"encoding": "inplace",
						"label": "uint256",
						"numberOfBytes": "32"
					}
				}
			},
			"userdoc": {
				"kind": "user",
				"methods": {},
				"version": 1
			}
		}
	}
}